:100000000C9459010C94AC150C94D3150C948101EB
:100010000C9481010C9481010C9481010C943F0A91
:100020000C9481010C9481010C9481010C94E803DF
:100030000C9481010C9481010C9481010C94810138
:100040000C9486180C9481010C947D140C94AF14BC
:100050000C9481010C9481010C9481010C94810118
:100060000C9481010C948101084AD73B3BCE016E70
:1000700084BCBFFDC12F3D6C74319ABD56833DDAFF
:100080003D00C77F11BED9E4BB4C3E916BAAAABE0E
:10009000000000803F05A84CCDB2D44EB93836A937
:1000A000020C50B9918688083CA6AAAA2ABE000074
:1000B00000803F0664EC1B3C04BC163E3BE5B93CAB
:1000C000C93C37C29E5A3D660498083EEA69AAAA0E
:1000D0003E000000803F07634236B79BD8A71A391D
:1000E000685618AEBAAB558C1D3CB7CC5763BD6D86
:1000F000EDFD753EF6177231BF000000803F08002D
:100100000000BE922449123EABAAAA2ABECDCCCC96
:100110004C3E00000080BEABAAAAAA3E0000000030
:10012000BF000000803F0000000000084178D3BB02
:100130004387D1133D190E3CC3BD4282AD2B3E68AF
:10014000EC8276BED98FE1A93E4C80EFFFBE01C4A0
:10015000FF7F3F000000000000407A10F35A00A02B
:10016000724E18090010A5D4E80000E87648170080
:1001700000E40B54020000CA9A3B000000E1F505C0
:10018000000080969800000040420F000000A0860A
:1001900001000000102700000000E803000000003C
:1001A0006400000000000A000000000001000000E0
:1001B00000002C76D888DC674F0823DFC1DFAE59FA
:1001C000E1B1B796E5E3E453C63AE651997696E88D
:1001D000E6C28426EB898C9B62ED407C6FFCEFBC11
:1001E0009C9F40F2BAA56FA5F490055A2AF75C933C
:1001F0006B6CF9676DC11BFCE0E40D47FEF520E672
:10020000B500D0ED902E0300943577050080841E54
:10021000080000204E0A000000C80C333333330FAF
:10022000986E12831141EF8D2114893BE65516CF4C
:10023000FEE6DB18D1844B381BF77C1D901DA4BB58
:10024000E424203284725E228100C9F124ECA1E50D
:100250003D27000000080002010000030407000021
:10026000000000000000010204081020408001028C
:1002700004081020010204081020040404040404EB
:100280000404020202020202030303030303000048
:10029000000023002600290000000000250028009F
:1002A0002B0000000000240027002A00A8113A13A8
:1002B000DF1411241FBECFEFD8E0DEBFCDBF13E0A7
:1002C000A0E0B1E0E2E3FDE402C005900D92A438A5
:1002D000B107D9F725E0A4E8B3E001C01D92A3352A
:1002E000B207E1F711E0C9E5D1E004C02197FE01B2
:1002F0000E94DC1AC635D107C9F70E9477180C9402
:1003000097260C94000008950F931F930E94D01815
:100310000091D9031091DA032091DB033091DC03C3
:10032000601771078207930741F16091D5037091BF
:10033000D6038091D7039091D803969587957795AA
:1003400067950E943F1C6093F1037093F2038093C2
:10035000F3039093F4030E94D0186093D903709331
:10036000DA038093DB039093DC031092D5031092A1
:10037000D6031092D7031092D8030E94DC18609322
:10038000DD037093DE038093DF039093E00380919D
:10039000D5039091D603A091D703B091D8030196CD
:1003A000A11DB11D8093D5039093D603A093D703CD
:1003B000B093D8031F910F9108958F929F92AF929F
:1003C000BF92CF92DF92EF92FF926B017C0120E00F
:1003D00030E040EB50E40E94641D0E94921B4B01F0
:1003E0005C0120E030E040E050ECC701B6010E9423
:1003F000641D0E94921B9B01AC01C501B4010E94C7
:10040000F21A20E030E040E05FE30E94641DFF90BC
:10041000EF90DF90CF90BF90AF909F908F90089516
:100420002091B1033091B2034091B3035091B403D2
:100430000E94F11A9B01AC010E94641D9B01AC015A
:100440000E94F21A9B01AC01505860910D0170910D
:100450000E0180910F01909110010C94D11D2091FB
:10046000B1033091B2034091B3035091B4030E94A1
:10047000F11A9B01AC010E94641D9B01AC01505814
:1004800060910D0170910E0180910F01909110010A
:100490000C94D11D2091B1033091B2034091B3036C
:1004A0005091B4030E94F11A9B01AC010E94641D9B
:1004B00020E030E040EC5FE30E94971B9B01AC0121
:1004C000505860910D0170910E0180910F01909133
:1004D00010010C94D11D2091B1033091B2034091D1
:1004E000B3035091B4030E94F11A9B01AC010E9426
:1004F000641D2DEC3CEC4CE050E40E94971B9B01EA
:10050000AC01505860910D0170910E0180910F0166
:10051000909110010C94D11D2091B1033091B20340
:100520004091B3035091B4030E94F11A9B01AC01B6
:100530000E94641D20E030E040E450E40E94971BDC
:100540009B01AC01505860910D0170910E0180919A
:100550000F01909110010C94D11D8F929F92AF9238
:10056000BF92CF92DF92EF92FF924B015C01690143
:100570007A0120E030E0A901C701B6010E948D1B7D
:1005800087FF04C0F7FAF094F7F8F0942091B103D4
:100590003091B2034091B3035091B403C501B4014B
:1005A0000E94F11A9B01AC010E94641D4B015C0189
:1005B00020E030E040EA50E4C701B6010E94641D2B
:1005C0002DEC3CEC4CEC5DE30E94F21A9B01AC017B
:1005D000C501B4010E94971B9B01AC01505860916A
:1005E0000D0170910E0180910F0190911001FF900B
:1005F000EF90DF90CF90BF90AF909F908F900C9432
:10060000D11D8F929F92AF92BF92CF92DF92EF92C5
:10061000FF924B015C012DEC3CEC4CE45FE30E944B
:10062000F11A9B01AC010E94641D2DEC3CEC4CECDA
:100630005DE30E94971B9B01AC01505866EB73EF82
:100640008DE290E40E94D11D6B017C0126E636E626
:1006500046EE5FE3C501B4010E94F11A9B01AC01B3
:100660000E94641D2DEC3CEC4CEC5DE30E94971B5A
:100670009B01AC01505866EB73EF8DE290E40E9451
:10068000D11D9B01AC01C701B6010E94F21AFF9077
:10069000EF90DF90CF90BF90AF909F908F90089594
:1006A0000C94211E8F929F92AF92BF92CF92DF92B5
:1006B000EF92FF926B017C010E94211E4B015C01B5
:1006C00020E030E040EC50E4C701B6010E94641D18
:1006D0000E94921B2DEC3CEC4CE45EE30E94641DF6
:1006E000A50194010E94F21A20E030E040E05FE3AF
:1006F0000E94641DFF90EF90DF90CF90BF90AF906D
:100700009F908F90089587E993E00C943B1660FFCB
:100710004FC05A9A9BB128E092279BB98BB1822790
:100720008BB961FF47C05A9A9BB128E092279BB9C9
:100730008BB182278BB962FF3FC05A9A9BB128E0E8
:1007400092279BB98BB182278BB963FF37C05A9A26
:100750009BB128E092279BB98BB182278BB964FFAC
:100760002FC05A9A9BB128E092279BB98BB1822760
:100770008BB965FF27C05A9A9BB128E092279BB995
:100780008BB182278BB966FF1FC05A9A9BB128E0B4
:1007900092279BB98BB182278BB967FF17C05A9AF2
:1007A0009BB128E092279BB98BB182278BB9089522
:1007B0005A98B0CF5A98B8CF5A98C0CF5A98C8CF45
:1007C0005A98D0CF5A98D8CF5A98E0CF5A98E8CFB5
:1007D0001F920F920FB60F9211240F931F932F9316
:1007E0003F934F935F936F937F938F939F93AF93B9
:1007F000BF93CF93DF93EF93FF93F894C091A2043C
:10080000D091A3048D81882371F1EC818A819B8131
:10081000E80FF92FF11D6081CE010E9487039BB183
:1008200020E192279BB98BB182278BB98C818F5F96
:100830008C839981891301C01C827894FF91EF9178
:10084000DF91CF91BF91AF919F918F917F916F91E8
:100850005F914F913F912F911F910F910F900FBE7C
:100860000F901F90189508810150110B0F3F100732
:10087000B1F2EC818981809F9001819F300D11241C
:100880008A819B81820F931FE80FF92FF11D6081F0
:10089000CE010E94870301501109E8CF2F923F92A9
:1008A0004F925F926F927F928F929F92AF92BF9280
:1008B000CF92DF92EF92FF921F93CF93DF93CDB74A
:1008C000DEB72E970FB6F894DEBF0FBECDBFB09047
:1008D0001501C0901601D0901701E0901801F0901A
:1008E000F1031091F2032091F3032D833091F4036F
:1008F000398320E030E0A9016F2D712F8D8199811E
:100900000E948D1B811104C0FB2C1C2DDD82E9820D
:100910002F2D312F4D81598160E070E080E89FE3F9
:100920000E94971B20E030E04AE754E40E94641DD7
:1009300020E030E04AE754E40E94641D0E94101C4D
:100940004B015C018092C1039092C203A092C30349
:10095000B092C4037C016B01F694E794D794C794DA
:10096000C092BD03D092BE03E092BF03F092C003D9
:10097000C701B6010E943F1C69837A838B839C83E5
:1009800020E030E040E85BE30E94641D6093B9031F
:100990007093BA038093BB039093BC0344EE51E081
:1009A0005E874D87312C212CD501C4018E7F89872C
:1009B0009A87AB87BC870E94DC182091CE03222344
:1009C00089F08090DD039090DE03A090DF03B0906B
:1009D000E003681979098A099B09603A76488F4FC4
:1009E0009F4F90F160E0ED85FE8580810E94001AA6
:1009F00060E0AD85BE8518968C910E94001A2D8509
:100A00003E852E5F3F4F3E872D8732E0230E311CFF
:100A100048E02416310479F62E960FB6F894DEBF1E
:100A20000FBECDBFDF91CF911F91FF90EF90DF9070
:100A3000CF90BF90AF909F908F907F906F905F907E
:100A40004F903F902F900895F101EF51FC4F80811E
:100A5000918160E071E0681B790B072E000C880B18
:100A6000990B0E94411C2091B9033091BA03409127
:100A7000BB035091BC030E94641D6093B503709347
:100A8000B6038093B7039093B8030E94DC1880905C
:100A9000DD039090DE03A090DF03B090E0039B01A4
:100AA000AC01281939094A095B0949015A01CA01EF
:100AB000B9010E943F1C6D837E838F83988740908D
:100AC000B5035090B6036090B7037090B803A301CC
:100AD00092010E94571D181634F411E08C149D04E5
:100AE000AE04BF0408F010E0A301920169817A818D
:100AF0008B819C810E94F21A9B01AC016D817E81E9
:100B00008F8198850E94571D1816A4F489859A85AF
:100B1000AB85BC8588169906AA06BB0658F461E029
:100B2000AD85BE858C910E94001A61E0ED85FE8541
:100B3000808563CF1111F3CF60E0AD85BE858C91C8
:100B40000E94001A60E0F2CF0E942D1E9B01AC01B2
:100B500060E070E080E89FE30E94971B08958F9209
:100B60009F92AF92BF92CF92DF92EF92FF929B0142
:100B7000AC01C090D601D090D701E090D801F090A0
:100B8000D901C701B6010E94641D20E030E040E8B1
:100B90005EEB0E94641D0E94A4050E945E1B4B0137
:100BA0005C01A701960163E373E383EB9FE30E947B
:100BB000971BA50194010E94641D9B01AC016AE989
:100BC00079E989E99EE30E94F11AFF90EF90DF90A6
:100BD000CF90BF90AF909F908F900895CF93DF9369
:100BE00020919D0330919E038CE0829FF001839FB2
:100BF000F00D1124EB50FC4F80859185019740E565
:100C000053E08530910538F4880F991FFC01EB59AA
:100C1000FC4F408151818CE0829FF001839FF00D59
:100C20001124EB50FC4F8285938501976AE472E0B2
:100C30008730910538F4880F991FFC01E95AFC4F61
:100C4000608171818CE0829FF001839FF00D1124FF
:100C5000EB50FC4FC081D181A281B38124813581C9
:100C600086819781F9013197349710F021E030E0C7
:100C7000FC013197329710F081E090E0D093A80307
:100C8000C093A703B093AA03A093A9033093AC0326
:100C90002093AB039093AE038093AD035093A603D0
:100CA0004093A5037093A4036093A303DF91CF91B6
:100CB00008952F923F924F925F926F927F928F9200
:100CC0009F92AF92BF92CF92DF92EF92FF920F93DB
:100CD0001F93CF93DF93CDB7DEB72E970FB6F8945F
:100CE000DEBF0FBECDBF382E882331F065E072E045
:100CF00086EA94E00E947415D12CC12CF12CE12CD1
:100D000096E0292E332021F14AE0B701CE01079663
:100D10000E94CC1660E272E0CE0101960E94AD16F0
:100D2000BE01695F7F4FCE0101960E940C1868E2F8
:100D300072E00E941F18BC0186EA94E00E944815E8
:100D4000CE0101960E943B16CE0107960E943B16EB
:100D500010E000E0B12CA12C2E9CC0012F9C900D26
:100D600011249E878D8746019FEF891A990AB80141
:100D70006C0D7D1D84EA94E00E94E512482E512CF2
:100D8000712C612C01151105C9F5B40184EA94E0B8
:100D90000E94E512480E511C611C711CED85FE85F8
:100DA000EA0DFB1DEE0FFF1FEB50FC4F51824082FE
:100DB000332001F14AE0B201CE0107960E94CC1621
:100DC000BE01695F7F4FCE0101960E94791769E9E4
:100DD00072E0CE0101960E941F18BC0186EA94E0E1
:100DE0000E944815CE0101960E943B16CE0107963F
:100DF0000E943B168FEFA81AB80A03C001301105F4
:100E000069F60F5F1F4F0730110509F0B0CF33208F
:100E100021F086EA94E00E945E159FEFE91AF90A34
:100E200087E0C80ED11C9EE0E916F10409F06ACFF4
:100E30002E960FB6F894DEBF0FBECDBFDF91CF91D7
:100E40001F910F91FF90EF90DF90CF90BF90AF90E8
:100E50009F908F907F906F905F904F903F902F90DA
:100E600008952F923F924F925F926F927F928F924E
:100E70009F92AF92BF92CF92DF92EF92FF920F9329
:100E80001F93CF93DF9300D000D000D0CDB7DEB753
:100E90007C010E94681827E0269F8001279F100D83
:100EA0001124670186E0C80ED11CC6010E94681893
:100EB0004FEF6F3F71058105910509F024F4C601DC
:100EC0000E946818462FB80184EA94E00E94EB1251
:100ED000C6010E94681840E06F3F710581059105C9
:100EE00031F02CF0C6010E94681841E0460FB801AD
:100EF0006F5F7F4F84EA94E00E94EB1247018CE021
:100F0000880E911CC4010E946818462FB8016E5FBC
:100F10007F4F84EA94E00E94EB12570182E1A80E11
:100F2000B11CC5010E946818462FB8016D5F7F4F44
:100F300084EA94E00E94EB12370188E1680E711C8C
:100F4000C3010E946818462FB8016C5F7F4F84EA86
:100F500094E00E94EB1227018EE1480E511CC20161
:100F60000E946818462FB8016B5F7F4F84EA94E0B7
:100F70000E94EB12170184E2280E311CC1010E946D
:100F80006818462FB8016A5F7F4F84EA94E00E9498
:100F9000EB126FE272E0CE0101960E94AD16B7012E
:100FA000CE0101960E940C1869E972E00E941F1898
:100FB000B6010E940C1869E972E00E941F18B40182
:100FC0000E940C1869E972E00E941F18B5010E9486
:100FD0000C1869E972E00E941F18B3010E940C18F6
:100FE00069E972E00E941F18B2010E940C1869E9B9
:100FF00072E00E941F18B1010E940C18BC0186EA21
:1010000094E00E946215CE0101960E943B1626963E
:101010000FB6F894DEBF0FBECDBFDF91CF911F9109
:101020000F91FF90EF90DF90CF90BF90AF909F9087
:101030008F907F906F905F904F903F902F9008958A
:10104000CF93DF93CDB7DEB72C970FB6F894DEBF02
:101050000FBECDBF61E472E0CE0107960E94AD16CF
:1010600065E472E0CE0101960E94AD16BE01695F93
:101070007F4FCE0101960E940C18BC0186EA94E0D5
:101080000E946215CE0101960E943B16CE01079682
:101090000E943B162C960FB6F894DEBF0FBECDBF54
:1010A000DF91CF9108956F927F928F929F92AF922E
:1010B000BF92CF92DF92EF92FF920F931F93CF9345
:1010C000DF93CDB7DEB7E0970FB6F894DEBF0FBE63
:1010D000CDBF99E1692E91E0792EF12CE12C8E01A2
:1010E000055D1F4FCE0101966C015C0163E873E062
:1010F000C6010E94AD1696E0C90ED11CC016D106DD
:10110000A9F74AE0B701C8010E94CC16B801C50191
:101110000E948217C8010E943B164E0187E0880E8C
:10112000911CD12CC12CF601EE0FFF1FE60DF71D0F
:10113000608171814AE0C8010E94CC169FEFC91AF4
:10114000D90AB801C4010E948217C8010E943B1647
:1011500086E0880E911C97E0C916D10421F7C501DD
:101160000E943107680186E0C81AD108C6010E94B2
:101170003B16AC14BD04B9F79FEFE91AF90A8CE0ED
:10118000680E711C9EE0E916F10409F0ABCFE09601
:101190000FB6F894DEBF0FBECDBFDF91CF911F9188
:1011A0000F91FF90EF90DF90CF90BF90AF909F9006
:1011B0008F907F906F90089564EF71E084EA94E0DF
:1011C0000E94E5128F3649F00E9453084FE664EF03
:1011D00071E084EA94E00C94EB120895CF93DF93CE
:1011E00000D0CDB7DEB74AE050E0BE016F5F7F4F61
:1011F000FC01808191810E941022E981FA8181E0C5
:101200009081911180E00F900F90DF91CF91089520
:10121000CF92DF92EF92FF920F931F93CF93DF93C2
:10122000CDB7DEB72C970FB6F894DEBF0FBECDBF9B
:101230008C0169E572E00E9439188823B9F00E9498
:10124000530862E672E086EA94E00E9474152C96D8
:101250000FB6F894DEBF0FBECDBFDF91CF911F91C7
:101260000F91FF90EF90DF90CF9008956FE672E0BE
:10127000C8010E943918882321F081E00E94590694
:10128000E6CF66E772E0C8010E943918882319F09A
:101290000E942008DCCF6EE772E0C8010E94391876
:1012A000882321F081E08093A104D1CF64E872E02B
:1012B000C8010E9439188823E9F01092A104809196
:1012C000D3039091D403885E93409093D40380938A
:1012D000D3038091FA010E942E1A909314018093F7
:1012E00013018091F8010E942E1A909312018093AD
:1012F0001101ADCF69E872E0C8010E943918882356
:1013000009F444C00A5F1F4F6DE872E0CE010196F8
:101310000E94AD16B801CE0101960E940C18BC01C6
:1013200086EA94E00E946215CE0101960E943B1667
:101330001092A00410929F0482ECC82E81E0D82E57
:10134000F12CE12CB701C8010E945618FC018081E4
:1013500091E0813309F090E0F60191936F018133C0
:1013600069F4FEE0EF16F1044CF480919F04909133
:10137000A00401969093A00480939F042FEFE21A9B
:10138000F20A80E1E816F104E9F661CF6BE972E058
:10139000C8010E9439188823F1F168EE73E084EAED
:1013A00094E00E94E8126038E6E97E07E8E98E07DB
:1013B000910578F020E030E0A90168EE73E084EA5E
:1013C00094E00E94F11268EE73E084EA94E00E94D7
:1013D000E8122AE0AB01BC01CE0107960E94F81684
:1013E00064EA72E0CE0101960E94AD16BE01695F0B
:1013F0007F4FCE0101960E940C18BC0186EA94E052
:101400000E946215CE0101960E943B16CE010796FE
:101410000E943B161CCF6FEA72E0C8010E94391887
:10142000882399F050E040E0BE016F5F7F4FF801E4
:10143000868197810E9410229B01AC0168EE73E0C7
:1014400084EA94E00E94F11202CFB801CE01019625
:101450000E947917CE0101960E94EE08F82ECE0167
:1014600001960E943B16FF2009F4F1CEC8010E94AC
:10147000310780E00E9459060E94EE05E8CE1F92D7
:101480000F920FB60F9211242F933F934F935F93B8
:101490006F937F938F939F93AF93BF93EF93FF933C
:1014A0000E944E04FF91EF91BF91AF919F918F9158
:1014B0007F916F915F914F913F912F910F900FBE50
:1014C0000F901F901895CF92DF92FF920F931F936A
:1014D000CF93DF93F82E062F61E0802F0E94C4196E
:1014E00060E08F2D0E94C41910E0C7E0D0E0CC244A
:1014F000C394D12C60E0802F0E94001A82E090E01B
:101500000E943A198F2D0E942E1A892B39F0C6019C
:101510000C2E01C0880F0A94EAF7182B61E0802F87
:101520000E94001A219730F7812FDF91CF911F91F0
:101530000F91FF90DF90CF900895EF92FF920F935D
:101540001F93CF93DF93CDB7DEB72C970FB6F894E8
:10155000DEBF0FBECDBF61E08091DA010E94001AAC
:1015600084E190E00E943A1960E08091DA010E94E3
:10157000001A6091DC017091DD018091DE01909193
:10158000DF010E94630A182F6091DC017091DD0178
:101590008091DE019091DF010E94630A90919D0489
:1015A00091112AC0E2ECF1E0DF0130E020E0612F90
:1015B00070E0AB01022E02C0559547950A94E2F700
:1015C000417017964C9317972F5F3F4F1197283014
:1015D000310579F730E020E090E0AC01022E02C046
:1015E000559547950A94E2F7417047872F5F3F4F23
:1015F00031972830310589F762EC72E086EA94E091
:101600000E94561582ECE82E81E0F82E10E000E0F2
:10161000F70161917F0170E04AE0CE0101960E94DE
:10162000CC16BE016F5F7F4F86EA94E00E9448159A
:10163000CE0101960E943B160F5F1F4F003111052E
:1016400009F067C086EA94E00E945E15E091D4013B
:10165000F091D501EE53FE4F80816EEB72E088234E
:1016600011F06BEB72E0CE0107960E94AD1661EDB2
:1016700072E0CE0101960E94AD16BE01695F7F4FF8
:10168000CE0101960E940C18BC0186EA94E00E94EB
:101690006215CE0101960E943B16CE0107960E946C
:1016A0003B16E091D201F091D301EE53FE4F8081C1
:1016B0006EEB72E0882311F06BEB72E0CE010796BF
:1016C0000E94AD1663EE72E0CE0101960E94AD1647
:1016D000BE01695F7F4FCE0101960E940C18BC01CC
:1016E00086EA94E00E946215CE0101960E943B16A4
:1016F000CE0107960E943B162C960FB6F894DEBFDB
:101700000FBECDBFDF91CF911F910F91FF90EF9052
:1017100008950830110509F07BCF69E972E086EA87
:1017200094E00E94561574CFCF92DF92EF92FF9211
:10173000CF93DF9326E040E052EC61E070E086EA70
:1017400094E00E941B1463E873E086EA94E00E9430
:1017500074156AEF72E086EA94E00E9474150E94A4
:1017600020086AEF72E086EA94E00E947415F8940B
:101770001092B0001092B1001092B20082E58093F6
:10178000B3008091B10082608093B1008091B1007C
:1017900083608093B10080917000826080937000BC
:1017A000789462E08091E2010E94C4198091E20184
:1017B0009091E30182309105A9F00397A9F481E0AB
:1017C00043E050E064E871E00E948C15C4EED1E083
:1017D00021E0C43FD20751F08881229661E00E9447
:1017E000C419F6CF80E0ECCF8FEFEACF62E08091B2
:1017F000FA010E94C41962E08091F8010E94C419A4
:1018000061E08091F6010E94C41961E08091F401C9
:101810000E94C41960E08091DE010E94C41961E059
:101820008091DC010E94C41961E08091DA010E947C
:10183000C4190E949D0A80919F049091A004E2EC3B
:10184000F1E021912111019621E0E03DF207C9F775
:101850009093A00480939F04892B49F481E08093A6
:10186000C20181E090E09093A00480939F0480E007
:101870000E948019EC0181E00E948019C80FD91FD5
:1018800082E00E9480198C0F9D1F63E070E00E942F
:10189000681A6B01770FEE08FF08C701B6010E94B6
:1018A000FA15C701B6010E94011961E08091E001BB
:1018B0000E94C4190E94DC0881E0DF91CF91FF9063
:1018C000EF90DF90CF900C945906CF93DF9300D028
:1018D00000D000D0CDB7DEB7E091D401F091D501B2
:1018E000EE53FE4F8081882351F163E873E0CE010F
:1018F00001960E94AD162EE030E040E050E060E03E
:1019000070E0CB010E941C16FB01EE53FE4F2081BC
:10191000222389F370938E0360938D03CE01019689
:101920000E943B1680918D0390918E0326960FB6F0
:10193000F894DEBF0FBECDBFDF91CF9108958091A7
:101940000A01811109C080918D0390918E03019647
:1019500090938E0380938D0320918D0330918E039D
:10196000C901F901EE53FE4F2191211106C00196E4
:1019700030E08E309105C4F3F3CF8E3091053CF406
:1019800090938E0380938D0310920A01CBCF109217
:101990008E0310928D03F8CF0F931F93CF93DF9395
:1019A0000E94D0182091D3033091D4034091CE03EC
:1019B000442309F443C0EB01C21BD30BCD3221E019
:1019C000D207E4F18091CF039091D003A091D1038D
:1019D000B091D203892B8A2B8B2B51F40E94D01803
:1019E0006093CF037093D0038093D1039093D2037D
:1019F000CD3DD540D4F01092CE031092CF0310927B
:101A0000D0031092D1031092D2031092C903109206
:101A1000CA031092CB031092CC031092C50310920C
:101A2000C6031092C7031092C8038091CE0380931F
:101A3000CD03DF91CF911F910F9108958091FA010D
:101A40000E942E1AEC018091F8010E942E1A20911A
:101A5000A1042223B1F0209113013091140191E0EF
:101A600080E0232B09F090E0C92FD82F809111013D
:101A70009091120131E020E0892B09F030E0832FB2
:101A8000922F20911301309114012C173D0741F53D
:101A900020911101309112012817390709F5209181
:101AA0009E0421111DC00E94D0180091C9031091FD
:101AB000CA032091CB033091CC03601B710B820BC6
:101AC000930B693E73408105910508F4AECF1092E7
:101AD000C9031092CA031092CB031092CC03A5CF76
:101AE000D0931401C09313019093120180931101BC
:101AF0000E94D0187093D4036093D3031092CF0345
:101B00001092D0031092D1031092D2038091C90396
:101B10009091CA03A091CB03B091CC03892B8A2B5F
:101B20008B2B51F40E94D0186093C9037093CA03A1
:101B30008093CB039093CC030E94D0180091C903EB
:101B40001091CA032091CB033091CC03601B710B21
:101B5000820B930B633371058105910508F465CF02
:101B60008091CD0381111AC00E94650C90939E0351
:101B700080939D030E94EE050E94D0186093C503D8
:101B80007093C6038093C7039093C8031092CF034A
:101B90001092D0031092D1031092D20381E080936F
:101BA000CE0360911301709114018091F6010E949F
:101BB000001A60911301709114018091F4010E9448
:101BC000001A33CF2F923F924F925F926F927F9283
:101BD0008F929F92AF92BF92CF92DF92EF92FF923D
:101BE0000F931F93CF93DF93CDB7DEB7AB970FB6AD
:101BF000F894DEBF0FBECDBF3B014C011901280197
:101C0000FC8EEB8EDE8ECD8EBFA2AEA2A0900B011D
:101C1000B0900C01B8A2AF8EBA01550F880B990B8A
:101C20000E94411C9B01AC01C401B3010E94971B9F
:101C30006B8B7C8B8D8B9E8BF60109956AA37BA3A6
:101C40008CA39DA3A016B106B9F06B897C898D8900
:101C50009E89ED8DFE8D09956B017C01B101330CE0
:101C6000880B990B0E94411CA70196010E94641DDC
:101C70006B8B7C8B8D8B9E8B0E94D018009189037F
:101C800010918A0320918B0330918C03601B710BA0
:101C9000820B930B633371058105910508F47EC0B7
:101CA0000E94D0186093890370938A0380938B03FA
:101CB00090938C03F1E0F9A3312C212C612C712C31
:101CC00000910B0110910C01B801012E000C880B42
:101CD000990B0E94411C6B017C01232D322DA30125
:101CE0000E94571D18160CF00AC2632D722DC301F5
:101CF0000E94091C6F8B788F898F9A8FAF88B88C60
:101D000022E0421651040CF48FC08B8D9C8D0197FC
:101D100009F046C0C801B2010E94681A072E000CE3
:101D2000880B990B0E94411C4B015C01A701960195
:101D30000E94971B232D322DA3010E94641D68A7CA
:101D400079A78AA79BA7A5019401C701B6010E94A4
:101D5000F11A20E030E040E05FE30E94641D9B0147
:101D6000AC0168A579A58AA59BA50E94F21A2B89CA
:101D70003C894D895E890E94F21A4B015C01AC01DD
:101D80009B01C701B6010E948D1B87FF51C0A701AF
:101D90009601C501B4010E94F11AEFCF19A28CCFB0
:101DA000EB8DFC8D3297E9F4C801B2010E94681AEC
:101DB0008B01072E000C880B990B0E94411C232DD0
:101DC000322DA3010E948D1B181674F1C501B801B4
:101DD0000E94681ABC01990F880B990B0E94411C44
:101DE000C6CF8B8D9C8D0397F9F4C801B2010E9478
:101DF000681A8B01072E000C880B990B0E94411C5E
:101E0000232D322DA3010E948D1B18166CF020E0AB
:101E100030E040E85FE3632D722DC3010E94F21AA7
:101E20000E94091CCB01D3CF632D722DC3019FCF1C
:101E300020E030E0A901C501B4010E948D1B87FF9D
:101E400009C0A7019601C501B4010E94F21A4B0115
:101E50005C01EECFEF8DF8A1E415F50509F03FC068
:101E6000C501B401ED8DFE8D09956B017C0180915A
:101E7000CF039091D003A091D103B091D203181653
:101E800019061A061B06ACF50E94D0180091CF0364
:101E90001091D0032091D1033091D203601B710BBC
:101EA000820B930B0E94411C20E030E04AE754E48F
:101EB0000E94971B9B01AC0160E070E080E89FE30B
:101EC0000E94F11A4B015C0120E030E0A9010E9460
:101ED0008D1B87FF3BC0812C912C540137C02AA158
:101EE0003BA14CA15DA1C501B401EEA1FFA10995E3
:101EF000BCCF0E94D0180091C5031091C603209159
:101F0000C7033091C803601B710B820B930B693EB2
:101F1000F3E07F07810591050CF0BFC00E94411CD2
:101F200020E030E04AE754E40E94971B4B015C013B
:101F300020E030E040E85FE30E94571D181634F4BB
:101F4000812C912C50E8A52E5FE3B52EA5019401BC
:101F5000C701B6010E94641D6B017C0120E030E0E6
:101F6000A901C701B6010E948D1B87FDBDC020E0FD
:101F700030E040E85FE3C701B6010E94571D181624
:101F80000CF4B6C020E030E04FE753E4C701B601DF
:101F90000E94641D6B017C010E94091CEF89F88D71
:101FA0003496EE0FFF1FEF51FC4F71836083EF8972
:101FB000F88DEE0FFF1FEF51FC4F7183608380910E
:101FC000A1048823C1F199A09920A9F122E0B701C9
:101FD000A601CE0101960E949D174AE06F89788D77
:101FE000CE010D960E94CC166CE273E0CE010796EE
:101FF0000E94AD16BE01635F7F4FCE0107960E941F
:102000000C1869E972E00E941F18BE016F5F7F4FD4
:102010000E940C18BC0186EA94E00E946215CE0171
:1020200007960E943B16CE010D960E943B16CE01EC
:1020300001960E943B1620E030E0A901632D722D2D
:10204000C3010E948D1B811108C0C701B6010E9407
:10205000101C8091F6010E94001A20E030E040E858
:102060005FE3632D722DC3010E948D1B811108C097
:10207000C701B6010E94101C8091F4010E94001A51
:1020800020E030E040E85FE3632D722DC3010E9441
:10209000F21A362E272E3C0113CE0091FC0110912E
:1020A000FD012091FE013091FF014801590148EEE8
:1020B000841A43E0940AA108B108681579058A05D5
:1020C0009B050CF44BCF48015901861A970AA80AC0
:1020D000B90AC501B4010E94411C20E030E04AE782
:1020E00054E40E94971BEECEC12CD12C76014ACF2E
:1020F000C12CD12C40E8E42E4FE3F42E43CF809145
:10210000C101882309F452C00E94D018672B682BA4
:10211000692B09F44BC061E373E086EA94E00E9406
:10212000561581EEE82E83E0F82E91EFC92E93E04C
:10213000D92EF701019111917F010115110531F49B
:1021400063E373E086EA94E00E945615C8010197A4
:10215000CF9730F467E373E086EA94E00E94561567
:10216000C801805491098034910530F46FE373E025
:1021700086EA94E00E945615C8018058910980347F
:10218000910530F467E473E086EA94E00E94561506
:10219000005C11090034110530F46FE473E086EA45
:1021A00094E00E945615CE14DF0419F6AB960FB6D4
:1021B000F894DEBF0FBECDBFDF91CF911F910F917D
:1021C000FF90EF90DF90CF90BF90AF909F908F9057
:1021D0007F906F905F904F903F902F9008954F9217
:1021E0005F926F927F928F929F92AF92BF92CF92A7
:1021F000DF92EF92FF920F931F93CF93DF93809024
:10220000A7039090A8034090A9035090AA030091BF
:10221000AB031091AC036090AD037090AE03C0901F
:10222000A503D090A603A090A303B090A403C091EF
:102230000B01D0910C0160E070E080E89FE3F601B3
:10224000099520E030E040E85FE30E948D1BE090BC
:102250000B01F0900C01882309F469C0C017D10765
:1022600009F465C0B401660F771F072E000C880BB8
:10227000990B0E94411C2091D6013091D7014091C9
:10228000D8015091D9010E94641D0E94091CEB01E4
:102290000E151F052CF4CE01B8010E94681AEB013F
:1022A00060919F037091A0038091A1039091A2037C
:1022B00073019201A4010E94E20D20E030E040E8A9
:1022C0005FE360919F037091A0038091A1039091BF
:1022D000A2030E94F21A6B017C01BE01DD0F880B84
:1022E000990B0E94411C9B01AC01C701B6010E94E1
:1022F000571D181624F1C0929F03D092A003E092BC
:10230000A103F092A20361E08DE0DF91CF911F91D4
:102310000F91FF90EF90DF90CF90BF90AF909F9084
:102320008F907F906F905F904F900C94C4198E9C0B
:10233000E0018F9CD00D9E9CD00D1124A9CF10924E
:102340009F031092A0031092A1031092A203DBCF6F
:1023500060910B0170910C0177FF02C06F5F7F4F9E
:1023600075956795072E000C880B990B0E94411CF0
:102370006093B1037093B2038093B3039093B4035B
:1023800008959F92AF92BF92CF92DF92EF92FF9209
:102390000F931F93CF93DF93CDB7DEB7E0970FB6C0
:1023A000F894DEBF0FBECDBF80918F0381110DC0A9
:1023B00063E873E087E993E00E94AD1681E08093C3
:1023C0008F0383E893E00E9473188E01055D1F4F11
:1023D00086E0982E86EA94E00E944113892B09F446
:1023E00076C086EA94E00E945B13F82E682F87E996
:1023F00093E00E94F9178AE0F812ECCFFE013196C3
:102400007F016F0163E873E0C7010E94AD16F6E03B
:10241000EF0EF11CE016F106A9F763E873E0C801BE
:102420000E94AD16F12CE12CB12CA12C80919B03C4
:1024300090919C03E816F90698F5B70187E993E0B7
:102440000E945618FC0180818032B1F49A9CC00130
:102450009B9C900D1124B8018C0D9D1D0E9462174C
:10246000FFEFAF1ABF0A63E873E0C8010E948E173E
:10247000FFEFEF1AFF0ADACFB70187E993E00E9476
:102480005618FC0180818A3009F3B70187E993E08F
:102490000E945618FC016081C8010E94F917E8CF1C
:1024A000C6010E94080963E873E087E993E00E948F
:1024B0008E17C8010E943B16780186E0E81AF108E1
:1024C000C7010E943B16CE14DF04B9F783CFE09614
:1024D0000FB6F894DEBF0FBECDBFDF91CF911F9135
:1024E0000F91FF90EF90DF90CF90BF90AF909F90B3
:1024F00008950F931F930E94D018009185031091A7
:1025000086032091870330918803601B710B820B37
:10251000930B653F71408105910598F060918403AC
:1025200081E06827609384038DE00E94001A0E9476
:10253000D0186093850370938603809387039093EC
:1025400088030E94C1110E94CC0C8091CE03882385
:10255000C9F10E94D0180091C5031091C6032091C3
:10256000C7033091C803601B710B820B930B009162
:10257000FC011091FD012091FE013091FF01061731
:10258000170728073907D0F40E94650C90939E0323
:1025900080939D030E94EE050E94D0186093C503AE
:1025A0007093C6038093C7039093C8031092CF0320
:1025B0001092D0031092D1031092D2031F910F9169
:1025C0000C94EF101F910F910895CB010C943C26B1
:1025D000CB010C944426CB01642F0E944A2681E053
:1025E00008958F929F92AF92BF92CF92DF92EF9217
:1025F000FF920F931F93CF93DF9300D000D0CDB7FE
:10260000DEB729833A834B835C834E0185E0880ED5
:10261000911C8E010F5F1F4FF12CE12C6B01C01A32
:10262000D10A5601A00EB11EC5010E943C26F80138
:1026300061918F01861731F0C5010E944A26FFEF94
:10264000EF1AFF0A0815190561F781E0EF2809F470
:1026500080E00F900F900F900F90DF91CF911F911E
:102660000F91FF90EF90DF90CF90BF90AF909F9031
:102670008F90089584E690E09093A5048093A4043D
:102680000895FC01918D228D892F90E0805C9F4FF1
:10269000821B91098F7399270895FC01918D828D7A
:1026A000981731F0828DE80FF11D858D90E0089527
:1026B0008FEF9FEF0895FC01918D828D981761F047
:1026C000A28DAE0FBF2FB11D5D968C91928D9F5F35
:1026D0009F73928F90E008958FEF9FEF0895FC0114
:1026E000538D448D252F30E0842F90E0821B930B77
:1026F000541710F0CF9608950197089585ED94E151
:10270000892B49F080E090E0892B29F00E94D514B4
:1027100081110C9400000895FC01A48DA80FB92F1D
:10272000B11DA35ABF4F2C91848D90E001968F73F9
:102730009927848FA689B7892C93A089B1898C9118
:10274000837080648C93938D848D981306C0028867
:10275000F389E02D80818F7D80830895CF93DF936F
:10276000EC01888D8823B9F0AA89BB89E889F989A9
:102770008C9185FD03C0808186FD0DC00FB607FCDE
:10278000F7CF8C9185FFF2CF808185FFEDCFCE0111
:102790000E948C13E9CFDF91CF910895EF92FF92C1
:1027A0000F931F93CF93DF93EC0181E0888F9B8D74
:1027B0008C8D98131AC0E889F989808185FF15C02E
:1027C0009FB7F894EE89FF896083E889F989808151
:1027D0008370806480839FBF81E090E0DF91CF9120
:1027E0001F910F91FF90EF900895F62E0B8D10E042
:1027F0000F5F1F4F0F731127E02E8C8D8E110CC0B1
:102800000FB607FCFACFE889F989808185FFF5CFFB
:10281000CE010E948C13F1CFEB8DEC0FFD2FF11D3B
:10282000E35AFF4FF0829FB7F8940B8FEA89FB8938
:1028300080818062CFCFCF92DF92EF92FF921F9381
:10284000CF93DF93EC016A017B01122FE889F989AC
:1028500082E08083C11481EED806E104F104A1F086
:1028600060E079E08DE390E0A70196010E947C1A78
:1028700021503109410951095695479537952795BA
:10288000211580E1380798F0E889F989108260E81D
:1028900074E88EE190E0A70196010E947C1A215015
:1028A0003109410951095695479537952795EC858A
:1028B000FD853083EE85FF852083188EEC89FD89A8
:1028C0001083EA89FB89808180618083EA89FB89A2
:1028D000808188608083EA89FB8980818068808329
:1028E000EA89FB8980818F7D8083DF91CF911F9161
:1028F000FF90EF90DF90CF9008951F920F920FB648
:102900000F9211242F938F939F93EF93FF93E09156
:10291000B604F091B7048081E091BC04F091BD044D
:1029200082FD1BC090818091BF048F5F8F732091C7
:10293000C004821741F0E091BF04F0E0EA55FB4F7C
:10294000958F8093BF04FF91EF919F918F912F916D
:102950000F900FBE0F901F9018958081F4CF1F929B
:102960000F920FB60F9211242F933F934F935F93C3
:102970006F937F938F939F93AF93BF93EF93FF9347
:1029800086EA94E00E948C13FF91EF91BF91AF9182
:102990009F918F917F916F915F914F913F912F9177
:1029A0000F900FBE0F901F90189586EA94E00E943A
:1029B000411321E0892B09F420E0822F0895E6EAF3
:1029C000F4E01382128288EE93E0A0E0B0E084830A
:1029D0009583A683B78383E793E09183808385EC17
:1029E00090E09587848784EC90E09787868780ECD9
:1029F00090E0918B808B81EC90E0938B828B82ECCA
:102A000090E0958B848B86EC90E0978B868B118E73
:102A1000128E138E148E0895AF92BF92CF92DF92D2
:102A2000EF92FF920F931F93CF93DF936C017B0183
:102A30008B01040F151FEB015E01AE18BF08C01714
:102A4000D10759F06991D601ED91FC910190F08187
:102A5000E02DC6010995892B79F7C501DF91CF914A
:102A60001F910F91FF90EF90DF90CF90BF90AF90AC
:102A70000895FB0101900020E9F73197AF01461B53
:102A8000570BDC01ED91FC910280F381E02D09945C
:102A9000DB0114964D915C9115976D917C91DC0151
:102AA000ED91FC910280F381E02D0994611571058F
:102AB00011F00C94391590E080E0089561E873E01E
:102AC0000C9439150F931F93CF93DF93EC010E9461
:102AD00048158C01CE010E945E15800F911FDF9179
:102AE000CF911F910F9108950F931F93CF93DF9371
:102AF0008C01D0E0C0E06115710519F00E94391514
:102B0000EC01C8010E945E158C0F9D1FDF91CF91D3
:102B10001F910F91089508958230E8F4E82FF0E0B6
:102B2000EE0FFF1FE050FE4F71836083813041F054
:102B3000809169008C7F482B40936900E89A089542
:102B400080916900837F440F551F440F551F482B08
:102B500040936900E99A08951F920F920FB60F9261
:102B600011242F933F934F935F936F937F938F9392
:102B70009F93AF93BF93EF93FF93E0910002F09187
:102B800001020995FF91EF91BF91AF919F918F91B4
:102B90007F916F915F914F913F912F910F900FBE59
:102BA0000F901F9018951F920F920FB60F9211243D
:102BB0002F933F934F935F936F937F938F939F9345
:102BC000AF93BF93EF93FF93E0910202F091030262
:102BD0000995FF91EF91BF91AF919F918F917F9157
:102BE0006F915F914F913F912F910F900FBE0F907A
:102BF0001F901895611571058105910511F00C94D0
:102C00004A210895CF92DF92EF92FF926B017C01EF
:102C1000C114D104E104F10441F00E94FB20A7019A
:102C200096010E949E1A6B017C01C701B601FF90BC
:102C3000EF90DF90CF900895CF92DF92EF92FF92C6
:102C40006B017C01C216D306E406F50664F4CA01E2
:102C5000B9016C197D098E099F090E940216C60EE2
:102C6000D71EE81EF91EC701B601FF90EF90DF9056
:102C7000CF9008950895FC0180819181009711F013
:102C80000C9426200895CF93DF93EC0188819981DD
:102C9000009711F00E942620198218821D821C8242
:102CA0001B821A82DF91CF9108950F931F93CF93C8
:102CB000DF93EC018B016F5F7F4F888199810E94C8
:102CC0005321009751F0998388831B830A8381E005
:102CD000DF91CF911F910F91089580E0F9CFCF93AD
:102CE000DF93EC0188819981892B49F08A819B814E
:102CF0008617970720F081E0DF91CF910895CE01EC
:102D00000E9455168823C1F38C819D81892B99F7E8
:102D1000E881F9811082EFCFEF92FF920F931F931A
:102D2000CF93DF93EC017B018A01BA010E946F16F9
:102D300081110BC0CE010E944316CE01DF91CF91CD
:102D40001F910F91FF90EF9008951D830C83B701A1
:102D5000888199810E946923F0CFFC011182108241
:102D600013821282158214826115710551F0FB01E4
:102D700001900020E9F73197AF01461B570B0C94E7
:102D80008C160895FB0101900020E9F73197AF01FF
:102D9000461B570B0C948C160F931F93CF93DF9306
:102DA000CDB7DEB762970FB6F894DEBF0FBECDBFCA
:102DB0008C01CB01F80111821082138212821582DC
:102DC000148250E0BE016F5F7F4F0E947023BE01EE
:102DD0006F5F7F4FC8010E94C21662960FB6F894CB
:102DE000DEBF0FBECDBFDF91CF911F910F91089530
:102DF0000F931F93CF93DF93CDB7DEB7A1970FB695
:102E0000F894DEBF0FBECDBF8C01CB01BA01F80133
:102E100011821082138212821582148230E0AE0178
:102E20004F5F5F4F0E949B23BE016F5F7F4FC801C2
:102E30000E94C216A1960FB6F894DEBF0FBECDBF9A
:102E4000DF91CF911F910F9108950F931F93CF930F
:102E5000DF938C01EB01FC0180819181009701F1EE
:102E60006881798161157105C9F02AE336E1232B68
:102E7000A9F0428153812C813D814217530770F0A4
:102E80000E9469238C819D81F801958384831D8232
:102E90001C82DF91CF911F910F9108950E942620EF
:102EA00088819981F801918380838A819B819383B2
:102EB00082838C819D8195838483198218821B82F1
:102EC0001A82E5CFCF93DF93EC01FB0186179707BA
:102ED00049F0608171816115710541F0448155812E
:102EE0000E948C16CE01DF91CF9108950E94431667
:102EF000F9CFFC0111821082138212821582148292
:102F00000C946217CF93DF93EC016817790711F0E7
:102F10000E942517CE01DF91CF910895CF93DF93C3
:102F2000EC016115710531F00E94C216CE01DF91EE
:102F3000CF9108950E944316F9CFEF92FF920F931D
:102F40001F93CF93DF93CDB7DEB7A1970FB6F89459
:102F5000DEBF0FBECDBF7C01CB01BA01F7011182EC
:102F60001082138212821582148242E0420F8E0177
:102F70000F5F1F4F0E946C1FBC01C7010E948E177C
:102F8000A1960FB6F894DEBF0FBECDBFDF91CF91F3
:102F90001F910F91FF90EF900895EF92FF920F9382
:102FA0001F93CF93DF936115710541F480E0DF91AA
:102FB000CF911F910F91FF90EF900895411551050A
:102FC000B1F07B01EC010C811D81040F151FB801CC
:102FD0000E946F16882351F3288139818C819D814D
:102FE000B701820F931F0E9469231D830C8381E028
:102FF000DECFCF93DF9300D0CDB7DEB769831A82DF
:1030000041E050E0BE016F5F7F4F0E94CD170F90EF
:103010000F90DF91CF910895CF93DF93EC01FB01E7
:1030200044815581608171810E94CD17811103C057
:10303000CE010E944316CE01DF91CF910895CF9328
:10304000DF93EC016115710539F4CE010E9443163E
:10305000CE01DF91CF910895FB0101900020E9F7A7
:103060003197AF01461B570B0E94CD17882369F398
:10307000EFCFFC0124813581232B31F421E0FB01CA
:10308000672B49F4822F0895808191816115710524
:1030900039F421E0FC0180818823A1F320E0F2CF04
:1030A0000E94602321E0892B69F3F8CFFC01248181
:1030B00035816217730720F480819181009729F48C
:1030C0001092430583E495E00895860F971F0895B5
:1030D000FC0180819181009711F00C94272360E01E
:1030E00070E0CB01089590E080E0089508950E947B
:1030F00045190E9476180E94940BCEE7D3E10E94F6
:1031000079122097E1F30E947E13F9CF1F920F925C
:103110000FB60F9211242F933F938F939F93AF93EA
:10312000BF938091450590914605A0914705B091C8
:1031300048053091440523E0230F2D3758F50196BB
:10314000A11DB11D2093440580934505909346052C
:10315000A0934705B09348058091490590914A0591
:10316000A0914B05B0914C050196A11DB11D809316
:10317000490590934A05A0934B05B0934C05BF9128
:10318000AF919F918F913F912F910F900FBE0F9014
:103190001F90189526E8230F0296A11DB11DD2CFCE
:1031A0002FB7F894609145057091460580914705C9
:1031B000909148052FBF08953FB7F8948091490535
:1031C00090914A05A0914B05B0914C0526B5A89B5E
:1031D00005C02F3F19F00196A11DB11D3FBFBA2FA9
:1031E000A92F982F8827BC01CD01620F711D811D69
:1031F000911D42E0660F771F881F991F4A95D1F7EE
:1032000008958F929F92AF92BF92CF92DF92EF92EA
:10321000FF926B017C010E94DC184B015C01C11420
:10322000D104E104F104E9F00E94571A0E94DC186D
:10323000681979098A099B09683E734081059105DF
:1032400070F321E0C21AD108E108F10888EE880E77
:1032500083E0981EA11CB11CC114D104E104F10447
:1032600029F7FF90EF90DF90CF90BF90AF909F90A5
:103270008F9008958230910538F0880F991F880F3C
:10328000991F05970197F1F70895789484B58260A6
:1032900084BD84B5816084BD85B5826085BD85B5FA
:1032A000816085BDEEE6F0E0808181608083E1E8A9
:1032B000F0E01082808182608083808181608083E1
:1032C000E0E8F0E0808181608083E1EBF0E08081E4
:1032D00084608083E0EBF0E0808181608083EAE7B6
:1032E000F0E080818460808380818260808380813F
:1032F000816080838081806880831092C1000895FE
:103300008E3008F08E502091040290E4299F9001A5
:1033100011248770822B80937C0080917A008064D6
:1033200080937A0080917A0086FDFCCF80917800AE
:10333000909179000895833081F028F4813099F0DC
:103340008230A9F008958730A9F08830C9F0843020
:10335000B1F4809180008F7D03C0809180008F77D1
:1033600080938000089584B58F7784BD089584B5D7
:103370008F7DFBCF8091B0008F778093B000089550
:103380008091B0008F7DF9CFCF93DF9390E0FC0167
:10339000EA59FD4F249186589D4FFC018491882362
:1033A000C9F090E0880F991FFC01EE55FD4FA591E3
:1033B000B491FC01E856FD4FC591D49161110DC047
:1033C0009FB7F8948C91209582238C938881282331
:1033D00028839FBFDF91CF910895623051F49FB74A
:1033E000F8943C91822F809583238C93E8812E2B37
:1033F000EFCF8FB7F894EC912E2B2C938FBFEACFA1
:103400001F93CF93DF93282F30E0F901EE5AFD4F41
:103410008491F901EA59FD4FD491F901E658FD4F25
:10342000C491CC23A9F0162F81110E949B19EC2F77
:10343000F0E0EE0FFF1FE856FD4FA591B4918FB756
:10344000F894EC91111108C0D095DE23DC938FBF66
:10345000DF91CF911F910895DE2BF8CFCF93DF93AB
:10346000282F30E0F901EE5AFD4F8491F901EA5915
:10347000FD4FD491F901E658FD4FC491CC23A1F042
:1034800081110E949B19EC2FF0E0EE0FFF1FE25715
:10349000FD4FA591B491EC91ED2381E090E009F40A
:1034A00080E0DF91CF91089580E090E0FACF089519
:1034B000DB018F939F930E94BD1ABF91AF91A29F92
:1034C000800D911DA39F900DB29F900D1124089522
:1034D00097FB072E16F4009407D077FD09D00E94C1
:1034E000C81A07FC05D03EF4909581959F4F08952A
:1034F000709561957F4F0895A1E21A2EAA1BBB1B00
:10350000FD010DC0AA1FBB1FEE1FFF1FA217B307AF
:10351000E407F50720F0A21BB30BE40BF50B661FC5
:10352000771F881F991F1A9469F760957095809589
:1035300090959B01AC01BD01CF010895052E97FB2D
:103540001EF400940E94B51A57FD07D00E947C1A01
:1035500007FC03D04EF40C94B51A50954095309565
:1035600021953F4F4F4F5F4F0895909580957095EF
:1035700061957F4F8F4F9F4F08950E94E21AA59F3C
:10358000900DB49F900DA49F800D911D112408955E
:10359000AA1BBB1B51E107C0AA1FBB1FA617B70779
:1035A00010F0A61BB70B881F991F5A95A9F7809595
:1035B0009095BC01CD010895EE0FFF1F0590F49189
:1035C000E02D0994A29FB001B39FC001A39F700D8D
:1035D000811D1124911DB29F700D811D1124911D1B
:1035E00008955058BB27AA270E94091B0C94091D57
:1035F0000E94D01C38F00E94D71C20F039F49F3F65
:1036000019F426F40C94A61C0EF4E095E7FB0C9438
:10361000A01CE92F0E942E1D58F3BA1762077307EA
:103620008407950720F079F4A6F50C94501D0EF44C
:10363000E0950B2EBA2FA02D0B01B90190010C01C2
:10364000CA01A0011124FF27591B99F0593F50F4DA
:10365000503E68F11A16F040A22F232F342F442732
:10366000585FF3CF469537952795A795F04053952A
:10367000C9F77EF41F16BA0B620B730B840BBAF0FA
:103680009150A1F0FF0FBB1F661F771F881FC2F765
:103690000EC0BA0F621F731F841F48F48795779579
:1036A0006795B795F7959E3F08F0B0CF9395880F33
:1036B00008F09927EE0F979587950895DF93DD27FA
:1036C000B92FBF7740E85FE31616170648075B0778
:1036D00018F4D92F0E945C1D9F938F937F936F9353
:1036E0000E94291EE8E6F0E00E94A91C0E94091D24
:1036F0002F913F914F915F910E94771DDD2351F0F3
:103700009058A2EA2AED3FE049EC5FE3D0785D27CC
:103710000E94091BDF910C94091D0E947C1C08F477
:1037200081E008950E94E01CE3950C941A1D0E940C
:10373000AB1B0C94091D0E94D71C58F00E94D01C92
:1037400040F029F45F3F29F00C94A01C51110C9417
:10375000511D0C94A61C0E942E1D68F39923B1F3F1
:10376000552391F3951B550BBB27AA2762177307A7
:10377000840738F09F5F5F4F220F331F441FAA1F3B
:10378000A9F335D00E2E3AF0E0E832D091505040F7
:10379000E695001CCAF72BD0FE2F29D0660F771FA5
:1037A000881FBB1F261737074807AB07B0E809F08B
:1037B000BB0B802DBF01FF2793585F4F3AF09E3F10
:1037C000510578F00C94A01C0C94511D5F3FE4F35C
:1037D000983ED4F3869577956795B795F7959F5F53
:1037E000C9F7880F911D9695879597F90895E1E09F
:1037F000660F771F881FBB1F621773078407BA07FE
:1038000020F0621B730B840BBA0BEE1F88F7E09558
:1038100008950E94101C6894B1110C94511D0895D4
:103820000E94361D88F09F5798F0B92F9927B751FD
:10383000B0F0E1F0660F771F881F991F1AF0BA9554
:10384000C9F714C0B13091F00E94501DB1E0089545
:103850000C94501D672F782F8827B85F39F0B93F37
:10386000CCF3869577956795B395D9F73EF4909507
:103870008095709561957F4F8F4F9F4F0895E89485
:1038800009C097FB3EF490958095709561957F4FA8
:103890008F4F9F4F9923A9F0F92F96E9BB27939556
:1038A000F695879577956795B795F111F8CFFAF466
:1038B000BB0F11F460FF1BC06F5F7F4F8F4F9F4F97
:1038C00016C0882311F096E911C0772321F09EE8F5
:1038D000872F762F05C0662371F096E8862F70E05B
:1038E00060E02AF09A95660F771F881FDAF7880F35
:1038F0009695879597F90895990F0008550FAA0B8B
:10390000E0E8FEEF16161706E807F907C0F01216F2
:103910001306E407F50798F0621B730B840B950BF5
:1039200039F40A2661F0232B242B252B21F408954A
:103930000A2609F4A140A6958FEF811D811D0895E7
:1039400097F99F6780E870E060E008959FEF80EC52
:103950000895DF93CF931F930F93FF92EF92DF921F
:103960007B018C01689406C0DA2EEF010E94771D5E
:10397000FE01E894A5912591359145915591A6F3C5
:10398000EF010E94091BFE019701A801DA9469F773
:10399000DF90EF90FF900F911F91CF91DF910895ED
:1039A00000240A941616170618060906089500241E
:1039B0000A94121613061406050608950C94A61C04
:1039C0000E94361DD8F3E894E0E0BB279F57F0F043
:1039D0002AED3FE049EC06C0EE0FBB0F661F771FD4
:1039E000881F28F0B23A62077307840728F0B25A9A
:1039F000620B730B840BE3959A9572F7803830F461
:103A00009A95BB0F661F771F881FD2F790480C94BA
:103A10008E1E092E0394000C11F4882352F0BB0F64
:103A200040F4BF2B11F460FF04C06F5F7F4F8F4FD6
:103A30009F4F0895EF93E0FF07C0A2EA2AED3FE011
:103A400049EC5FEB0E94091B0E94091D0F90039433
:103A500001FC9058E5E9F0E00C949A1E57FD90584F
:103A6000440F551F59F05F3F71F04795880F97FB42
:103A7000991F61F09F3F79F08795089512161306FC
:103A80001406551FF2CF4695F1DF08C0161617062B
:103A90001806991FF1CF8695710561050894089560
:103AA000E894BB2766277727CB0197F908950E94F2
:103AB0007C1C08F48FEF08959B01AC0160E070E07E
:103AC00080E89FE30C94971B0E94771D0C94091DBE
:103AD0000E94D01C38F00E94D71C20F0952311F0D2
:103AE0000C94A01C0C94A61C11240C94511D0E9433
:103AF0002E1D70F3959FC1F3950F50E0551F629FE7
:103B0000F001729FBB27F00DB11D639FAA27F00D36
:103B1000B11DAA1F649F6627B00DA11D661F829F5D
:103B20002227B00DA11D621F739FB00DA11D621F42
:103B3000839FA00D611D221F749F3327A00D611D5F
:103B4000231F849F600D211D822F762F6A2F112441
:103B50009F5750409AF0F1F088234AF0EE0FFF1F74
:103B6000BB1F661F771F881F91505040A9F79E3FCB
:103B7000510580F00C94A01C0C94511D5F3FE4F3A0
:103B8000983ED4F3869577956795B795F795E79521
:103B90009F5FC1F7FE2B880F911D9695879597F92A
:103BA0000895FA01EE0FFF1F309621053105A1F1AE
:103BB0006115710561F48038BFE39B0749F1689492
:103BC0009038810561F08038BFEF9B0741F0992361
:103BD0004AF5FF3FE1053105210519F1E894089404
:103BE000E795D901AA2329F4AB2FBE2FF85FD0F3B4
:103BF00010C0FF5F70F4A695E0F7F73950F019F0A8
:103C0000FF3A38F49F779F930DD00F9007FC9058A0
:103C1000089546F00C94A61C60E070E080E89FE3F5
:103C200008954FE79F775F934F933F932F930E94A1
:103C3000F01E2F913F914F915F910E94641D0C9453
:103C40005A1E9F930E94E01C0F9007FCEE5F0C949D
:103C50001A1D9B01AC010C94641DDF93D92F0E94A7
:103C6000E01CE695D7952AED3FE049E45FE3B33ADF
:103C70006207730784079507D7953AF0A2EA49ECE3
:103C800090680E94091B0E94091DE3EBF0E00E946E
:103C90009A1EDD0F13F00E945C1DDD0F0BF490588F
:103CA000DF91089529F416F00C94A01C0C94501D7B
:103CB0000C94A61C0E94361DA8F39638A0F707F8AE
:103CC0000F92E8942BE33AEA48EB5FE70E947A1DF3
:103CD0000F920F920F924DB75EB70F920E94381F4E
:103CE000E6EDF0E00E94A91C4F915F91EF91FF91EA
:103CF000E595EE1FFF1F49F0FE57E0684427EE0FE1
:103D0000441FFA95E1F74195550B0E94B21E0F90A2
:103D100007FE0C945C1D08959F3F31F0915020F4F4
:103D2000879577956795B795880F911D9695879597
:103D300097F908959F938F937F936F93FF93EF93DA
:103D40009B01AC010E94641DEF91FF910E94A91C90
:103D50002F913F914F915F910C94641D0C94A01C86
:103D60000C948C1E0E94361DD8F39923C9F3940F2E
:103D7000511DA3F39150504094F059F0882332F034
:103D8000660F771F881F91505040C1F79E3F510525
:103D90002CF7880F911D9695879597F908955F3FA9
:103DA000ACF0983E9CF0BB27869577956795B795C4
:103DB00008F4B1609395C1F7BB0F58F711F460FF99
:103DC000E8CF6F5F7F4F8F4F9F4FE3CF0C94511D14
:103DD00016F00C948C1E0C94A61C68940C94A01CD9
:103DE0000E94361DA8F39923C1F3AEF3DF93CF935E
:103DF0001F930F93FF92C92FDD2788232AF0219765
:103E0000660F771F881FDAF720E030E040E85FEBAD
:103E10009FE3883920F0803E38F021968F770E940A
:103E2000F21AEEEFF0E004C00E94F21AEBE2F1E0C9
:103E30000E94A91C8B01BE01EC01FB2E6F5771097A
:103E40007595771F880B990B0E94411C28E132E77A
:103E500041E35FE30E94771DAF2D9801AE01FF9013
:103E60000F911F91CF91DF910E94091B0C94091DA6
:103E7000FA01DC01AA0FBB1F9B01AC01BF5728F45C
:103E8000222733274427507820C0B75190F4AB2F16
:103E90000024469537952795011CA395D2F3002061
:103EA00071F0220F331F441FB395DAF30ED00C9438
:103EB000F11A61307105A0E88A07B94630F49B0118
:103EC000AC016627772788279078309621F02083E9
:103ED0003183428353830895EF920F931F93CF93BF
:103EE000DF93E80134E047FD34E1042E000C550B6C
:103EF00057FF03C0519541955109E32E022F242FFE
:103F0000AE010E94E223CE01DF91CF911F910F916C
:103F1000EF9008950F931F93CF93DF938230910515
:103F200010F482E090E0E0914F05F091500530E010
:103F300020E0B0E0A0E0309799F42115310509F4B4
:103F40004AC0281B390B24303105D8F58A819B8162
:103F50006115710589F1FB0193838283FE0111C014
:103F6000408151810281138148175907E0F04817B9
:103F7000590799F4109761F012960C9312971396C3
:103F80001C933296CF01DF91CF911F910F9108952D
:103F900000934F0510935005F4CF2115310551F0D2
:103FA0004217530738F0A901DB019A01BD01DF0177
:103FB000F801C1CFEF01F9CF9093500580934F05E1
:103FC000CDCFFE01E20FF31F81939193225031096F
:103FD00039832883D7CF20914D0530914E05232B6F
:103FE00041F4209102013091030130934E0520935A
:103FF0004D0520910001309101012115310541F459
:104000002DB73EB74091040150910501241B350B9B
:10401000E0914D05F0914E05E217F307A0F42E1B39
:104020003F0B2817390778F0AC014E5F5F4F24171C
:10403000350748F04E0F5F1F50934E0540934D05D6
:10404000819391939FCFF0E0E0E09CCFCF93DF93FB
:104050000097E9F0FC01329713821282A0914F057C
:10406000B0915005ED0130E020E01097A1F42081DF
:104070003181820F931F20914D0530914E052817F5
:10408000390709F061C0F0934E05E0934D05DF91CB
:10409000CF910895EA01CE17DF07E8F54A815B81E9
:1040A0009E0141155105B1F7E901FB83EA8349916E
:1040B0005991C40FD51FEC17FD0761F480819181E0
:1040C0000296840F951FE9019983888382819381E9
:1040D0009B838A83F0E0E0E012968D919C91139788
:1040E0000097B9F52D913C911197CD010296820F61
:1040F000931F20914D0530914E052817390739F649
:10410000309751F51092500510924F05B0934E051F
:10411000A0934D05BCCFD383C28340815181840FCE
:10412000951FC817D90761F44E5F5F4F8881998149
:10413000480F591F518340838A819B8193838283D7
:104140002115310509F0B0CFF0935005E0934F05EC
:104150009ECFFD01DC01C0CF13821282D7CF8F9298
:104160009F92AF92BF92CF92DF92EF92FF92CF9346
:10417000DF93EC01688179818A819B8161157105EA
:104180008105910521F464E279ED8BE597E02DE15D
:1041900033EF41E050E00E949E1A49015A019B0111
:1041A000AC01A7EAB1E40E94BD1A6B017C01ACEE40
:1041B000B4EFA50194010E945B26C60ED71EE81E2F
:1041C000F91EF7FE06C081E0C81AD108E10880E8B0
:1041D000F80AC882D982EA82FB82C701B6019F77BA
:1041E000DF91CF91FF90EF90DF90CF90BF90AF9095
:1041F0009F908F9008958F929F92AF92BF92CF928F
:10420000DF92EF92FF926091060170910701809119
:10421000080190910901611571058105910521F44D
:1042200064E279ED8BE597E02DE133EF41E050E07A
:104230000E949E1A49015A019B01AC01A7EAB1E410
:104240000E94BD1A6B017C01ACEEB4EFA501940194
:104250000E945B26C60ED71EE81EF91EF7FE06C09A
:1042600081E0C81AD108E10880E8F80AC092060186
:10427000D0920701E0920801F0920901C701B6014E
:104280009F77FF90EF90DF90CF90BF90AF909F907F
:104290008F90089560930601709307018093080141
:1042A000909309010895B0E0A0E0E9E5F1E20C94F3
:1042B00062268C01009751F4CB010E948A1F8C0169
:1042C000C801CDB7DEB7E0E10C947E26FC01E60F15
:1042D000F71F9C0122503109E217F30708F49DC033
:1042E000D901CD91DC911197C617D70798F0C53049
:1042F000D10530F3CE0104978617970708F3C61B44
:10430000D70B2297C193D1936D937C93CF010E94D9
:104310002620D6CF5B01AC1ABD0A4C018C0E9D1E27
:10432000A0914F05B0915005512C412CF12CE12C5E
:10433000109731F580914D0590914E05881599059E
:1043400009F05CC04616570608F058C0809100017D
:1043500090910101009741F48DB79EB740910401FF
:1043600050910501841B950BE817F90708F055C01B
:10437000F0934E05E0934D05F90171836083A0CF62
:104380008D919C91119712966C90129713967C9038
:104390001397A815B90559F56C0142E0C40ED11C5C
:1043A000CA14DB0420F1AC014A195B09DA01129648
:1043B000159780F06282738251834083D9016D9397
:1043C0007C93E114F10471F0D7011396FC93EE9302
:1043D000129776CF22968C0F9D1FF90191838083CF
:1043E000F301EFCFF0935005E0934F0569CF4816E6
:1043F000590608F42C017D01D3019ACFCB010E940C
:104400008A1F7C01009749F0AE01B8010E94572332
:10441000C8010E942620870153CF10E000E050CF52
:10442000B0E0A0E0E6E1F2E20C9461265C016B01F1
:104430007A016115710519F0FB0191838083E11404
:10444000F10451F0C7010297839730F040E030E06B
:1044500020E090E072C05E01E5012196F501108137
:10446000812F90E00E944E23892BA9F71D3201F580
:104470002196F501118101E0E114F10409F4DAC09B
:10448000F0E1EF16F10409F082C0103359F488818D
:104490008F7D883509F076C0198122960260F0E19F
:1044A000EF2EF12C812C912CA12C88E0B82E8CC001
:1044B0001B3221F4E5012296F501118100E0DCCFE9
:1044C000EAE0EE16F10409F4BBC0F0E1EF16F104E6
:1044D00009F06DC0E7CF78E0E72EF12C812C912C0C
:1044E000A12C60E1B62E70C03FE9310F3A3128F4BB
:1044F00039EA332E80C021E09AC0302F3170C114C8
:10450000D10431F0222309F12197F601D183C08330
:1045100027FF21C060E070E080E090E8311104C026
:104520006FEF7FEF8FEF9FE722E230E0309352058D
:1045300020935105462F372F282F642F732F822F5A
:10454000CDB7DEB7E1E10C947D2601FF04C02297D0
:10455000F601D183C083332341F090958095709507
:1045600061957F4F8F4F9F4FE5CF97FFE3CF82E25B
:1045700090E090935205809351056FEF7FEF8FEF9E
:104580009FE7D8CF10E3E114F10409F4A4CF28E0A9
:10459000E216F10409F4A2CF0CF092CF812C912CF9
:1045A000A12CE0E4BE2E82E0E816F10469F060E0A0
:1045B00070E080E090E897010F2C000C440B550B45
:1045C0000E947C1A49015A0120E060E070E0CB01B2
:1045D00027010F2C000C66087708FE0150ED352EE0
:1045E000310E39E0331540F43FEB310F3A3108F02A
:1045F0007BCF49EC342E310E3E141F040CF07DCFDE
:1046000027FD15C086169706A806B90678F0A301FF
:1046100092010E94581A630D711D811D911D613018
:104620007105810520E8920708F465CF2FEF2196E8
:104630001081D3CF103309F42ACF2AE0E22EF12CD7
:104640009CEC892E982CA82C9CE0B92EBDCF1F93F2
:10465000FC0199278827BC01E89411911032E9F3F5
:10466000193010F01E30C8F31B3251F01D3249F4DE
:10467000689406C00E948623610F711D811D911DE3
:10468000119110531A30B0F33EF4909580957095C7
:1046900061957F4F8F4F9F4F1F91089591110C94FB
:1046A0001926803219F089508550C8F70895FB010A
:1046B000DC0102C001900D9241505040D8F708959E
:1046C000FB01DC018D91019080190110D9F3990B48
:1046D0000895FB01DC0101900D920020E1F708959F
:1046E0004532510520F4423010F00C947B23FB013D
:1046F0001082CB010895BB274A3031F4992322F46C
:10470000BDE2909581959F4F0C94C923592F482F56
:10471000372F262F660F771F881F991F660F771F69
:10472000881F991F620F731F841F951F660F771FC5
:10473000881F991F08952532310520F4223010F08A
:104740000C94A623FA011082CA010895BB27FA012E
:10475000A62F6217710581059105330B30FB66F0BA
:10476000AA27660F771F881F991FAA1FA21710F08C
:10477000A21B63953850A9F7A05DAA3308F0A95D84
:10478000A19336F7B111B1931082CA010C941C2683
:10479000BB27FB015527AA27880F991FAA1FA4171B
:1047A00010F0A41B83955051B9F7A05DAA3308F00F
:1047B000A95DA193009779F7B111B1931192CB0143
:1047C0000C941C26A9E0B0E0E8EEF3E20C94662617
:1047D0006A01F22EB02E102FFBE3AF2EA01608F4C4
:1047E0001BE31F5F012F27E0AE014F5F5F4F0E9469
:1047F0004125BC018981982F9970913009F43FC0FF
:104800009BE2E1FC04C09E2D9170E0FC3AC05E2D5D
:104810005071E82FE87083FF46C084E0911101C019
:1048200083E0EF2DE81B8F1508F0E0E0D6018E2F16
:1048300020E2552351F1992329F0D6019C93C6011A
:1048400001966C0196012D5F3F4FE2FE24C08EE47D
:10485000D6018C9391E411969C93119712968C93A8
:10486000D9018E2F90E281111BC0E20FF32FF11DB1
:1048700010828EEF9FEF2996ECE00C9482269DE249
:10488000C6CF90E2C4CF2D9381508111FCCFCE0EC4
:10489000D11CE0E0D0CF8EE6D6018C9391E6DBCF41
:1048A0009D938150E0CF482F447082FF3DC084E04B
:1048B000911101C083E08F1510F4EF2DE81BD60194
:1048C0008E2F20E2552309F1992329F0D6019C93DC
:1048D000C60101966C0196012D5F3F4FE2FE1BC0A1
:1048E00089E4D6018C938EE411968C93119786E41B
:1048F00012968C93D9018E2F90E2882309F4B5CFBC
:104900009D938150FACF2D9381508111FCCFCE0E13
:10491000D11CE0E0D9CF89E6D6018C938EE61196C2
:104920008C93119786E6E4CF9B0177FF02C030E0BD
:1049300020E0A1E0B0E0911102C0B0E0A0E0F901F8
:104940003196AE0FBF1F8B2C912CBB2009F461C098
:104950005401EFEFAE1ABE0AAA0DBB1DFA161B06D4
:1049600019F014F04F2D4A1B511188C0E3FC59C0B7
:104970007601A42FB0E2A1114FC0C40ED11C99231F
:1049800009F45BC040E0D6011196F60190836D01F9
:10499000552309F448C0012F060F9A81582F5071F2
:1049A00084FF03C0913309F4015010160CF047C086
:1049B000093008F008E0EEE2FE2E5B01A01AB10813
:1049C00085019194819491082F3F320729F4D601F3
:1049D000FC92F60131966F016217730794F102178A
:1049E00013077CF5DB01A21BB30BAA24A394B12C03
:1049F000AC0EBD1EAA0DBB1D11968C912150310924
:104A0000D601119628153905F4F0F60180836D0161
:104A1000DBCFB12CA12CA0CFF701B1937F01A15026
:104A2000AACF9111B0CFD601942F50E302C05D936D
:104A300091509111FCCFC40ED11C40E0ACCF01E0ED
:104A4000BACF80E3DBCF6217730731F4963388F473
:104A5000953311F4552369F0F6018083FD01842F0D
:104A600090E2811108C0A40FB11D1C9290E080E07B
:104A700002CF81E3F1CF91938150F3CF911183CF96
:104A80008ACF283008F027E03327DA01990F311D4B
:104A900087FD916000966105710539F432602E5FE3
:104AA0003D9330E32A95E1F708959F3F30F0803839
:104AB0007105610509F03C5F3C5F3D93913008F062
:104AC0008068911DDF93CF931F930F93FF92EF9216
:104AD000192F987F9695E92F96959695E90FFF27C0
:104AE000EE54FE4F99273327EE24FF24A701E70158
:104AF00005900894079428F4360FE71EF81E491F06
:104B0000511D660F771F881F991F0694A1F7059006
:104B1000079428F4E70EF81E491F561FC11D770F92
:104B2000881F991F661F0694A1F70590079428F423
:104B3000F80E491F561FC71FD11D880F991F661FEA
:104B4000771F0694A1F70590079420F4490F561F8C
:104B5000C71FD81F990F661F771F881F0694A9F7D4
:104B600084911095177041F0D695C7955795479544
:104B7000F794E7941A95C1F7E8E5F1E06894159089
:104B8000159135916591959105907FE27395E118A6
:104B9000F10A430B560BC90BD009C0F7E10CF11E0B
:104BA000431F561FC91FD01D7EF4703311F48A9520
:104BB000E6CFE894015030F0080F0AF400270217FE
:104BC00008F4202F2395022F7A3328F079E37D9380
:104BD0002A95E9F710C07D932A9589F60694979552
:104BE0006795379517951794E118F10A430B560B03
:104BF000C90BD00998F023957E9173957A3308F00C
:104C000070E37C932013B8F77E9170617D9330F050
:104C1000839571E37D9370E32A95E1F71124EF907A
:104C2000FF900F911F91CF91DF91992787FD90956C
:104C30000895992788270895DC01FC01672F719159
:104C40007723E1F7329704C07C916D937083629172
:104C5000AE17BF07C8F30895DC01CB01FC01F99939
:104C6000FECF06C0F2BDE1BDF89A319600B40D92B8
:104C700041505040B8F70895F999FECF92BD81BDDB
:104C8000F89A992780B50895A6E1B0E044E050E095
:104C90000C942E26262FF999FECF1FBA92BD81BD06
:104CA00020BD0FB6F894FA9AF99A0FBE01960895AE
:104CB000B7FF0C94BD1A0E94BD1A821B930B089576
:104CC0002F923F924F925F926F927F928F929F921C
:104CD000AF92BF92CF92DF92EF92FF920F931F930A
:104CE000CF93DF93CDB7DEB7CA1BDB0B0FB6F894BB
:104CF000DEBF0FBECDBF09942A88398848885F84FB
:104D00006E847D848C849B84AA84B984C884DF806B
:104D1000EE80FD800C811B81AA81B981CE0FD11D4F
:104D20000FB6F894DEBF0FBECDBFED010895F89425
:024D3000FFCFB3
:104D320000005305800001000000010400B6F32DBD
:104D4200400100010000004842320001000400025C
:104D52000001000200F40132000100010002000122
:104D6200006400050001000100020002003200029E
:104D72000001000100030004002C010A00010001EF
:104D82000004000300F40108000100010004000215
:104D9200002C011E000100010005000500190001A0
:104DA20000020002000300030032000100020003BF
:104DB2000003000200F401320002000200020003BC
:104DC2000064000200020001000200030090010CD6
:104DD200000100010003000600F4012800010001A7
:104DE2000002000700640001000100010003000549
:104DF20000010000000000000100000000000000AF
:104E020000000F000E00D80F4940040003001300F9
:104E12000C000200050006000700080009000A0055
:104E22000B000C000F00100012001100983A000055
:104E32008B158B15012D2D2D2D2D2D2D2D2D2D2D40
:104E42002D2D2D2D2D2D2D2D2D2D2D2D2D2D2D00BD
:104E5200436F6E6669672000202D2D2D3E20005580
:104E6200706461746564207061747465726E3A2056
:104E720000312E32004368617365204563686F20FC
:104E820056657273696F6E200064656661756C7435
:104E9200730044656661756C747320736574006396
:104EA2006F6E6669670076657273696F6E00737400
:104EB2006172740073746F70006469700057726974
:104EC20074696E67204449503A20007265766973AE
:104ED200696F6E005265766973696F6E3A2000726F
:104EE20065766973696F6E736574004F4E004F4645
:104EF20046004449502053657474696E67733A20C2
:104F02000052616E646F6D205061747465726E73CD
:104F12003A200052616D70202620426F776C204447
:104F2200697374696E63743A20003D3D3D3D3D3DB9
:104F32003D3D3D3D3D3D3D3D3D3D3D3D3D3D3D3D9F
:104F42003D3D3D3D3D3D3D3D3D3D3D3D3D3D3D3D8F
:104F52003D3D3D3D3D3D3D3D3D3D3D003D3D3E20D8
:104F6200000D0020202D00E29691E296912D00E2A4
:104F72009692E296922D00E29693E296932D00E2AB
:104F82009688E296882D0010022F024A026B028C4C
:104F920002AF05AD02010350038301DD015203009C
:104FA200000000CE130C156F13AE1341135B134DAB
:044FB200130D0A00D1
:00000001FF
