:100000000C9459010C94EE160C9415170C94810164
:100010000C9481010C9481010C9481010C943F0A91
:100020000C9481010C9481010C9481010C94E803DF
:100030000C9481010C9481010C9481010C94810138
:100040000C94C8190C9481010C9473140C94A5148D
:100050000C9481010C9481010C9481010C94810118
:100060000C9481010C948101084AD73B3BCE016E70
:1000700084BCBFFDC12F3D6C74319ABD56833DDAFF
:100080003D00C77F11BED9E4BB4C3E916BAAAABE0E
:10009000000000803F05A84CCDB2D44EB93836A937
:1000A000020C50B9918688083CA6AAAA2ABE000074
:1000B00000803F0664EC1B3C04BC163E3BE5B93CAB
:1000C000C93C37C29E5A3D660498083EEA69AAAA0E
:1000D0003E000000803F07634236B79BD8A71A391D
:1000E000685618AEBAAB558C1D3CB7CC5763BD6D86
:1000F000EDFD753EF6177231BF000000803F08002D
:100100000000BE922449123EABAAAA2ABECDCCCC96
:100110004C3E00000080BEABAAAAAA3E0000000030
:10012000BF000000803F0000000000084178D3BB02
:100130004387D1133D190E3CC3BD4282AD2B3E68AF
:10014000EC8276BED98FE1A93E4C80EFFFBE01C4A0
:10015000FF7F3F000000000000407A10F35A00A02B
:10016000724E18090010A5D4E80000E87648170080
:1001700000E40B54020000CA9A3B000000E1F505C0
:10018000000080969800000040420F000000A0860A
:1001900001000000102700000000E803000000003C
:1001A0006400000000000A000000000001000000E0
:1001B00000002C76D888DC674F0823DFC1DFAE59FA
:1001C000E1B1B796E5E3E453C63AE651997696E88D
:1001D000E6C28426EB898C9B62ED407C6FFCEFBC11
:1001E0009C9F40F2BAA56FA5F490055A2AF75C933C
:1001F0006B6CF9676DC11BFCE0E40D47FEF520E672
:10020000B500D0ED902E0300943577050080841E54
:10021000080000204E0A000000C80C333333330FAF
:10022000986E12831141EF8D2114893BE65516CF4C
:10023000FEE6DB18D1844B381BF77C1D901DA4BB58
:10024000E424203284725E228100C9F124ECA1E50D
:100250003D27000000080002010000030407000021
:10026000000000000000010204081020408001028C
:1002700004081020010204081020040404040404EB
:100280000404020202020202030303030303000048
:10029000000023002600290000000000250028009F
:1002A0002B0000000000240027002A00D311301387
:1002B000D51411241FBECFEFD8E0DEBFCDBF13E0B1
:1002C000A0E0B1E0E0ECFFE402C005900D92A23A9C
:1002D000B107D9F725E0A2EAB3E001C01D92A43727
:1002E000B207E1F711E0C9E5D1E004C02197FE01B2
:1002F0000E941E1CC635D107C9F70E94B9190C947B
:10030000DE270C94000008950F931F930E94121A89
:100310000091FB031091FC032091FD033091FE033B
:10032000601771078207930741F16091F70370919D
:10033000F8038091F9039091FA0396958795779544
:1003400067950E94811D6093130470931404809339
:100350001504909316040E94121A6093FB03709385
:10036000FC038093FD039093FE031092F703109219
:10037000F8031092F9031092FA030E941E1A609378
:10038000FF03709300048093010490930204809112
:10039000F7039091F803A091F903B091FA03019645
:1003A000A11DB11D8093F7039093F803A093F90367
:1003B000B093FA031F910F9108958F929F92AF927D
:1003C000BF92CF92DF92EF92FF926B017C0120E00F
:1003D00030E040EB50E40E94A61E0E94D41C4B016A
:1003E0005C0120E030E040E050ECC701B6010E9423
:1003F000A61E0E94D41C9B01AC01C501B4010E9441
:10040000341C20E030E040E05FE30E94A61EFF9035
:10041000EF90DF90CF90BF90AF909F908F90089516
:100420002091D3033091D4034091D5035091D6034A
:100430000E94331C9B01AC010E94A61E9B01AC01D3
:100440000E94341C9B01AC01505860910D017091C9
:100450000E0180910F01909110010C94131F2091B7
:10046000D3033091D4034091D5035091D6030E9419
:10047000331C9B01AC010E94A61E9B01AC0150588D
:1004800060910D0170910E0180910F01909110010A
:100490000C94131F2091D3033091D4034091D503C2
:1004A0005091D6030E94331C9B01AC010E94A61EF2
:1004B00020E030E040EC5FE30E94D91C9B01AC01DE
:1004C000505860910D0170910E0180910F01909133
:1004D00010010C94131F2091D3033091D403409149
:1004E000D5035091D6030E94331C9B01AC010E949E
:1004F000A61E2DEC3CEC4CE050E40E94D91C9B0164
:10050000AC01505860910D0170910E0180910F0166
:10051000909110010C94131F2091D3033091D403B8
:100520004091D5035091D6030E94331C9B01AC012E
:100530000E94A61E20E030E040E450E40E94D91C56
:100540009B01AC01505860910D0170910E0180919A
:100550000F01909110010C94131F8F929F92AF92F4
:10056000BF92CF92DF92EF92FF924B015C01690143
:100570007A0120E030E0A901C701B6010E94CF1C3A
:1005800087FF04C0F7FAF094F7F8F0942091D303B2
:100590003091D4034091D5035091D603C501B401E5
:1005A0000E94331C9B01AC010E94A61E4B015C0102
:1005B00020E030E040EA50E4C701B6010E94A61EE8
:1005C0002DEC3CEC4CEC5DE30E94341C9B01AC0137
:1005D000C501B4010E94D91C9B01AC015058609127
:1005E0000D0170910E0180910F0190911001FF900B
:1005F000EF90DF90CF90BF90AF909F908F900C9432
:10060000131F8F929F92AF92BF92CF92DF92EF9281
:10061000FF924B015C012DEC3CEC4CE45FE30E944B
:10062000331C9B01AC010E94A61E2DEC3CEC4CEC53
:100630005DE30E94D91C9B01AC01505866EB73EF3F
:100640008DE290E40E94131F6B017C0126E636E6E2
:1006500046EE5FE3C501B4010E94331C9B01AC016F
:100660000E94A61E2DEC3CEC4CEC5DE30E94D91CD4
:100670009B01AC01505866EB73EF8DE290E40E9451
:10068000131F9B01AC01C701B6010E94341CFF90EF
:10069000EF90DF90CF90BF90AF909F908F90089594
:1006A0000C94631F8F929F92AF92BF92CF92DF9272
:1006B000EF92FF926B017C010E94631F4B015C0172
:1006C00020E030E040EC50E4C701B6010E94A61ED5
:1006D0000E94D41C2DEC3CEC4CE45EE30E94A61E70
:1006E000A50194010E94341C20E030E040E05FE36B
:1006F0000E94A61EFF90EF90DF90CF90BF90AF902A
:100700009F908F90089589EB93E00C947D1760FF84
:100710004FC05A9A9BB128E092279BB98BB1822790
:100720008BB961FF47C05A9A9BB128E092279BB9C9
:100730008BB182278BB962FF3FC05A9A9BB128E0E8
:1007400092279BB98BB182278BB963FF37C05A9A26
:100750009BB128E092279BB98BB182278BB964FFAC
:100760002FC05A9A9BB128E092279BB98BB1822760
:100770008BB965FF27C05A9A9BB128E092279BB995
:100780008BB182278BB966FF1FC05A9A9BB128E0B4
:1007900092279BB98BB182278BB967FF17C05A9AF2
:1007A0009BB128E092279BB98BB182278BB9089522
:1007B0005A98B0CF5A98B8CF5A98C0CF5A98C8CF45
:1007C0005A98D0CF5A98D8CF5A98E0CF5A98E8CFB5
:1007D0001F920F920FB60F9211240F931F932F9316
:1007E0003F934F935F936F937F938F939F93AF93B9
:1007F000BF93CF93DF93EF93FF93F894C091C3041B
:10080000D091C4048D81882371F1EC818A819B8110
:10081000E80FF92FF11D6081CE010E9487039BB183
:1008200020E192279BB98BB182278BB98C818F5F96
:100830008C839981891301C01C827894FF91EF9178
:10084000DF91CF91BF91AF919F918F917F916F91E8
:100850005F914F913F912F911F910F910F900FBE7C
:100860000F901F90189508810150110B0F3F100732
:10087000B1F2EC818981809F9001819F300D11241C
:100880008A819B81820F931FE80FF92FF11D6081F0
:10089000CE010E94870301501109E8CF2F923F92A9
:1008A0004F925F926F927F928F929F92AF92BF9280
:1008B000CF92DF92EF92FF921F93CF93DF93CDB74A
:1008C000DEB72E970FB6F894DEBF0FBECDBFB09047
:1008D0001501C0901601D0901701E0901801F0901A
:1008E000130410911404209115042D8330911604E3
:1008F000398320E030E0A9016F2D712F8D8199811E
:100900000E94CF1C811104C0FB2C1C2DDD82E982CA
:100910002F2D312F4D81598160E070E080E89FE3F9
:100920000E94D91C20E030E04AE754E40E94A61E51
:1009300020E030E04AE754E40E94A61E0E94521DC7
:100940004B015C018092E3039092E403A092E503E3
:10095000B092E6037C016B01F694E794D794C794B8
:10096000C092DF03D092E003E092E103F092E20351
:10097000C701B6010E94811D69837A838B839C83A2
:1009800020E030E040E85BE30E94A61E6093DB03BA
:100990007093DC038093DD039093DE0343EE51E01C
:1009A0005E874D87312C212CD501C4018E7F89872C
:1009B0009A87AB87BC870E941E1A2091F0032223DE
:1009C00089F08090FF0390900004A0900104B09003
:1009D0000204681979098A099B09603A76488F4FA1
:1009E0009F4F90F160E0ED85FE8580810E94421B63
:1009F00060E0AD85BE8518968C910E94421B2D85C6
:100A00003E852E5F3F4F3E872D8732E0230E311CFF
:100A100048E02416310479F62E960FB6F894DEBF1E
:100A20000FBECDBFDF91CF911F91FF90EF90DF9070
:100A3000CF90BF90AF909F908F907F906F905F907E
:100A40004F903F902F900895F101ED5FFB4F808113
:100A5000918160E071E0681B790B072E000C880B18
:100A6000990B0E94831D2091DB033091DC034091A0
:100A7000DD035091DE030E94A61E6093D70370939E
:100A8000D8038093D9039093DA030E941E1A8090B2
:100A9000FF0390900004A0900104B09002049B0119
:100AA000AC01281939094A095B0949015A01CA01EF
:100AB000B9010E94811D6D837E838F83988740904A
:100AC000D7035090D8036090D9037090DA03A30144
:100AD00092010E94991E181634F411E08C149D04A2
:100AE000AE04BF0408F010E0A301920169817A818D
:100AF0008B819C810E94341C9B01AC016D817E81A5
:100B00008F8198850E94991E1816A4F489859A856C
:100B1000AB85BC8588169906AA06BB0658F461E029
:100B2000AD85BE858C910E94421B61E0ED85FE85FE
:100B3000808563CF1111F3CF60E0AD85BE858C91C8
:100B40000E94421B60E0F2CF0E946F1F9B01AC012C
:100B500060E070E080E89FE30E94D91C08958F92C6
:100B60009F92AF92BF92CF92DF92EF92FF929B0142
:100B7000AC01C090D501D090D601E090D701F090A3
:100B8000D801C701B6010E94A61E20E030E040E86F
:100B90005EEB0E94A61E0E94A4050E94A01C4B01B1
:100BA0005C01A701960163E373E383EB9FE30E947B
:100BB000D91CA50194010E94A61E9B01AC016AE903
:100BC00079E989E99EE30E94331CFF90EF90DF9062
:100BD000CF90BF90AF909F908F900895CF93DF9369
:100BE0002091BF033091C0038CE0829FF001839F6E
:100BF000F00D1124E95EFB4F80859185019740E55A
:100C000053E08530910538F4880F991FFC01EA58AC
:100C1000FC4F408151818CE0829FF001839FF00D59
:100C20001124E95EFB4F8285938501976AE472E0A7
:100C30008730910538F4880F991FFC01E859FC4F63
:100C4000608171818CE0829FF001839FF00D1124FF
:100C5000E95EFB4FC081D181A281B38124813581BE
:100C600086819781F9013197349710F021E030E0C7
:100C7000FC013197329710F081E090E0D093CA03E5
:100C8000C093C903B093CC03A093CB033093CE039E
:100C90002093CD039093D0038093CF035093C80348
:100CA0004093C7037093C6036093C503DF91CF9150
:100CB00008952F923F924F925F926F927F928F9200
:100CC0009F92AF92BF92CF92DF92EF92FF920F93DB
:100CD0001F93CF93DF93CDB7DEB72E970FB6F8945F
:100CE000DEBF0FBECDBF382E882331F060E072E04A
:100CF00087EC94E00E947115D12CC12CF12CE12CD1
:100D000096E0292E332021F14AE0B701CE01079663
:100D10000E940E186BE172E0CE0101960E94EF175F
:100D2000BE01695F7F4FCE0101960E944E1963E2BA
:100D300072E00E946119BC0187EC94E00E943E15AC
:100D4000CE0101960E947D17CE0107960E947D1765
:100D500010E000E0B12CA12C2E9CC0012F9C900D26
:100D600011249E878D8746019FEF891A990AB80141
:100D70006C0D7D1D85EC94E00E94DB12482E512CF9
:100D8000712C612C01151105C9F5B40185EC94E0B5
:100D90000E94DB12480E511C611C711CED85FE8502
:100DA000EA0DFB1DEE0FFF1FE95EFB4F51824082F3
:100DB000332001F14AE0B201CE0107960E940E18DD
:100DC000BE01695F7F4FCE0101960E94BB1864E9A6
:100DD00072E0CE0101960E946119BC0187EC94E09B
:100DE0000E943E15CE0101960E947D17CE01079606
:100DF0000E947D178FEFA81AB80A03C001301105B1
:100E000069F60F5F1F4F0730110509F0B0CF33208F
:100E100021F087EC94E00E945B159FEFE91AF90A34
:100E200087E0C80ED11C9EE0E916F10409F06ACFF4
:100E30002E960FB6F894DEBF0FBECDBFDF91CF91D7
:100E40001F910F91FF90EF90DF90CF90BF90AF90E8
:100E50009F908F907F906F905F904F903F902F90DA
:100E600008952F923F924F925F926F927F928F924E
:100E70009F92AF92BF92CF92DF92EF92FF920F9329
:100E80001F93CF93DF9300D000D000D0CDB7DEB753
:100E90007C010E94AA1927E0269F8001279F100D40
:100EA0001124670186E0C80ED11CC6010E94AA1950
:100EB0004FEF6F3F71058105910509F024F4C601DC
:100EC0000E94AA19462FB80185EC94E00E94E11215
:100ED000C6010E94AA1940E06F3F71058105910586
:100EE00031F02CF0C6010E94AA1941E0460FB8016A
:100EF0006F5F7F4F85EC94E00E94E11247018CE028
:100F0000880E911CC4010E94AA19462FB8016E5F79
:100F10007F4F85EC94E00E94E112570182E1A80E18
:100F2000B11CC5010E94AA19462FB8016D5F7F4F01
:100F300085EC94E00E94E112370188E1680E711C93
:100F4000C3010E94AA19462FB8016C5F7F4F85EC40
:100F500094E00E94E11227018EE1480E511CC2016B
:100F60000E94AA19462FB8016B5F7F4F85EC94E071
:100F70000E94E112170184E2280E311CC1010E9477
:100F8000AA19462FB8016A5F7F4F85EC94E00E9452
:100F9000E1126AE272E0CE0101960E94EF17B701FA
:100FA000CE0101960E944E1964E972E00E94611917
:100FB000B6010E944E1964E972E00E946119B40101
:100FC0000E944E1964E972E00E946119B5010E9405
:100FD0004E1964E972E00E946119B3010E944E1932
:100FE00064E972E00E946119B2010E944E1964E93D
:100FF00072E00E946119B1010E944E19BC0187EC98
:1010000094E00E945F15CE0101960E947D172696FE
:101010000FB6F894DEBF0FBECDBFDF91CF911F9109
:101020000F91FF90EF90DF90CF90BF90AF909F9087
:101030008F907F906F905F904F903F902F9008958A
:10104000CF93DF93CDB7DEB72C970FB6F894DEBF02
:101050000FBECDBF6CE372E0CE0107960E94EF1782
:1010600060E472E0CE0101960E94EF17BE01695F55
:101070007F4FCE0101960E944E19BC0187EC94E08F
:101080000E945F15CE0101960E947D17CE01079642
:101090000E947D172C960FB6F894DEBF0FBECDBF11
:1010A000DF91CF9108956F927F928F929F92AF922E
:1010B000BF92CF92DF92EF92FF920F931F93CF9345
:1010C000DF93CDB7DEB7E0970FB6F894DEBF0FBE63
:1010D000CDBF99E1692E91E0792EF12CE12C8E01A2
:1010E000055D1F4FCE0101966C015C0164E973E060
:1010F000C6010E94EF1796E0C90ED11CC016D1069A
:10110000A9F74AE0B701C8010E940E18B801C5014D
:101110000E94C418C8010E947D174E0187E0880E06
:10112000911CD12CC12CF601EE0FFF1FE60DF71D0F
:10113000608171814AE0C8010E940E189FEFC91AB0
:10114000D90AB801C4010E94C418C8010E947D17C1
:1011500086E0880E911C97E0C916D10421F7C501DD
:101160000E943107680186E0C81AD108C6010E94B2
:101170007D17AC14BD04B9F79FEFE91AF90A8CE0AA
:10118000680E711C9EE0E916F10409F0ABCFE09601
:101190000FB6F894DEBF0FBECDBFDF91CF911F9188
:1011A0000F91FF90EF90DF90CF90BF90AF909F9006
:1011B0008F907F906F90089564EF71E085EC94E0DC
:1011C0000E94DB128F3649F00E9453084FE664EF0D
:1011D00071E085EC94E00C94E1120895CF93DF93D5
:1011E00000D0CDB7DEB74AE050E0BE016F5F7F4F61
:1011F000FC01808191810E945723E981FA8181E07D
:101200009081911180E00F900F90DF91CF91089520
:10121000CF92DF92EF92FF920F931F93CF93DF93C2
:10122000CDB7DEB72C970FB6F894DEBF0FBECDBF9B
:101230008C0164E572E00E947B198823B9F00E945A
:1012400053086DE572E087EC94E00E9471152C96CE
:101250000FB6F894DEBF0FBECDBFDF91CF911F91C7
:101260000F91FF90EF90DF90CF9008956AE672E0C3
:10127000C8010E947B19882321F081E00E94590651
:10128000E6CF61E772E0C8010E947B19882319F05C
:101290000E942008DCCF69E772E0C8010E947B1938
:1012A000882321F081E08093C204D1CF6FE772E000
:1012B000C8010E947B198823E9F01092C204809132
:1012C000F5039091F603885E93409093F603809324
:1012D000F5038091F9010E94701B90931401809393
:1012E00013018091F7010E94701B9093120180936B
:1012F0001101ADCF64E872E0C8010E947B19882318
:1013000009F444C00A5F1F4F68E872E0CE010196FD
:101310000E94EF17B801CE0101960E944E19BC0140
:1013200087EC94E00E945F15CE0101960E947D1724
:101330001092C0041092BF0481ECC82E81E0D82E18
:10134000F12CE12CB701C8010E949819FC018081A1
:1013500091E0813309F090E0F60191936F018133C0
:1013600069F4FEE0EF16F1044CF48091BF04909113
:10137000C00401969093C0048093BF042FEFE21A3B
:10138000F20A80E1E816F104E9F661CF66E972E05D
:10139000C8010E947B198823F1F168EE73E085ECA7
:1013A00094E00E94DE126038E6E97E07E8E98E07E5
:1013B000910578F020E030E0A90168EE73E085EC5B
:1013C00094E00E94E71268EE73E085EC94E00E94DE
:1013D000DE122AE0AB01BC01CE0107960E943A184A
:1013E0006FE972E0CE0101960E94EF17BE01695FBE
:1013F0007F4FCE0101960E944E19BC0187EC94E00C
:101400000E945F15CE0101960E947D17CE010796BE
:101410000E947D171CCF6AEA72E0C8010E947B1906
:10142000882399F050E040E0BE016F5F7F4FF801E4
:10143000868197810E9457239B01AC0168EE73E07F
:1014400085EC94E00E94E71202CFB801CE0101962C
:101450000E94BB18CE0101960E94EE08F82ECE0124
:1014600001960E947D17FF2009F4F1CEC8010E9469
:10147000310780E00E9459060E94EE05E8CE1F92D7
:101480000F920FB60F9211242F933F934F935F93B8
:101490006F937F938F939F93AF93BF93EF93FF933C
:1014A0000E944E04FF91EF91BF91AF919F918F9158
:1014B0007F916F915F914F913F912F910F900FBE50
:1014C0000F901F901895CF92DF92FF920F931F936A
:1014D000CF93DF93F82E062F61E0802F0E94061B2A
:1014E00060E08F2D0E94061B10E0C7E0D0E0CC2406
:1014F000C394D12C60E0802F0E94421B82E090E0D8
:101500000E947C1A8F2D0E94701B892B39F0C60116
:101510000C2E01C0880F0A94EAF7182B61E0802F87
:101520000E94421B219730F7812FDF91CF911F91AD
:101530000F91FF90DF90CF900895EF92FF920F935D
:101540001F93CF93DF93CDB7DEB72C970FB6F894E8
:10155000DEBF0FBECDBF61E08091D9010E94421B6A
:1015600084E190E00E947C1A60E08091D9010E94A1
:10157000421B6091DB017091DC018091DD01909153
:10158000DE010E94630A182F6091DB017091DC017B
:101590008091DD019091DE010E94630A91ECE92EB9
:1015A00091E0F92EF70130E020E0612F70E0AB010F
:1015B000022E02C0559547950A94E2F74170478381
:1015C0002F5F3F4F31972830310589F7E1ECF1E08B
:1015D00030E020E090E0AC01022E02C05595479526
:1015E0000A94E2F7417047872F5F3F4F31972830C9
:1015F000310589F76DEB72E087EC94E00E944C15A1
:1016000010E000E0F70161917F0170E04AE0CE0157
:1016100001960E940E18BE016F5F7F4F87EC94E029
:101620000E943E15CE0101960E947D170F5F1F4F4D
:101630000031110509F067C087EC94E00E945B154A
:10164000E091D301F091D401EF53FE4F808169EB1B
:1016500072E0882311F066EB72E0CE0107960E94DB
:10166000EF176CEC72E0CE0101960E94EF17BE01FD
:10167000695F7F4FCE0101960E944E19BC0187EC35
:1016800094E00E945F15CE0101960E947D17CE0165
:1016900007960E947D17E091D101F091D201EF539E
:1016A000FE4F808169EB72E0882311F066EB72E0F7
:1016B000CE0107960E94EF176EED72E0CE01019603
:1016C0000E94EF17BE01695F7F4FCE0101960E9415
:1016D0004E19BC0187EC94E00E945F15CE01019683
:1016E0000E947D17CE0107960E947D172C960FB69B
:1016F000F894DEBF0FBECDBFDF91CF911F910F9148
:10170000FF90EF9008950830110509F07BCF64E950
:1017100072E087EC94E00E944C1574CFCF92DF9278
:10172000EF92FF92CF93DF9326E040E052EC61E02E
:1017300070E087EC94E00E94111464E973E087EC98
:1017400094E00E94711565EF72E087EC94E00E94CE
:1017500071150E94200865EF72E087EC94E00E940A
:101760007115F8941092B0001092B1001092B2006E
:1017700082E58093B3008091B10082608093B100D4
:101780008091B10083608093B1008091700082608D
:1017900080937000789462E08091E1010E94061BC2
:1017A0008091E1019091E20182309105A9F00397C7
:1017B000A9F481E043E050E064E871E00E94CE16B5
:1017C000C3EED1E021E0C33FD20751F088812296D9
:1017D00061E00E94061BF6CF80E0ECCF8FEFEACFEE
:1017E00062E08091F9010E94061B62E08091F7019E
:1017F0000E94061B61E08091F5010E94061B61E0DA
:101800008091F3010E94061B60E08091DD010E943F
:10181000061B61E08091DB010E94061B61E0809164
:10182000D9010E94061B0E949D0A8091BF049091DD
:10183000C004E1ECF1E021912111019621E0EF3C9F
:10184000F207C9F79093C0048093BF04892B49F431
:1018500081E08093C10181E090E09093C004809387
:10186000BF0480E00E94C21AEC0181E00E94C21A0B
:10187000C80FD91F82E00E94C21A8C0F9D1F63E01F
:1018800070E00E94AA1B6B01770FEE08FF08C701EA
:10189000B6010E943C17C701B6010E94431A61E0DD
:1018A0008091DF010E94061B0E94DC0881E0DF912D
:1018B000CF91FF90EF90DF90CF900C945906CF938B
:1018C000DF9300D000D000D0CDB7DEB7E091D301D8
:1018D000F091D401EF53FE4F8081882351F164E9E8
:1018E00073E0CE0101960E94EF172EE030E040E059
:1018F00050E060E070E0CB010E945E17FB01EF5307
:10190000FE4F2081222389F37093B0036093AF03CD
:10191000CE0101960E947D178091AF039091B00394
:1019200026960FB6F894DEBF0FBECDBFDF91CF91E4
:10193000089580910A01811109C08091AF039091AF
:10194000B00301969093B0038093AF032091AF034F
:101950003091B003C901F901EF53FE4F21912111DC
:1019600006C0019630E08E309105C4F3F3CF8E307F
:1019700091053CF49093B0038093AF0310920A0159
:10198000CBCF1092B0031092AF03F8CF0F931F93F9
:10199000CF93DF930E94121A2091F5033091F60342
:1019A0004091F003442309F454C0EB01C21BD30B54
:1019B000CD3221E0D2070CF44CC08091F10390911C
:1019C000F203A091F303B091F403892B8A2B8B2BA4
:1019D00081F467E273E087EC94E00E9471150E9445
:1019E000121A6093F1037093F2038093F3039093C0
:1019F000F403CD3DD54024F18091EF03882331F0ED
:101A000062E373E087EC94E00E9471151092F0039A
:101A10001092F1031092F2031092F3031092F40368
:101A20001092EB031092EC031092ED031092EE0370
:101A30001092E7031092E8031092E9031092EA0370
:101A40008091F0038093EF03DF91CF911F910F916D
:101A500008958091F9010E94701BEC018091F701BB
:101A60000E94701B2091C2042223B1F02091130127
:101A70003091140191E080E0232B09F090E0C92F10
:101A8000D82F809111019091120131E020E0892B33
:101A900009F030E0832F922F20911301309114012F
:101AA0002C173D0721F520911101309112012817C3
:101AB0003907E9F40E94121A0091EB031091EC032C
:101AC0002091ED033091EE03601B710B820B930BA1
:101AD000693E73408105910508F4B2CF1092EB0383
:101AE0001092EC031092ED031092EE03A9CFD09365
:101AF0001401C093130190931201809311010E946D
:101B0000121A7093F6036093F5031092F10310928A
:101B1000F2031092F3031092F4038091EB0390917F
:101B2000EC03A091ED03B091EE03892B8A2B8B2B54
:101B300051F40E94121A6093EB037093EC038093AC
:101B4000ED039093EE030E94121A0091EB031091A3
:101B5000EC032091ED033091EE03601B710B820BBF
:101B6000930B633371058105910508F469CF80916A
:101B7000EF03811120C06AE373E087EC94E00E94D8
:101B800071150E945F0C9093C0038093BF030E9465
:101B9000EE050E94121A6093E7037093E8038093A6
:101BA000E9039093EA031092F1031092F20310926A
:101BB000F3031092F40381E08093F003609113012A
:101BC000709114018091F5010E94421B60911301F4
:101BD000709114018091F3010E94421B31CF2F922A
:101BE0003F924F925F926F927F928F929F92AF92AD
:101BF000BF92CF92DF92EF92FF920F931F93CF93FA
:101C0000DF93CDB7DEB7E5970FB6F894DEBF0FBE12
:101C1000CDBF68A779A78AA79BA749011C8B0B8B0F
:101C2000FE8EED8ED8A2CF8EB9AAA8AA20910B0164
:101C300030910C013EA32DA3BA01550F880B990BCF
:101C40000E94831D9B01AC0168A579A58AA59BA56F
:101C50000E94D91C698F7A8F8B8F9C8FF601099512
:101C60006CA77DA78EA79FA72DA13EA10B891C89DC
:101C70002017310709F4AFC0698D7A8D8B8D9C8D4B
:101C8000EF8DF8A109956B017C01B401990C880BCB
:101C9000990B0E94831DA70196010E94A61E69A3AD
:101CA0007AA38BA39CA30E94121A0091A703109100
:101CB000A8032091A9033091AA03601B710B820B2A
:101CC000930B633371058105910508F48DC00E9463
:101CD000121A6093A7037093A8038093A9039093AB
:101CE000AA0391E09FA3312C212C812C912C0091EF
:101CF0000B0110910C01B801012E000C880B990BFF
:101D00000E94831D2B013C01232D322DA4010E9432
:101D1000991E18160CF075C2632D722DC4010E9415
:101D20004B1D6D8B7E8B8F8B988FED88FE88EB899A
:101D3000FC89E230F1050CF49FC02D8D3E8D2130E1
:101D4000310509F053C0C801BF010E94AA1B072E2C
:101D5000000C880B990B0E94831D6B017C01A30171
:101D600092010E94D91C232D322DA4010E94A61E8F
:101D70006AAB7BAB8CAB9DABA7019601C301B201F3
:101D80000E94331C20E030E040E05FE30E94A61E8A
:101D90009B01AC016AA97BA98CA99DA90E94341C56
:101DA0005B018C0129A13AA14BA15CA1B501C8013D
:101DB0000E94341C6B017C01AC019B01C301B20188
:101DC0000E94CF1C87FF5CC0A3019201C701B6012E
:101DD0000E94331CEFCFF98DF9A32A8D2AA33B8DE6
:101DE0003BA38C8D8CA35FCF1FA27DCF8D8D9E8D4D
:101DF0000297F1F4C8016B897C890E94AA1B8B01B0
:101E0000072E000C880B990B0E94831D232D322D69
:101E1000A4010E94CF1C18167CF1C701B8010E94D2
:101E2000AA1BBC01990F880B990B0E94831DB8CF88
:101E3000ED8DFE8D339701F5C8016B897C890E9479
:101E4000AA1B8B01072E000C880B990B0E94831D87
:101E5000232D322DA4010E94CF1C18166CF020E017
:101E600030E040E85FE3632D722DC4010E94341C12
:101E70000E944B1DCB01D2CFA32CB22C840192CF58
:101E800020E030E0A901C701B6010E94CF1C87FF06
:101E900009C0A3019201C701B6010E94341C6B0165
:101EA0007C01EECF2DA13EA18B899C892817390793
:101EB00009F063C1C701B601EF8DF8A109956B0167
:101EC0007C018091F1039091F203A091F303B09112
:101ED000F403181619061A061B060CF058C10E94C6
:101EE000121A4090F1035090F2036090F303709047
:101EF000F40364197509860997090E94831D20E07F
:101F000030E04AE754E40E94D91C9B01AC0160E038
:101F100070E080E89FE30E94331C2B013C0120E02D
:101F200030E0A9010E94CF1C87FF03C0412C512C37
:101F30003201A3019201C701B6010E94A61E6B01E6
:101F40007C0120E030E0A901C701B6010E94CF1C4E
:101F500087FD4CC120E030E040E85FE3C701B601F7
:101F60000E94991E18160CF445C120E030E04FE79E
:101F700053E4C701B6010E94A61E6B017C010E94BA
:101F80004B1DED89FE893496EE0FFF1FED5FFB4F71
:101F900071836083ED89FE89EE0FFF1FED5FFB4FBC
:101FA000718360838091C2048823C1F12FA1222311
:101FB000A9F122E0B701A601CE0101960E94DF1827
:101FC0004AE06D897E89CE010D960E940E1862E46A
:101FD00073E0CE0107960E94EF17BE01635F7F4F4B
:101FE000CE0107960E944E1964E972E00E946119C1
:101FF000BE016F5F7F4F0E944E19BC0187EC94E0D9
:102000000E945F15CE0107960E947D17CE010D96A6
:102010000E947D17CE0101960E947D1720E030E0DE
:10202000A901632D722DC4010E94CF1C811108C02B
:10203000C701B6010E94521D8091F5010E94421B0A
:1020400020E030E040E85FE3632D722DC4010E9480
:10205000CF1C811108C0C701B6010E94521D80919A
:10206000F3010E94421B8091C104882309F478C0C7
:1020700020E030E0A901632D722DC4010E94CF1C25
:1020800081116EC00E94121A4090AB035090AC03B5
:102090006090AD037090AE036419750986099709C5
:1020A000653671058105910508F45AC00E94121A1F
:1020B0006093AB037093AC038093AD039093AE0336
:1020C00067E473E087EC94E00E944C1522E030E076
:1020D00048A559A56AA57BA587EC94E00E94CB167C
:1020E00060E573E087EC94E00E944C1522E030E05C
:1020F000498D5A8D6B8D7C8D87EC94E00E94CB16B8
:1021000069E573E087EC94E00E944C1522E030E032
:10211000A501B80187EC94E00E94CB166DE573E051
:1021200087EC94E00E944C1522E030E049A15AA1CE
:102130006BA17CA187EC94E00E94CB1664E673E06F
:1021400087EC94E00E944C1522E030E0B701A60134
:1021500087EC94E00E94CB1687EC94E00E945B151C
:1021600020E030E040E85FE3632D722DC4010E945F
:10217000341C362E272E4C01BACD2CA53DA54EA5DC
:102180005FA5C701B601E8A9F9A9099598CE0E94F3
:10219000121A4090E7035090E8036090E9037090B2
:1021A000EA036419750986099709693EF3E07F0718
:1021B000810591050CF0C5CE0E94831D20E030E022
:1021C0004AE754E40E94D91C2B013C0120E030E096
:1021D00040E85FE30E94991E18160CF0AACE412C2D
:1021E000512C30E8632E3FE3732EA3CEC12CD12CAB
:1021F0007601BBCEC12CD12C20E8E22E2FE3F22EAB
:10220000B4CEE5960FB6F894DEBF0FBECDBFDF911A
:10221000CF911F910F91FF90EF90DF90CF90BF90E3
:10222000AF909F908F907F906F905F904F903F9076
:102230002F9008954F925F926F927F928F929F920C
:10224000AF92BF92CF92DF92EF92FF920F931F93C4
:10225000CF93DF938090C9039090CA034090CB0343
:102260005090CC030091CD031091CE036090CF032A
:102270007090D003C090C703D090C803A090C5034E
:10228000B090C603C0910B01D0910C0160E070E0EA
:1022900080E89FE3F601099520E030E040E85FE345
:1022A0000E94CF1CE0900B01F0900C01882309F4F0
:1022B00069C0C017D10709F465C0B401660F771F64
:1022C000072E000C880B990B0E94831D2091D501CD
:1022D0003091D6014091D7015091D8010E94A61E9D
:1022E0000E944B1DEB010E151F052CF4CE01B80109
:1022F0000E94AA1BEB016091C1037091C2038091FF
:10230000C3039091C40373019201A4010E94EF0DD5
:1023100020E030E040E85FE36091C1037091C203C8
:102320008091C3039091C4030E94341C6B017C0113
:10233000BE01DD0F880B990B0E94831D9B01AC0130
:10234000C701B6010E94991E181624F1C092C1035C
:10235000D092C203E092C303F092C40361E08DE027
:10236000DF91CF911F910F91FF90EF90DF90CF9071
:10237000BF90AF909F908F907F906F905F904F90A5
:102380000C94061B8E9CE0018F9CD00D9E9CD00D62
:102390001124A9CF1092C1031092C2031092C3035B
:1023A0001092C403DBCF60910B0170910C0177FF99
:1023B00002C06F5F7F4F75956795072E000C880BE5
:1023C000990B0E94831D6093D3037093D403809371
:1023D000D5039093D60308959F92AF92BF92CF9268
:1023E000DF92EF92FF920F931F93CF93DF93CDB7BE
:1023F000DEB7E0970FB6F894DEBF0FBECDBF809179
:10240000B10381110DC064E973E089EB93E00E9490
:10241000EF1781E08093B10383E893E00E94B51940
:102420008E01055D1F4F86E0982E87EC94E00E9498
:102430003713892B09F476C087EC94E00E9451137E
:10244000F82E682F89EB93E00E943B198AE0F8127E
:10245000ECCFFE0131967F016F0164E973E0C701A3
:102460000E94EF17F6E0EF0EF11CE016F106A9F757
:1024700064E973E0C8010E94EF17F12CE12CB12C44
:10248000A12C8091BD039091BE03E816F90698F542
:10249000B70189EB93E00E949819FC01808180329A
:1024A000B1F49A9CC0019B9C900D1124B8018C0D35
:1024B0009D1D0E94A418FFEFAF1ABF0A64E973E0E4
:1024C000C8010E94D018FFEFEF1AFF0ADACFB70158
:1024D00089EB93E00E949819FC0180818A3009F30E
:1024E000B70189EB93E00E949819FC016081C80153
:1024F0000E943B19E8CFC6010E94080964E973E015
:1025000089EB93E00E94D018C8010E947D177801E2
:1025100086E0E81AF108C7010E947D17CE14DF0497
:10252000B9F783CFE0960FB6F894DEBF0FBECDBFEC
:10253000DF91CF911F910F91FF90EF90DF90CF909F
:10254000BF90AF909F9008950F931F930E94121A0F
:102550000091A3031091A4032091A5033091A60339
:10256000601B710B820B930B653F714081059105D8
:1025700098F06091A20381E068276093A2038DE048
:102580000E94421B0E94121A6093A3037093A4033B
:102590008093A5039093A6030E94EC110E94C60CA1
:1025A0008091F003882321F01F910F910C941A1150
:1025B0001F910F910895CB010C948327CB010C94AC
:1025C0008B27CB01642F0E94912781E008958F9281
:1025D0009F92AF92BF92CF92DF92EF92FF920F93B2
:1025E0001F93CF93DF9300D000D0CDB7DEB7298300
:1025F0003A834B835C834E0185E0880E911C8E01EB
:102600000F5F1F4FF12CE12C6B01C01AD10A56014C
:10261000A00EB11EC5010E948327F80161918F01B0
:10262000861731F0C5010E949127FFEFEF1AFF0ACC
:102630000815190561F781E0EF2809F480E00F9093
:102640000F900F900F90DF91CF911F910F91FF90FE
:10265000EF90DF90CF90BF90AF909F908F900895B4
:1026600084E690E09093C6048093C5040895FC012D
:10267000918D228D892F90E0805C9F4F821B910964
:102680008F7399270895FC01918D828D981731F0F1
:10269000828DE80FF11D858D90E008958FEF9FEFFB
:1026A0000895FC01918D828D981761F0A28DAE0F77
:1026B000BF2FB11D5D968C91928D9F5F9F73928FFE
:1026C00090E008958FEF9FEF0895FC01538D448DA6
:1026D000252F30E0842F90E0821B930B541710F0CD
:1026E000CF960895019708958BEC94E1892B49F0DA
:1026F00080E090E0892B29F00E94CB1481110C948A
:1027000000000895FC01A48DA80FB92FB11DA35A94
:10271000BF4F2C91848D90E001968F739927848F01
:10272000A689B7892C93A089B1898C918370806424
:102730008C93938D848D981306C00288F389E02DC5
:1027400080818F7D80830895CF93DF93EC01888D06
:102750008823B9F0AA89BB89E889F9898C9185FD1C
:1027600003C0808186FD0DC00FB607FCF7CF8C91AA
:1027700085FFF2CF808185FFEDCFCE010E948213CD
:10278000E9CFDF91CF910895EF92FF920F931F93BE
:10279000CF93DF93EC0181E0888F9B8D8C8D981314
:1027A0001AC0E889F989808185FF15C09FB7F89420
:1027B000EE89FF896083E889F9898081837080646C
:1027C00080839FBF81E090E0DF91CF911F910F91B7
:1027D000FF90EF900895F62E0B8D10E00F5F1F4FC6
:1027E0000F731127E02E8C8D8E110CC00FB607FCD5
:1027F000FACFE889F989808185FFF5CFCE010E9463
:102800008213F1CFEB8DEC0FFD2FF11DE35AFF4F3B
:10281000F0829FB7F8940B8FEA89FB8980818062F0
:10282000CFCFCF92DF92EF92FF921F93CF93DF93A0
:10283000EC016A017B01122FE889F98982E080832B
:10284000C11481EED806E104F104A1F060E079E062
:102850008DE390E0A70196010E94BE1B2150310933
:10286000410951095695479537952795211580E1DE
:10287000380798F0E889F989108260E874E88EE1F9
:1028800090E0A70196010E94BE1B21503109410929
:1028900051095695479537952795EC85FD853083E9
:1028A000EE85FF852083188EEC89FD891083EA89E7
:1028B000FB89808180618083EA89FB8980818860CF
:1028C0008083EA89FB89808180688083EA89FB892B
:1028D00080818F7D8083DF91CF911F91FF90EF905A
:1028E000DF90CF9008951F920F920FB60F92112490
:1028F0002F938F939F93EF93FF93E091D704F091E1
:10290000D8048081E091DD04F091DE0482FD1BC0DB
:1029100090818091E0048F5F8F732091E104821792
:1029200041F0E091E004F0E0E953FB4F958F809394
:10293000E004FF91EF919F918F912F910F900FBE27
:102940000F901F9018958081F4CF1F920F920FB6B1
:102950000F9211242F933F934F935F936F937F9325
:102960008F939F93AF93BF93EF93FF9387EC94E084
:102970000E948213FF91EF91BF91AF919F918F9130
:102980007F916F915F914F913F912F910F900FBE6B
:102990000F901F90189587EC94E00E94371321E068
:1029A000892B09F420E0822F0895E7ECF4E01382EC
:1029B000128288EE93E0A0E0B0E084839583A68342
:1029C000B78384E893E09183808385EC90E09587DA
:1029D000848784EC90E09787868780EC90E0918BE9
:1029E000808B81EC90E0938B828B82EC90E0958BD6
:1029F000848B86EC90E0978B868B118E128E138ED3
:102A0000148E0895AF92BF92CF92DF92EF92FF9211
:102A10000F931F93CF93DF936C017B018B01040F06
:102A2000151FEB015E01AE18BF08C017D10759F0A2
:102A30006991D601ED91FC910190F081E02DC601E4
:102A40000995892B79F7C501DF91CF911F910F91DE
:102A5000FF90EF90DF90CF90BF90AF900895FB0173
:102A600001900020E9F73197AF01461B570BDC01BD
:102A7000ED91FC910280F381E02D0994DB01149625
:102A80004D915C9115976D917C91DC01ED91FC91DC
:102A90000280F381E02D09946115710511F00C9409
:102AA0002F1590E080E00895DC01ED91FC910190FC
:102AB000F081E02D099462E973E00C942F150F93D7
:102AC0001F93CF93DF93EC010E943E158C01CE0142
:102AD0000E945B15800F911FDF91CF911F910F9185
:102AE00008950F931F93CF93DF938C01D0E0C0E044
:102AF0006115710519F00E942F15EC01C8010E94A3
:102B00005B158C0F9D1FDF91CF911F910F91089541
:102B10008F929F92AF92BF92EF92FF920F931F936B
:102B2000CF93DF93CDB7DEB7A1970FB6F894DEBF92
:102B30000FBECDBF7C01FA01CB0119A2223008F4EF
:102B40002AE08E010F5D1F4F822E912CB12CA12CFB
:102B5000BF01A50194010E94BE1BF901CA016A30A0
:102B60000CF5605DD8016E938D01232B242B252B52
:102B700079F790E080E0109721F0BD01C7010E9435
:102B80002F15A1960FB6F894DEBF0FBECDBFDF9113
:102B9000CF911F910F91FF90EF90BF90AF909F90BA
:102BA0008F900895695CDECF2115310541F4DC0179
:102BB000ED91FC910190F081E02D642F09940C942B
:102BC00088159A01AB0170E060E00C94D4152F9247
:102BD0003F924F925F926F927F928F929F92AF92AD
:102BE000BF92CF92DF92EF92FF921F93CF93DF932A
:102BF000EC016A017B01722EAB019601CB01B6019B
:102C00000E94941F65E973E0811126C046015701B7
:102C1000E894B7F82FEF3FEF4FE75FE7C501B40146
:102C20000E94941F81110CC02FEF3FEF4FE75FE729
:102C3000C501B4010E94CF1C69E973E0181664F065
:102C40002FEF3FEF4FE75FE4C701B6010E94991EE7
:102C50001816B4F46DE973E0CE01DF91CF911F91A6
:102C6000FF90EF90DF90CF90BF90AF909F908F90AC
:102C70007F906F905F904F903F902F900C942F1506
:102C80002FEF3FEF4FE75FECC701B6010E94CF1C6B
:102C900087FDE0CF20E030E0A901C701B6010E9426
:102CA000CF1C312C212C87FF09C06DE2CE010E9480
:102CB00054151C01F7FAF094F7F8F09410E060E076
:102CC00070E080E09FE3711641F020E030E040E2E8
:102CD00051E40E94D91C1F5FF6CFA70196010E9404
:102CE000341C2B013C010E94521D4B015C012AE067
:102CF000BC01A401CE010E9488157C01E20CF31CEA
:102D00001123B1F1C501B4010E94811D9B01AC01E9
:102D1000C301B2010E94331C4B015C016EE2CE0183
:102D20000E945415E80EF91E115010F120E030E019
:102D300040E251E4C501B4010E94A61E2B013C01F2
:102D40000E94521D4B014AE050E0CE010E94E11565
:102D5000E80EF91EB40190E080E00E94811D9B0105
:102D6000AC01C301B2010E94331C4B015C01DCCFFA
:102D7000C701DF91CF911F91FF90EF90DF90CF902F
:102D8000BF90AF909F908F907F906F905F904F908B
:102D90003F902F9008950C94E71508958230E8F441
:102DA000E82FF0E0EE0FFF1FE550FE4F71836083C8
:102DB000813041F0809169008C7F482B40936900FD
:102DC000E89A089580916900837F440F551F440F4E
:102DD000551F482B40936900E99A08951F920F925E
:102DE0000FB60F9211242F933F934F935F936F93DE
:102DF0007F938F939F93AF93BF93EF93FF93E09154
:102E0000FB01F091FC010995FF91EF91BF91AF910A
:102E10009F918F917F916F915F914F913F912F91F2
:102E20000F900FBE0F901F9018951F920F920FB624
:102E30000F9211242F933F934F935F936F937F9340
:102E40008F939F93AF93BF93EF93FF93E091FD0117
:102E5000F091FE010995FF91EF91BF91AF919F9184
:102E60008F917F916F915F914F913F912F910F9033
:102E70000FBE0F901F901895611571058105910582
:102E800011F00C9491220895CF92DF92EF92FF926D
:102E90006B017C01C114D104E104F10441F00E94F2
:102EA0004222A70196010E94E01B6B017C01C70131
:102EB000B601FF90EF90DF90CF900895CF92DF9210
:102EC000EF92FF926B017C01C216D306E406F50671
:102ED00064F4CA01B9016C197D098E099F090E9429
:102EE0004417C60ED71EE81EF91EC701B601FF9093
:102EF000EF90DF90CF9008950895FC01808191813B
:102F0000009711F00C946D210895CF93DF93EC019D
:102F100088819981009711F00E946D211982188291
:102F20001D821C821B821A82DF91CF9108950F931C
:102F30001F93CF93DF93EC018B016F5F7F4F8881ED
:102F400099810E949A22009751F0998388831B836C
:102F50000A8381E0DF91CF911F910F91089580E066
:102F6000F9CFCF93DF93EC0188819981892B49F0C8
:102F70008A819B818617970720F081E0DF91CF91AE
:102F80000895CE010E9497178823C1F38C819D81FB
:102F9000892B99F7E881F9811082EFCFEF92FF92A8
:102FA0000F931F93CF93DF93EC017B018A01BA014A
:102FB0000E94B11781110BC0CE010E948517CE016E
:102FC000DF91CF911F910F91FF90EF9008951D8396
:102FD0000C83B701888199810E94B024F0CFFC0155
:102FE000118210821382128215821482611571057A
:102FF00051F0FB0101900020E9F73197AF01461B2A
:10300000570B0C94CE170895FB0101900020E9F7AF
:103010003197AF01461B570B0C94CE170F931F939C
:10302000CF93DF93CDB7DEB762970FB6F894DEBFCC
:103030000FBECDBF8C01CB01F8011182108213822B
:1030400012821582148250E0BE016F5F7F4F0E9492
:10305000B724BE016F5F7F4FC8010E9404186296BB
:103060000FB6F894DEBF0FBECDBFDF91CF911F9199
:103070000F9108950F931F93CF93DF93CDB7DEB7D2
:10308000A1970FB6F894DEBF0FBECDBF8C01CB0168
:10309000BA01F80111821082138212821582148201
:1030A00030E0AE014F5F5F4F0E94E224BE016F5FD0
:1030B0007F4FC8010E940418A1960FB6F894DEBF96
:1030C0000FBECDBFDF91CF911F910F9108950F9348
:1030D0001F93CF93DF938C01EB01FC0180819181E1
:1030E000009701F16881798161157105C9F02CE7BC
:1030F00037E1232BA9F0428153812C813D81421776
:10310000530770F00E94B0248C819D81F801958353
:1031100084831D821C82DF91CF911F910F910895AE
:103120000E946D2188819981F801918380838A8131
:103130009B81938382838C819D8195838483198273
:1031400018821B821A82E5CFCF93DF93EC01FB013B
:103150008617970749F0608171816115710541F00B
:10316000448155810E94CE17CE01DF91CF91089501
:103170000E948517F9CFFC011182108213821282FE
:10318000158214820C94A418CF93DF93EC01681776
:10319000790711F00E946718CE01DF91CF91089551
:1031A000CF93DF93EC016115710531F00E94041893
:1031B000CE01DF91CF9108950E948517F9CFEF924C
:1031C000FF920F931F93CF93DF93CDB7DEB7A197F5
:1031D0000FB6F894DEBF0FBECDBF7C01CB01BA01A4
:1031E000F70111821082138212821582148242E04A
:1031F000420F8E010F5F1F4F0E94B320BC01C70119
:103200000E94D018A1960FB6F894DEBF0FBECDBFB6
:10321000DF91CF911F910F91FF90EF900895EF9262
:10322000FF920F931F93CF93DF936115710541F4C4
:1032300080E0DF91CF911F910F91FF90EF90089563
:1032400041155105B1F07B01EC010C811D81040F8A
:10325000151FB8010E94B117882351F328813981C5
:103260008C819D81B701820F931F0E94B0241D8322
:103270000C8381E0DECFCF93DF9300D0CDB7DEB7F4
:1032800069831A8241E050E0BE016F5F7F4F0E9468
:103290000F190F900F90DF91CF910895CF93DF9387
:1032A000EC01FB0144815581608171810E940F19FD
:1032B000811103C0CE010E948517CE01DF91CF910D
:1032C0000895CF93DF93EC016115710539F4CE01B8
:1032D0000E948517CE01DF91CF910895FB010190E7
:1032E0000020E9F73197AF01461B570B0E940F19D9
:1032F000882369F3EFCFFC0124813581232B31F43E
:1033000021E0FB01672B49F4822F08958081918190
:103310006115710539F421E0FC0180818823A1F356
:1033200020E0F2CF0E94A72421E0892B69F3F8CF97
:10333000FC01248135816217730720F4808191811B
:10334000009729F41092640584E695E00895860FAD
:10335000971F0895FC0180819181009711F00C94D2
:103360006E2460E070E0CB01089590E080E0089565
:1033700008950E94871A0E94B8190E948E0BC4E714
:10338000D3E10E94A4122097E1F30E947413F9CFB5
:103390001F920F920FB60F9211242F933F938F938A
:1033A0009F93AF93BF938091660590916705A0911D
:1033B0006805B09169053091650523E0230F2D372D
:1033C00058F50196A11DB11D2093650580936605F2
:1033D00090936705A0936805B093690580916A058D
:1033E00090916B05A0916C05B0916D050196A11DA2
:1033F000B11D80936A0590936B05A0936C05B09303
:103400006D05BF91AF919F918F913F912F910F903B
:103410000FBE0F901F90189526E8230F0296A11D4E
:10342000B11DD2CF2FB7F8946091660570916705F2
:1034300080916805909169052FBF08953FB7F89472
:1034400080916A0590916B05A0916C05B0916D0516
:1034500026B5A89B05C02F3F19F00196A11DB11DEF
:103460003FBFBA2FA92F982F8827BC01CD01620F2B
:10347000711D811D911D42E0660F771F881F991FE6
:103480004A95D1F708958F929F92AF92BF92CF92B3
:10349000DF92EF92FF926B017C010E941E1A4B019A
:1034A0005C01C114D104E104F104E9F00E94991B0C
:1034B0000E941E1A681979098A099B09683E73409F
:1034C0008105910570F321E0C21AD108E108F108E5
:1034D00088EE880E83E0981EA11CB11CC114D10493
:1034E000E104F10429F7FF90EF90DF90CF90BF90B7
:1034F000AF909F908F9008958230910538F0880F9B
:10350000991F880F991F05970197F1F708957894EF
:1035100084B5826084BD84B5816084BD85B58260D8
:1035200085BD85B5816085BDEEE6F0E08081816076
:103530008083E1E8F0E01082808182608083808176
:1035400081608083E0E8F0E0808181608083E1EB4E
:10355000F0E0808184608083E0EBF0E08081816036
:103560008083EAE7F0E080818460808380818260EC
:1035700080838081816080838081806880831092D5
:10358000C10008958E3008F08E502091FF0190E424
:10359000299F900111248770822B80937C00809159
:1035A0007A00806480937A0080917A0086FDFCCF57
:1035B00080917800909179000895833081F028F40B
:1035C000813099F08230A9F008958730A9F08830D1
:1035D000C9F08430B1F4809180008F7D03C0809168
:1035E00080008F7780938000089584B58F7784BDA5
:1035F000089584B58F7DFBCF8091B0008F77809345
:10360000B00008958091B0008F7DF9CFCF93DF9304
:1036100090E0FC01EA59FD4F249186589D4FFC0132
:1036200084918823C9F090E0880F991FFC01EE5522
:10363000FD4FA591B491FC01E856FD4FC591D49181
:1036400061110DC09FB7F8948C91209582238C93C3
:103650008881282328839FBFDF91CF91089562300E
:1036600051F49FB7F8943C91822F809583238C93DB
:10367000E8812E2BEFCF8FB7F894EC912E2B2C9363
:103680008FBFEACF1F93CF93DF93282F30E0F9014C
:10369000EE5AFD4F8491F901EA59FD4FD491F90199
:1036A000E658FD4FC491CC23A9F0162F81110E943A
:1036B000DD1AEC2FF0E0EE0FFF1FE856FD4FA5914D
:1036C000B4918FB7F894EC91111108C0D095DE2316
:1036D000DC938FBFDF91CF911F910895DE2BF8CF40
:1036E000CF93DF93282F30E0F901EE5AFD4F8491FC
:1036F000F901EA59FD4FD491F901E658FD4FC49103
:10370000CC23A1F081110E94DD1AEC2FF0E0EE0F26
:10371000FF1FE257FD4FA591B491EC91ED2381E09D
:1037200090E009F480E0DF91CF91089580E090E08F
:10373000FACF0895DB018F939F930E94FF1BBF91E7
:10374000AF91A29F800D911DA39F900DB29F900DF0
:103750001124089597FB072E16F4009407D077FDE7
:1037600009D00E940A1C07FC05D03EF49095819573
:103770009F4F0895709561957F4F0895A1E21A2E8D
:10378000AA1BBB1BFD010DC0AA1FBB1FEE1FFF1F05
:10379000A217B307E407F50720F0A21BB30BE40B55
:1037A000F50B661F771F881F991F1A9469F760959C
:1037B0007095809590959B01AC01BD01CF01089556
:1037C000052E97FB1EF400940E94F71B57FD07D0AF
:1037D0000E94BE1B07FC03D04EF40C94F71B5095BF
:1037E0004095309521953F4F4F4F5F4F08959095ED
:1037F0008095709561957F4F8F4F9F4F08950E94E0
:10380000241CA59F900DB49F900DA49F800D911D29
:1038100011240895AA1BBB1B51E107C0AA1FBB1F9F
:10382000A617B70710F0A61BB70B881F991F5A954C
:10383000A9F780959095BC01CD010895EE0FFF1F6B
:103840000590F491E02D0994A29FB001B39FC001AF
:10385000A39F700D811D1124911DB29F700D811DBC
:103860001124911D08955058BB27AA270E944B1C74
:103870000C944B1E0E94121E38F00E94191E20F05C
:1038800039F49F3F19F426F40C94E81D0EF4E095EA
:10389000E7FB0C94E21DE92F0E94701E58F3BA1743
:1038A000620773078407950720F079F4A6F50C9456
:1038B000921E0EF4E0950B2EBA2FA02D0B01B9012C
:1038C00090010C01CA01A0011124FF27591B99F096
:1038D000593F50F4503E68F11A16F040A22F232FA2
:1038E000342F4427585FF3CF469537952795A795F2
:1038F000F0405395C9F77EF41F16BA0B620B730B99
:10390000840BBAF09150A1F0FF0FBB1F661F771F09
:10391000881FC2F70EC0BA0F621F731F841F48F4BE
:10392000879577956795B795F7959E3F08F0B0CF47
:103930009395880F08F09927EE0F9795879508952E
:10394000DF93DD27B92FBF7740E85FE31616170630
:1039500048075B0718F4D92F0E949E1E9F938F93F0
:103960007F936F930E946B1FE8E6F0E00E94EB1DCF
:103970000E944B1E2F913F914F915F910E94B91E63
:10398000DD2351F09058A2EA2AED3FE049EC5FE3D5
:10399000D0785D270E944B1CDF910C944B1E0E9437
:1039A000BE1D08F481E008950E94221EE3950C9448
:1039B0005C1E0E94ED1C0C944B1E0E94191E58F0B8
:1039C0000E94121E40F029F45F3F29F00C94E21D82
:1039D00051110C94931E0C94E81D0E94701E68F304
:1039E0009923B1F3552391F3951B550BBB27AA27B8
:1039F00062177307840738F09F5F5F4F220F331FF2
:103A0000441FAA1FA9F335D00E2E3AF0E0E832D0B9
:103A100091505040E695001CCAF72BD0FE2F29D0BC
:103A2000660F771F881FBB1F261737074807AB078E
:103A3000B0E809F0BB0B802DBF01FF2793585F4F03
:103A40003AF09E3F510578F00C94E21D0C94931EC1
:103A50005F3FE4F3983ED4F3869577956795B795E5
:103A6000F7959F5FC9F7880F911D9695879597F9F0
:103A70000895E1E0660F771F881FBB1F6217730769
:103A80008407BA0720F0621B730B840BBA0BEE1F7E
:103A900088F7E09508950E94521D6894B1110C9426
:103AA000931E08950E94781E88F09F5798F0B92FB2
:103AB0009927B751B0F0E1F0660F771F881F991F63
:103AC0001AF0BA95C9F714C0B13091F00E94921E55
:103AD000B1E008950C94921E672F782F8827B85F65
:103AE00039F0B93FCCF3869577956795B395D9F7BB
:103AF0003EF490958095709561957F4F8F4F9F4FC5
:103B00000895E89409C097FB3EF4909580957095D0
:103B100061957F4F8F4F9F4F9923A9F0F92F96E919
:103B2000BB279395F695879577956795B795F1118E
:103B3000F8CFFAF4BB0F11F460FF1BC06F5F7F4F2B
:103B40008F4F9F4F16C0882311F096E911C077233D
:103B500021F09EE8872F762F05C0662371F096E846
:103B6000862F70E060E02AF09A95660F771F881F15
:103B7000DAF7880F9695879597F90895990F0008B9
:103B8000550FAA0BE0E8FEEF16161706E807F9072F
:103B9000C0F012161306E407F50798F0621B730BCA
:103BA000840B950B39F40A2661F0232B242B252B4B
:103BB00021F408950A2609F4A140A6958FEF811DEE
:103BC000811D089597F99F6780E870E060E008958F
:103BD0009FEF80EC0895DF93CF931F930F93FF9295
:103BE000EF92DF927B018C01689406C0DA2EEF0120
:103BF0000E94B91EFE01E894A59125913591459149
:103C00005591A6F3EF010E944B1CFE019701A801FC
:103C1000DA9469F7DF90EF90FF900F911F91CF91A9
:103C2000DF91089500240A9416161706180609064F
:103C3000089500240A941216130614060506089522
:103C40000C94E81D0E94781ED8F3E894E0E0BB27AE
:103C50009F57F0F02AED3FE049EC06C0EE0FBB0F96
:103C6000661F771F881F28F0B23A62077307840720
:103C700028F0B25A620B730B840BE3959A9572F796
:103C8000803830F49A95BB0F661F771F881FD2F7D4
:103C900090480C94D51F092E0394000C11F488232E
:103CA00052F0BB0F40F4BF2B11F460FF04C06F5FF4
:103CB0007F4F8F4F9F4F0895EF93E0FF07C0A2EA19
:103CC0002AED3FE049EC5FEB0E944B1C0E944B1E2B
:103CD0000F90039401FC9058E5E9F0E00C94E11F8B
:103CE00057FD9058440F551F59F05F3F71F04795AD
:103CF000880F97FB991F61F09F3F79F08795089592
:103D0000121613061406551FF2CF4695F1DF08C0B0
:103D1000161617061806991FF1CF869571056105CD
:103D200008940895E894BB2766277727CB0197F975
:103D300008950E94BE1D08F48FEF08959B01AC0109
:103D400060E070E080E89FE30C94D91C0E94B91EEB
:103D50000C944B1E0E94121E38F00E94191E20F077
:103D6000952311F00C94E21D0C94E81D11240C9481
:103D7000931E0E94701E70F3959FC1F3950F50E043
:103D8000551F629FF001729FBB27F00DB11D639F0D
:103D9000AA27F00DB11DAA1F649F6627B00DA11DB3
:103DA000661F829F2227B00DA11D621F739FB00D59
:103DB000A11D621F839FA00D611D221F749F3327C9
:103DC000A00D611D231F849F600D211D822F762F62
:103DD0006A2F11249F5750409AF0F1F088234AF03F
:103DE000EE0FFF1FBB1F661F771F881F91505040AB
:103DF000A9F79E3F510580F00C94E21D0C94931E90
:103E00005F3FE4F3983ED4F3869577956795B79531
:103E1000F795E7959F5FC1F7FE2B880F911D96954B
:103E2000879597F90895FA01EE0FFF1F3096210547
:103E30003105A1F16115710561F48038BFE39B077D
:103E400049F168949038810561F08038BFEF9B0795
:103E500041F099234AF5FF3FE1053105210519F1AC
:103E6000E8940894E795D901AA2329F4AB2FBE2F33
:103E7000F85FD0F310C0FF5F70F4A695E0F7F73954
:103E800050F019F0FF3A38F49F779F930DD00F90C0
:103E900007FC9058089546F00C94E81D60E070E02F
:103EA00080E89FE308954FE79F775F934F933F9399
:103EB0002F930E9437202F913F914F915F910E9445
:103EC000A61E0C94A11F9F930E94221E0F9007FC18
:103ED000EE5F0C945C1E9B01AC010C94A61EDF935C
:103EE000D92F0E94221EE695D7952AED3FE049E49E
:103EF0005FE3B33A6207730784079507D7953AF0F3
:103F0000A2EA49EC90680E944B1C0E944B1EE3EB16
:103F1000F0E00E94E11FDD0F13F00E949E1EDD0FF6
:103F20000BF49058DF9108950E94BE1D880B990BE9
:103F3000089529F416F00C94E21D0C94921E0C9432
:103F4000E81D0E94781EA8F39638A0F707F80F9294
:103F5000E8942BE33AEA48EB5FE70E94BC1E0F921D
:103F60000F920F924DB75EB70F920E947F20E6ED41
:103F7000F0E00E94EB1D4F915F91EF91FF91E5956D
:103F8000EE1FFF1F49F0FE57E0684427EE0F441F65
:103F9000FA95E1F74195550B0E94F91F0F9007FE26
:103FA0000C949E1E08959F3F31F0915020F4879508
:103FB00077956795B795880F911D9695879597F991
:103FC00008959F938F937F936F93FF93EF939B013C
:103FD000AC010E94A61EEF91FF910E94EB1D2F9154
:103FE0003F914F915F910C94A61E0C94E21D0C948E
:103FF000D31F0E94781ED8F39923C9F3940F511D43
:10400000A3F39150504094F059F0882332F0660F9A
:10401000771F881F91505040C1F79E3F51052CF7E4
:10402000880F911D9695879597F908955F3FACF09D
:10403000983E9CF0BB27869577956795B79508F4D1
:10404000B1609395C1F7BB0F58F711F460FFE8CF4B
:104050006F5F7F4F8F4F9F4FE3CF0C94931E16F0EF
:104060000C94D31F0C94E81D68940C94E21D0E94DC
:10407000781EA8F39923C1F3AEF3DF93CF931F9378
:104080000F93FF92C92FDD2788232AF02197660F0F
:10409000771F881FDAF720E030E040E85FEB9FE30E
:1040A000883920F0803E38F021968F770E94341CAA
:1040B000EEEFF0E004C00E94341CEBE2F1E00E945D
:1040C000EB1D8B01BE01EC01FB2E6F57710975953D
:1040D000771F880B990B0E94831D28E132E741E38B
:1040E0005FE30E94B91EAF2D9801AE01FF900F91C2
:1040F0001F91CF91DF910E944B1C0C944B1EFA0133
:10410000DC01AA0FBB1F9B01AC01BF5728F422277B
:1041100033274427507820C0B75190F4AB2F0024A8
:10412000469537952795011CA395D2F3002071F091
:10413000220F331F441FB395DAF30ED00C94331CB7
:1041400061307105A0E88A07B94630F49B01AC01E3
:104150006627772788279078309621F0208331834F
:10416000428353830895EF920F931F93CF93DF936E
:10417000E80134E047FD34E1042E000C550B57FFF5
:1041800003C0519541955109E32E022F242FAE0112
:104190000E942925CE01DF91CF911F910F91EF90C1
:1041A00008950F931F93CF93DF938230910510F4FE
:1041B00082E090E0E0917005F091710530E020E040
:1041C000B0E0A0E0309799F42115310509F44AC018
:1041D000281B390B24303105D8F58A819B81611564
:1041E000710589F1FB0193838283FE0111C0408137
:1041F00051810281138148175907E0F04817590788
:1042000099F4109761F012960C93129713961C93E1
:104210003296CF01DF91CF911F910F9108950093B6
:10422000700510937105F4CF2115310551F0421737
:10423000530738F0A901DB019A01BD01DF01F80144
:10424000C1CFEF01F9CF9093710580937005CDCF69
:10425000FE01E20FF31F81939193225031093983BC
:104260002883D7CF20916E0530916F05232B41F421
:10427000209102013091030130936F0520936E0568
:1042800020910001309101012115310541F42DB734
:104290003EB74091040150910501241B350BE0917C
:1042A0006E05F0916F05E217F307A0F42E1B3F0B8C
:1042B0002817390778F0AC014E5F5F4F2417350798
:1042C00048F04E0F5F1F50936F0540936E0581932A
:1042D00091939FCFF0E0E0E09CCFCF93DF930097E6
:1042E000E9F0FC01329713821282A0917005B0911F
:1042F0007105ED0130E020E01097A1F420813181BB
:10430000820F931F20916E0530916F052817390792
:1043100009F061C0F0936F05E0936E05DF91CF91D6
:104320000895EA01CE17DF07E8F54A815B819E0117
:1043300041155105B1F7E901FB83EA834991599190
:10434000C40FD51FEC17FD0761F48081918102969F
:10435000840F951FE90199838883828193819B83D0
:104360008A83F0E0E0E012968D919C91139700977C
:10437000B9F52D913C911197CD010296820F931FB3
:1043800020916E0530916F052817390739F630975F
:1043900051F51092710510927005B0936F05A093BE
:1043A0006E05BCCFD383C28340815181840F951F9A
:1043B000C817D90761F44E5F5F4F88819981480F14
:1043C000591F518340838A819B8193838283211566
:1043D000310509F0B0CFF0937105E09370059ECFE1
:1043E000FD01DC01C0CF13821282D7CF8F929F9242
:1043F000AF92BF92CF92DF92EF92FF92CF93DF9373
:10440000EC01688179818A819B8161157105810543
:10441000910521F464E279ED8BE597E02DE133EF2E
:1044200041E050E00E94E01B49015A019B01AC01B0
:10443000A7EAB1E40E94FF1B6B017C01ACEEB4EF74
:10444000A50194010E94A227C60ED71EE81EF91EE0
:10445000F7FE06C081E0C81AD108E10880E8F80A32
:10446000C882D982EA82FB82C701B6019F77DF91B9
:10447000CF91FF90EF90DF90CF90BF90AF909F9043
:104480008F9008958F929F92AF92BF92CF92DF92BA
:10449000EF92FF92609106017091070180910801EF
:1044A00090910901611571058105910521F464E27E
:1044B00079ED8BE597E02DE133EF41E050E00E948C
:1044C000E01B49015A019B01AC01A7EAB1E40E943B
:1044D000FF1B6B017C01ACEEB4EFA50194010E94BF
:1044E000A227C60ED71EE81EF91EF7FE06C081E001
:1044F000C81AD108E10880E8F80AC0920601D092F3
:104500000701E0920801F0920901C701B6019F7707
:10451000FF90EF90DF90CF90BF90AF909F908F90E3
:1045200008956093060170930701809308019093AA
:1045300009010895B0E0A0E0E0EAF2E20C94A927B6
:104540008C01009751F4CB010E94D1208C01C8014D
:10455000CDB7DEB7E0E10C94C527FC01E60FF71FED
:104560009C0122503109E217F30708F49DC0D901DC
:10457000CD91DC911197C617D70798F0C530D105BA
:1045800030F3CE0104978617970708F3C61BD70BA5
:104590002297C193D1936D937C93CF010E946D219B
:1045A000D6CF5B01AC1ABD0A4C018C0E9D1EA091AA
:1045B0007005B0917105512C412CF12CE12C109714
:1045C00031F580916E0590916F058815990509F078
:1045D0005CC04616570608F058C0809100019091C3
:1045E0000101009741F48DB79EB7409104015091AD
:1045F0000501841B950BE817F90708F055C0F093E7
:104600006F05E0936E05F90171836083A0CF8D91F2
:104610009C91119712966C90129713967C90139719
:10462000A815B90559F56C0142E0C40ED11CCA1495
:10463000DB0420F1AC014A195B09DA0112961597E7
:1046400080F06282738251834083D9016D937C93A1
:10465000E114F10471F0D7011396FC93EE931297D5
:1046600076CF22968C0F9D1FF90191838083F301F1
:10467000EFCFF0937105E093700569CF48165906A6
:1046800008F42C017D01D3019ACFCB010E94D120E7
:104690007C01009749F0AE01B8010E949E24C80138
:1046A0000E946D21870153CF10E000E050CFB0E0B1
:1046B000A0E0EDE5F3E20C94A8275C016B017A0120
:1046C0006115710519F0FB0191838083E114F104F8
:1046D00051F0C7010297839730F040E030E020E0CE
:1046E00090E072C05E01E5012196F5011081812FF5
:1046F00090E00E949524892BA9F71D3201F521969F
:10470000F501118101E0E114F10409F4DAC0F0E1EE
:10471000EF16F10409F082C0103359F488818F7DBF
:10472000883509F076C0198122960260F0E1EF2EFB
:10473000F12C812C912CA12C88E0B82E8CC01B323E
:1047400021F4E5012296F501118100E0DCCFEAE0D9
:10475000EE16F10409F4BBC0F0E1EF16F10409F024
:104760006DC0E7CF78E0E72EF12C812C912CA12CA5
:1047700060E1B62E70C03FE9310F3A3128F439EAD2
:10478000332E80C021E09AC0302F3170C114D10483
:1047900031F0222309F12197F601D183C08327FF4D
:1047A00021C060E070E080E090E8311104C06FEF5C
:1047B0007FEF8FEF9FE722E230E030937305209385
:1047C0007205462F372F282F642F732F822FCDB7D6
:1047D000DEB7E1E10C94C42701FF04C02297F60183
:1047E000D183C083332341F0909580957095619576
:1047F0007F4F8F4F9F4FE5CF97FFE3CF82E290E04F
:1048000090937305809372056FEF7FEF8FEF9FE7B3
:10481000D8CF10E3E114F10409F4A4CF28E0E216A4
:10482000F10409F4A2CF0CF092CF812C912CA12C91
:10483000E0E4BE2E82E0E816F10469F060E070E08A
:1048400080E090E897010F2C000C440B550B0E9460
:10485000BE1B49015A0120E060E070E0CB01270156
:104860000F2C000C66087708FE0150ED352E310E36
:1048700039E0331540F43FEB310F3A3108F07BCF8C
:1048800049EC342E310E3E141F040CF07DCF27FD71
:1048900015C086169706A806B90678F0A3019201FE
:1048A0000E949A1B630D711D811D911D6130710560
:1048B000810520E8920708F465CF2FEF219610813B
:1048C000D3CF103309F42ACF2AE0E22EF12C9CEC4E
:1048D000892E982CA82C9CE0B92EBDCF1F93FC01EB
:1048E00099278827BC01E89411911032E9F3193017
:1048F00010F01E30C8F31B3251F01D3249F4689499
:1049000006C00E94CD24610F711D811D911D119162
:1049100010531A30B0F33EF49095809570956195E0
:104920007F4F8F4F9F4F1F91089591110C946027D7
:10493000803219F089508550C8F70895FB01DC01D9
:1049400002C001900D9241505040D8F70895FB01EC
:10495000DC018D91019080190110D9F3990B089514
:10496000FB01DC0101900D920020E1F70895453232
:10497000510520F4423010F00C94C224FB01108247
:10498000CB010895BB274A3031F4992322F4BDE2CC
:10499000909581959F4F0C941025592F482F372FB4
:1049A000262F660F771F881F991F660F771F881F96
:1049B000991F620F731F841F951F660F771F881F33
:1049C000991F08952532310520F4223010F00C94FF
:1049D000ED24FA011082CA010895BB27FA01A62F1F
:1049E0006217710581059105330B30FB66F0AA272C
:1049F000660F771F881F991FAA1FA21710F0A21B0E
:104A000063953850A9F7A05DAA3308F0A95DA1937A
:104A100036F7B111B1931082CA010C946327BB27FA
:104A2000FB015527AA27880F991FAA1FA41710F06A
:104A3000A41B83955051B9F7A05DAA3308F0A95D76
:104A4000A193009779F7B111B1931192CB010C9416
:104A50006327A9E0B0E0EFE2F5E20C94AD276A012C
:104A6000F22EB02E102FFBE3AF2EA01608F41BE39E
:104A70001F5F012F27E0AE014F5F5F4F0E94882626
:104A8000BC018981982F9970913009F43FC09BE255
:104A9000E1FC04C09E2D9170E0FC3AC05E2D507187
:104AA000E82FE87083FF46C084E0911101C083E0E5
:104AB000EF2DE81B8F1508F0E0E0D6018E2F20E2E5
:104AC000552351F1992329F0D6019C93C6010196F3
:104AD0006C0196012D5F3F4FE2FE24C08EE4D601AB
:104AE0008C9391E411969C93119712968C93D90113
:104AF0008E2F90E281111BC0E20FF32FF11D108267
:104B00008EEF9FEF2996ECE00C94C9279DE2C6CF6B
:104B100090E2C4CF2D9381508111FCCFCE0ED11CD9
:104B2000E0E0D0CF8EE6D6018C9391E6DBCF9D936B
:104B30008150E0CF482F447082FF3DC084E0911146
:104B400001C083E08F1510F4EF2DE81BD6018E2FE6
:104B500020E2552309F1992329F0D6019C93C6013F
:104B600001966C0196012D5F3F4FE2FE1BC089E468
:104B7000D6018C938EE411968C93119786E412964D
:104B80008C93D9018E2F90E2882309F4B5CF9D93A1
:104B90008150FACF2D9381508111FCCFCE0ED11CC4
:104BA000E0E0D9CF89E6D6018C938EE611968C93FE
:104BB000119786E6E4CF9B0177FF02C030E020E04A
:104BC000A1E0B0E0911102C0B0E0A0E0F90131969F
:104BD000AE0FBF1F8B2C912CBB2009F461C0540178
:104BE000EFEFAE1ABE0AAA0DBB1DFA161B0619F08E
:104BF00014F04F2D4A1B511188C0E3FC59C07601B7
:104C0000A42FB0E2A1114FC0C40ED11C992309F406
:104C10005BC040E0D6011196F60190836D015523EB
:104C200009F448C0012F060F9A81582F507184FF54
:104C300003C0913309F4015010160CF047C009303D
:104C400008F008E0EEE2FE2E5B01A01AB108850133
:104C50009194819491082F3F320729F4D601FC9258
:104C6000F60131966F016217730794F1021713076B
:104C70007CF5DB01A21BB30BAA24A394B12CAC0ED0
:104C8000BD1EAA0DBB1D11968C9121503109D60174
:104C9000119628153905F4F0F60180836D01DBCFFC
:104CA000B12CA12CA0CFF701B1937F01A150AACFC5
:104CB0009111B0CFD601942F50E302C05D93915073
:104CC0009111FCCFC40ED11C40E0ACCF01E0BACFB3
:104CD00080E3DBCF6217730731F4963388F49533A2
:104CE00011F4552369F0F6018083FD01842F90E2D1
:104CF000811108C0A40FB11D1C9290E080E002CF8A
:104D000081E3F1CF91938150F3CF911183CF8ACF7B
:104D1000283008F027E03327DA01990F311D87FD8D
:104D2000916000966105710539F432602E5F3D9304
:104D300030E32A95E1F708959F3F30F08038710500
:104D4000610509F03C5F3C5F3D93913008F080685D
:104D5000911DDF93CF931F930F93FF92EF92192F23
:104D6000987F9695E92F96959695E90FFF27EE5433
:104D7000FE4F99273327EE24FF24A701E701059072
:104D80000894079428F4360FE71EF81E491F511D9A
:104D9000660F771F881F991F0694A1F70590079447
:104DA00028F4E70EF81E491F561FC11D770F881FF4
:104DB000991F661F0694A1F70590079428F4F80E32
:104DC000491F561FC71FD11D880F991F661F771FC8
:104DD0000694A1F70590079420F4490F561FC71FAA
:104DE000D81F990F661F771F881F0694A9F7849113
:104DF0001095177041F0D695C79557954795F7943C
:104E0000E7941A95C1F7E8E5F1E0689415901591DB
:104E100035916591959105907FE27395E118F10ABE
:104E2000430B560BC90BD009C0F7E10CF11E431F11
:104E3000561FC91FD01D7EF4703311F48A95E6CF3A
:104E4000E894015030F0080F0AF40027021708F424
:104E5000202F2395022F7A3328F079E37D932A952A
:104E6000E9F710C07D932A9589F606949795679582
:104E7000379517951794E118F10A430B560BC90B98
:104E8000D00998F023957E9173957A3308F070E3FA
:104E90007C932013B8F77E9170617D9330F08395F9
:104EA00071E37D9370E32A95E1F71124EF90FF9071
:104EB0000F911F91CF91DF91992787FD90950895CC
:104EC000992788270895DC01FC01672F71917723CA
:104ED000E1F7329704C07C916D9370836291AE17B5
:104EE000BF07C8F30895DC01CB01FC01F999FECF9F
:104EF00006C0F2BDE1BDF89A319600B40D92415062
:104F00005040B8F70895F999FECF92BD81BDF89A47
:104F1000992780B50895A6E1B0E044E050E00C94F4
:104F20007527262FF999FECF1FBA92BD81BD20BDEE
:104F30000FB6F894FA9AF99A0FBE01960895B7FF42
:104F40000C94FF1B0E94FF1B821B930B08952F9252
:104F50003F924F925F926F927F928F929F92AF9209
:104F6000BF92CF92DF92EF92FF920F931F93CF9356
:104F7000DF93CDB7DEB7CA1BDB0B0FB6F894DEBFED
:104F80000FBECDBF09942A88398848885F846E8413
:104F90007D848C849B84AA84B984C884DF80EE805D
:104FA000FD800C811B81AA81B981CE0FD11D0FB666
:104FB000F894DEBF0FBECDBFED010895F894FFCF8A
:104FC00000007405800001000000010400B6F32D0C
:104FD00040010001000000484232000100040002CC
:104FE0000001000200F40132000100010002000192
:104FF000006400050001000100020002003200020E
:105000000001000100030004002C010A000100015E
:105010000004000300F40108000100010004000284
:10502000002C011E0001000100050005001900010F
:10503000000200020003000300320001000200032E
:105040000003000200F4013200020002000200032B
:105050000064000200020001000200030090010C45
:10506000000100010003000600F401280001000116
:1050700000020007006400010001000100030005B8
:10508000000000000000000100000000000000001F
:10509000000F000E00D80F49400400030013000C5D
:1050A000000200050006000700080009000A000BC6
:1050B000000C000F00100012001100CD16CD1601DB
:1050C0002D2D2D2D2D2D2D2D2D2D2D2D2D2D2D2D10
:1050D0002D2D2D2D2D2D2D2D2D2D00436F6E66691F
:1050E000672000202D2D2D3E2000557064617465D1
:1050F00064207061747465726E3A2000312E310044
:105100004368617365204563686F205665727369F3
:105110006F6E200064656661756C7473004465662B
:1051200061756C74732073657400636F6E66696774
:105130000076657273696F6E0073746172740073C8
:10514000746F70006469700057726974696E6720CB
:105150004449503A20007265766973696F6E005257
:1051600065766973696F6E3A200072657669736956
:105170006F6E736574004F4E004F464600444950B1
:105180002053657474696E67733A200052616E64CF
:105190006F6D205061747465726E733A20005261B5
:1051A0006D70202620426F776C2044697374696E9D
:1051B00063743A20003D3D3D3D3D3D3D3D3D3D3D1F
:1051C0003D3D3D3D3D3D3D3D3D3D3D3D3D3D3D3D0F
:1051D0003D3D3D3D3D3D3D3D3D3D3D3D3D3D3D3DFF
:1051E0003D3D3D3D3D3D0053544F5050494E472EAF
:1051F0002E0053544F505045440043484153494EAC
:1052000047003D3D3E2000206F66667365743A009E
:1052100020785F7370696E3A0020783A00207370CE
:10522000696E3A0020793A0010022F024A026B029E
:105230008C02AF05AD02010350038301DD0152036F
:1052400000000000C41302156513A4133713511393
:1052500043130D0A006E616E00696E66006F76661C
:0252600000004C
:00000001FF
