:100000000C9469000C9491000C9491000C94910054
:100010000C9491000C9491000C9491000C9491001C
:100020000C9491000C9491000C9491000C9491000C
:100030000C9491000C9491000C9491000C949100FC
:100040000C94490A0C9491000C94F2070C94240827
:100050000C9491000C9491000C9491000C949100DC
:100060000C9491000C949100000000090003020020
:10007000000405080000000000000000000000016E
:10008000020408102040800102040810200102042C
:100090000810204080400404040404040404020204
:1000A000020202020303030303030202030000002F
:1000B0000023002600290000000000250028002B56
:1000C0000000000000240027002A0000A2003F06D4
:1000D000540811241FBECFEFD8E0DEBFCDBF12E021
:1000E000A0E0B1E0E6ECF2E202C005900D92A0348F
:1000F000B107D9F723E0A0E4B2E001C01D92A1341A
:10010000B207E1F710E0C9E6D0E004C02197FE0194
:100110000E94160CC636D107C9F70E943A0A0C9401
:1001200061110C940000FC018FEF80831282118218
:10013000148613868FEF9FEFDC0187839087A1875A
:10014000B287089580E492E00C9493004F925F92FE
:100150006F927F928F929F92AF92BF92CF92DF92D7
:10016000EF92FF92CF93DF93CDB7DEB72A970FB60A
:10017000F894DEBF0FBECDBF9A8789870E94930A8D
:100180000E94450D6B017C01A985BA85D6966D91BB
:100190007D918D919C91D9970E94450D9B01AC0159
:1001A000C701B6010E942B0C20E030E04AE754E47E
:1001B0000E949D0C6B017C01E985FA85FE96808189
:1001C0009181A281B38189839A83AB83BC83E985C2
:1001D000FA85EE5BFF4F2081318142815381BC0162
:1001E000CD010E942C0C4B015C01A985BA85DA96E1
:1001F0008D919D910D90BC91A02D8D839E83AF8399
:10020000B887A5019401C701B6010E948D0D2B018D
:100210003C0120E030E0A9010E94590E87FD35C065
:10022000A301920169817A818B819C810E94590E80
:1002300087FD2BC02D813E814F815885C501B401BA
:100240000E945E0E9B01AC01C701B6010E94980C92
:10025000682F661F6627661FE985FA8584892A96B6
:100260000FB6F894DEBF0FBECDBFDF91CF91FF90E8
:10027000EF90DF90CF90BF90AF909F908F907F9046
:100280006F905F904F900C948A0B60E0E5CF2091C7
:100290009502222381F03FB7F894209195022130F6
:1002A00069F42DB3209393024DB3209194022095CD
:1002B00024232DBB3FBF8CBD9DBD08953093930279
:1002C000FACF8EBD00000DB407FEFDCF8EB50895A8
:1002D0001F93CF93DF93EC01162F60E08B810E9478
:1002E0008A0B8D819E81803127E2920769F4898192
:1002F0000E946101812F0E94610161E08B81DF9189
:10030000CF911F910C948A0B883E23E0920711F441
:100310008881EECF8838934169F78A81E9CF2F929F
:100320003F924F925F926F927F928F929F92AF9285
:10033000BF92CF92DF92EF92FF920F931F93CF93D2
:10034000DF93CDB7DEB72E970FB6F894DEBF0FBEA2
:10035000CDBF9E878D871B0149015A0127013801B6
:100360000E94930AED85FE8586A997A9A0ADB1AD3F
:10037000892B8A2B8B2B09F042C0B101330C880BDF
:10038000990B0E94470DAD85BE85DA966D937D93DE
:100390008D939C93DD97FD01FE9680829182A282CF
:1003A000B382349640825182628273820E94930AA1
:1003B0000E94450DA50194010E942C0C0E94160D6F
:1003C000ED85FE8566AB77AB80AF91AF2E960FB60D
:1003D000F894DEBF0FBECDBFDF91CF911F910F917B
:1003E000FF90EF90DF90CF90BF90AF909F908F9055
:1003F0007F906F905F904F903F902F900895ED8584
:10040000FE85FE96208131814281538129833A8382
:100410004B835C83ED85FE85EE5BFF4F8081918190
:10042000A281B3818D839E83AF83B887AD85BE855E
:10043000DA962D913D914D915C91DD9729873A8710
:100440004B875C870E94930AED85FE85C6A8D7A8D6
:10045000E0ACF1AC9B01AC012C193D094E095F09E0
:1004600069017A012D813E814F81588569817A81A8
:100470008B819C810E942C0C29853A854B855C855B
:100480000E945E0E0E940F0D072E000C880B990B28
:10049000C616D706E806F90608F06FCF97CF4F9239
:1004A0005F926F927F92AF92BF92CF92DF92EF9264
:1004B000FF920F931F93CF93DF93CDB7DEB72C97A7
:1004C0000FB6F894DEBF0FBECDBF6C0166E171E0E0
:1004D00087E992E00E94E1080E94930AF60164A372
:1004E00075A386A397A3E684F78401A512A55601F8
:1004F000FBE2AF0EB11C0F3F110511F00CF08CC0E8
:10050000F60117870687B801C5010E94680161E0FE
:1005100070E080E090E00E94C40AF60182890E94A7
:10052000B80B892B09F06EC0F6010685178580850A
:100530009185081B190B178706876285738584854B
:1005400095852FEF30E040E050E00E94E10BD801AC
:100550000E940E0C2B013C01B801C5010E946801EC
:10056000F60120853185220F331F86859785821BF2
:10057000930B92A781A761E070E080E090E00E9479
:10058000C40AF60110A6411451046104710431F04B
:1005900086859785181619060CF442C064E271E04E
:1005A00087E992E00E94E108E12CF12C00E01FE3D2
:1005B00020E030E040E85FE365E070E0C6010E94C3
:1005C0008F0181E0F60181830E94930AF60164A302
:1005D00075A386A397A3868597852C960FB6F89466
:1005E000DEBF0FBECDBFDF91CF911F910F91FF9066
:1005F000EF90DF90CF90BF90AF907F906F905F9023
:100600004F9008950E94930AF60164A375A386A3F0
:1006100097A30F5F1F4F6FCF412C512C3201B1CFE9
:100620001E141F04FCF49701281B390BC90137FF66
:1006300003C09195819591090697A4F0B701C60171
:100640008B960E9468016AE070E080E090E00E9472
:10065000C40A6BE571E087E992E00E94E108F601C7
:10066000F786E6862AE0B301A201CE0107960E9432
:10067000B20966E771E0CE0101960E946709BE01EA
:10068000695F7F4FCE0101960E940B0A6FE871E00F
:100690000E941E0ABC0187E992E00E94CF08CE01A9
:1006A00001960E94F808CE0107960E94F80819E208
:1006B000E12E1CE5F12E0FE81DE3A801970164E08F
:1006C00070E0C6010E948F017FCF4F925F926F92C0
:1006D0007F928F929F92AF92BF92CF92DF92EF92D2
:1006E000FF920F931F93CF93DF93CDB7DEB72C9775
:1006F0000FB6F894DEBF0FBECDBF26E040E052EC4F
:1007000061E070E087E992E00E949A0765E971E094
:1007100087E992E00E94E1086FEA71E087E992E0E0
:100720000E94E10865E971E087E992E00E94E10832
:1007300061E0809108010E944E0B61E0809106010A
:100740000E944E0B61E0809108010E948A0B62E0DA
:10075000809110010E944E0B62E080910E010E9478
:100760004E0B809110010E94B80B5C0180910E012C
:100770000E94B80B7C0188E8482E83E1582E612C3A
:10078000712C4092120150921301609214017092E8
:100790001501D090060190900701C0900A01809049
:1007A0000B0110910C0100910D0161E0812F0E945D
:1007B0004E0B81E590E00E9447010E94910662E0A5
:1007C0008C2D0E944E0B61E08D2D0E944E0B1092DD
:1007D0004D0210924E0284E690E090935002809376
:1007E0004F0280E197E2909352028093510280ED94
:1007F00097E0909354028093530282E090E09093AC
:1008000056028093550240925702509258026092CD
:10081000590270925A0210925C0210925B0210937D
:100820005D0200935E02C0925F0280926002D092ED
:10083000610290926202109263021092640210921E
:100840006502109266028EE190E0909368028093B8
:1008500067021092690210926A0210926B02109263
:100860006C0210926D0210926E0210926F02109242
:100870007002109271021092720210927302109222
:10088000740210927502109277021092760281E142
:10089000809378021092790210927A0210937B0270
:1008A00000937C0288E893E190937E0280937D021E
:1008B00010927F02109280021092810210928202A6
:1008C0001092830210928402109285021092860286
:1008D00010928702109288021092890210928A0266
:1008E00010928B0210928C0210928D0210928E0246
:1008F00010928F0210929002109291021092920226
:10090000AB2859F484E090E0EF2811F488E090E0FF
:10091000909356028093550204C086E090E0EF2841
:10092000B9F360915502709156024AE0CE010796E4
:100930000E9486096EEC71E0CE0101960E94670963
:10094000BE01695F7F4FCE0101960E940B0ABC0178
:1009500087E992E00E94CF08CE0101960E94F80834
:10096000CE0107960E94F8088FEF9FEF90935002F8
:1009700080934F02909352028093510268EB7BE088
:1009800080E090E00E94C40A8DE492E00E944F0251
:100990002C960FB6F894DEBF0FBECDBFDF91CF917E
:1009A0001F910F91FF90EF90DF90CF90BF90AF908D
:1009B0009F908F907F906F905F904F90089590914F
:1009C000080160E0811101C061E0892F0C948A0B5D
:1009D000CF92DF92EF92FF920F931F93CF930E94DB
:1009E000930A00917102109172022091730230916A
:1009F0007402601B710B820B930B6C32714081058A
:100A0000910508F434C180914D02811104C08DE438
:100A100092E00E94A60080914E02811128C180912F
:100A20005F020E94B80B892B09F0FCC08091630221
:100A300090916402A0916502B0916602892B8A2B85
:100A40008B2B51F40E94930A6093630270936402AB
:100A5000809365029093660280914D0281113BC0A4
:100A60000E94930A00916302109164022091650232
:100A700030916602AB01BC01401B510B620B730B42
:100A80008091670290916802092E000CAA0BBB0BA3
:100A900084179507A607B707D0F4C1E0C0934D02AD
:100AA00061E0809161020E948A0B6EEF71E087E93C
:100AB00092E00E94E108C09375020E94930A60933D
:100AC000690270936A0280936B0290936C0280912A
:100AD0004D028823D1F10E94930A20915302309154
:100AE0005402C0906902D0906A02E0906B02F090CC
:100AF0006C026C197D098E099F096901032E000C97
:100B0000EE08FF08C616D706E806F906F0F4121636
:100B10001306DCF410924D0260E0809161020E94A5
:100B20008A0B64E172E087E992E00E94E1080E948A
:100B3000930A60936D0270936E0280936F0290939C
:100B400070028DE492E00E944F0280914F029091DA
:100B50005002019649F180914D02811125C080918A
:100B60007502882309F10E94930A00916D02109189
:100B70006E0220916F0230917002AB01BC01401BEC
:100B8000510B620B730B80914F0290915002092E12
:100B9000000CAA0BBB0B84179507A607B70720F418
:100BA0008DE492E00E944F02809151029091520296
:100BB000019629F180914D02811129C00E94930A6A
:100BC00000917102109172022091730230917402AF
:100BD000AB01BC01401B510B620B730B80915102A6
:100BE00090915202092E000CAA0BBB0B841795079B
:100BF000A607B70720F48DE492E00E944F0280918F
:100C00004D02811104C08DE492E00E94A600809103
:100C10004D02CF911F910F91FF90EF90DF90CF90F9
:100C20000C94DF0410926302109264021092650229
:100C30001092660280914D02882309F486CF1092AB
:100C40004D0260E0809161020E948A0B6AE072E0CE
:100C500087E992E00E94E1080E94930A60936D0286
:100C600070936E0280936F029093700230CFCF9199
:100C70001F910F91FF90EF90DF90CF900895EDE4DA
:100C8000F2E01082118284E690E09383828380E117
:100C900097E29583848380ED97E09783868382E053
:100CA00090E09187808717861686168A178A108E9D
:100CB000118E8EE190E0938F828F148E158E168E9A
:100CC000178E10A211A212A213A214A215A216A28C
:100CD00017A210A612A611A681E183A714A615A635
:100CE00017A616A611AA10AA12AA13AA14AA15AA20
:100CF00016AA17AA10AE11AE12AE13AE14AE15AEF0
:100D000010928B0210928C0210928D0210928E0221
:100D100010928F0210929002109291021092920201
:100D20000895CF93CFB7F89480919602811127C090
:100D3000E0EAF0E08491E9E8F0E09491E82FF0E057
:100D4000EE0FFF1FEF53FF4FA591B491EC91E923F4
:100D500021F461E08AE00E948A0B61E08AE00E944F
:100D60004E0B8CB580618CBD8CB580648CBD61E010
:100D70008DE00E944E0B61E08BE00E944E0B809153
:100D800096028F5F80939602CFBFCF910895FC01AA
:100D9000918D228D892F90E0805C9F4F821B91095D
:100DA0008F7399270895FC01918D828D981731F0EA
:100DB000828DE80FF11D858D90E008958FEF9FEFF4
:100DC0000895FC01918D828D981761F0A28DAE0F70
:100DD000BF2FB11D5D968C91928D9F5F9F73928FF7
:100DE00090E008958FEF9FEF0895FC01538D448D9F
:100DF000252F30E0842F90E0821B930B541710F0C6
:100E0000CF960895019708958AE498E0892B49F0D8
:100E100080E090E0892B29F00E944A0881110C940F
:100E200000000895FC01A48DA80FB92FB11DA35A8D
:100E3000BF4F2C91848D90E001968F739927848FFA
:100E4000A689B7892C93A089B1898C9180648C93F1
:100E5000938D848D981306C00288F389E02D8081DC
:100E60008F7D80830895CF93DF93EC01888D882355
:100E7000B9F0AA89BB89E889F9898C9185FD03C0FD
:100E8000808186FD0DC00FB607FCF7CF8C9185FFE2
:100E9000F2CF808185FFEDCFCE010E941207E9CF0E
:100EA000DF91CF910895EF92FF920F931F93CF930D
:100EB000DF93EC0181E0888F9B8D8C8D981316C099
:100EC000E889F989808185FF11C0EE89FF896083F7
:100ED000E889F98980818064808381E090E0DF91F6
:100EE000CF911F910F91FF90EF900895F62E0B8DEB
:100EF00010E00F5F1F4F0F731127E02E8C8D8E11A6
:100F00000CC00FB607FCFACFE889F989808185FF0C
:100F1000F5CFCE010E941207F1CFEB8DEC0FFD2F24
:100F2000F11DE35AFF4FF0820B8FEA89FB89808124
:100F30008062D2CFCF92DF92EF92FF921F93CF9336
:100F4000DF93EC016A017B01122FE889F98982E0C5
:100F50008083C11481EED806E104F104A1F060E0C1
:100F600079E08DE390E0A70196010E94E10B21500A
:100F7000310941095109569547953795279521150E
:100F800080E1380798F0E889F989108260E874E810
:100F90008EE190E0A70196010E94E10B21503109FA
:100FA000410951095695479537952795EC85FD855B
:100FB0003083EE85FF852083188EEC89FD891083B0
:100FC000EA89FB89808188698083EA89FB8980813D
:100FD0008F7D8083DF91CF911F91FF90EF90DF9005
:100FE000CF9008951F920F920FB60F9211242F9356
:100FF0008F939F93EF93FF93E091A702F091A80244
:101000008081E091AD02F091AE0282FD1BC0908123
:101010008091B0028F5F8F732091B102821741F0EF
:10102000E091B002F0E0E956FD4F958F8093B00259
:10103000FF91EF919F918F912F910F900FBE0F9085
:101040001F9018958081F4CF1F920F920FB60F92C8
:1010500011242F933F934F935F936F937F938F93BD
:101060009F93AF93BF93EF93FF9387E992E00E9422
:101070001207FF91EF91BF91AF919F918F917F9157
:101080006F915F914F913F912F910F900FBE0F90F5
:101090001F90189587E992E00E94C70621E0892BEE
:1010A00009F420E0822F0895E7E9F2E0138212822A
:1010B00088EE93E0A0E0B0E084839583A683B783B5
:1010C0008EE292E09183808385EC90E0958784871F
:1010D00084EC90E09787868780EC90E0918B808B02
:1010E00081EC90E0938B828B82EC90E0958B848BEB
:1010F00086EC90E0978B868B118E128E138E148E59
:101100000895AF92BF92CF92DF92EF92FF920F932A
:101110001F93CF93DF936C017B018B01040F151F8D
:10112000EB015E01AE18BF08C017D10759F06991F5
:10113000D601ED91FC910190F081E02DC601099559
:10114000892B79F7C501DF91CF911F910F91FF9006
:10115000EF90DF90CF90BF90AF900895FB0101908A
:101160000020E9F73197AF01461B570BDC01ED91E9
:10117000FC910280F381E02D0994DB0114964D91DE
:101180005C9115976D917C91DC01ED91FC91028051
:10119000F381E02D09946CE372E00C94AE080F9398
:1011A0001F93CF93DF93EC010E94BD088C01CE0109
:1011B0000E94CB08800F911FDF91CF911F910F915B
:1011C00008950F931F93CF93DF938C01D0E0C0E07D
:1011D0006115710519F00E94AE08EC01C8010E946A
:1011E000CB088C0F9D1FDF91CF911F910F91089518
:1011F000FC01808191810C94670FCF93DF93EC0108
:1012000088819981009711F00E94670F19821882D6
:101210001D821C821B821A82DF91CF9108950F9349
:101220001F93CF93DF93EC018B016F5F7F4F88811A
:1012300099810E94F00F009751F0998388831B8356
:101240000A8381E0DF91CF911F910F91089580E093
:10125000F9CFCF93DF93EC0188819981892B49F0F5
:101260008A819B818617970720F081E0DF91CF91DB
:101270000895CE010E940F098823C1F38C819D81BE
:10128000892B99F7E881F9811082EFCFEF92FF92D5
:101290000F931F93CF93DF93EC017B018A01BA0177
:1012A0000E94290981110BC0CE010E94FD08CE01C8
:1012B000DF91CF911F910F91FF90EF9008951D83C3
:1012C0000C83B701888199810E94B610F0CFFC0190
:1012D00011821082138212821582148261157105A7
:1012E00051F0FB0101900020E9F73197AF01461B57
:1012F000570B0C9446090895FB0101900020E9F773
:101300003197AF01461B570B0C9446090F931F935F
:10131000CF93DF93CDB7DEB762970FB6F894DEBFF9
:101320000FBECDBF8C01CB01F80111821082138258
:1013300012821582148250E0BE016F5F7F4F0E94BF
:10134000BD10BE016F5F7F4FC8010E947C0962968D
:101350000FB6F894DEBF0FBECDBFDF91CF911F91C6
:101360000F9108950F931F93CF93DF93CDB7DEB7FF
:10137000A1970FB6F894DEBF0FBECDBF8C01CB0195
:10138000BA01F8011182108213821282158214822E
:1013900030E0AE014F5F5F4F0E94D310BE016F5F20
:1013A0007F4FC8010E947C09A1960FB6F894DEBF5A
:1013B0000FBECDBFDF91CF911F910F910895EF9296
:1013C000FF920F931F93CF93DF936115710541F443
:1013D00080E0DF91CF911F910F91FF90EF900895E2
:1013E00041155105B1F07B01EC010C811D81040F09
:1013F000151FB8010E942909882351F328813981DA
:101400008C819D81B701820F931F0E94B6101D83AE
:101410000C8381E0DECFCF93DF93EC01FB014481AD
:101420005581608171810E94DF09811103C0CE0165
:101430000E94FD08CE01DF91CF910895CF93DF93F5
:10144000EC016115710539F4CE010E94FD08CE0151
:10145000DF91CF910895FB0101900020E9F73197CA
:10146000AF01461B570B0E94DF09882369F3EFCFBA
:10147000089508950E94FD0A0E94390A0E9465039A
:10148000C4E0D7E00E94E8042097E1F30E9404073B
:10149000F9CF1F920F920FB60F9211242F933F9303
:1014A0008F939F93AF93BF938091390390913A03A9
:1014B000A0913B03B0913C033091380323E0230F0C
:1014C0002D3768F126E8230F0296A11DB11D209348
:1014D00038038093390390933A03A0933B03B0936E
:1014E0003C038091340390913503A0913603B09171
:1014F00037030196A11DB11D8093340390933503EA
:10150000A0933603B0933703BF91AF919F918F9112
:101510003F912F910F900FBE0F901F90189501963D
:10152000A11DB11DD4CF2FB7F894609139037091EC
:101530003A0380913B0390913C032FBF08953FB73E
:10154000F8948091340390913503A0913603B091C3
:10155000370326B5A89B05C02F3F19F00196A11DA2
:10156000B11D3FBFBA2FA92F982F8827BC01CD01ED
:10157000620F711D811D911D42E0660F771F881F4C
:10158000991F4A95D1F708958F929F92AF92BF927B
:10159000CF92DF92EF92FF926B017C010E949F0A33
:1015A0004B015C01C114D104E104F104E9F00E9493
:1015B000380A0E949F0A681979098A099B09683EBE
:1015C00073408105910570F321E0C21AD108E1084A
:1015D000F10888EE880E83E0981EA11CB11CC1148E
:1015E000D104E104F10429F7FF90EF90DF90CF9050
:1015F000BF90AF909F908F900895789484B583604A
:1016000084BD85B5836085BDEEE6F0E080818160B4
:101610008083E1E8F0E082E08083808181608083E4
:10162000E0E8F0E0808181608083E1EBF0E08081A0
:1016300084608083E0EBF0E080818160808387E8D4
:1016400080937A001092C1000895843081F028F4CC
:101650008230E9F08330F9F00895883071F08930F4
:1016600091F08530B9F4809180008F7D03C0809126
:1016700080008F778093800008958091B0008F77ED
:101680008093B00008958091B0008F7DF9CF84B52C
:101690008F7784BD089584B58F7DFBCFCF93DF9383
:1016A00090E0FC01E158FF4F24918A569F4FFC01C6
:1016B00084918823C9F090E0880F991FFC01EF53B3
:1016C000FF4FA591B491FC01E954FF4FC591D4910E
:1016D00061110DC09FB7F8948C91209582238C9353
:1016E0008881282328839FBFDF91CF91089562309E
:1016F00051F49FB7F8943C91822F809583238C936B
:10170000E8812E2BEFCF8FB7F894EC912E2B2C93F2
:101710008FBFEACF1F93CF93DF93282F30E0F901DB
:10172000E859FF4F8491F901E158FF4FD491F90135
:10173000EA56FF4FC491CC23A9F0162F81110E94C5
:10174000250BEC2FF0E0EE0FFF1FE954FF4FA591A2
:10175000B4918FB7F894EC91111108C0D095DE23A5
:10176000DC938FBFDF91CF911F910895DE2BF8CFCF
:10177000CF93DF93282F30E0F901E859FF4F849190
:10178000F901E158FF4FD491F901EA56FF4FC49196
:10179000CC23A1F081110E94250BEC2FF0E0EE0F7D
:1017A000FF1FE355FF4FA591B491EC91ED2381E02C
:1017B00090E009F480E0DF91CF91089580E090E01F
:1017C000FACFA1E21A2EAA1BBB1BFD010DC0AA1F56
:1017D000BB1FEE1FFF1FA217B307E407F50720F09A
:1017E000A21BB30BE40BF50B661F771F881F991F15
:1017F0001A9469F760957095809590959B01AC015E
:10180000BD01CF0108950E941C0CA59F900DB49FAF
:10181000900DA49F800D911D11240895B7FF0C9485
:10182000030C0E94030C821B930B0895EE0FFF1F05
:101830000590F491E02D0994A29FB001B39FC001DF
:10184000A39F700D811D1124911DB29F700D811DEC
:101850001124911D08955058BB27AA270E94430CBC
:101860000C941F0E0E94110E38F00E94180E20F0EA
:1018700039F49F3F19F426F40C940E0E0EF4E09503
:10188000E7FB0C94FA0DE92F0E94300E58F3BA17BB
:10189000620773078407950720F079F4A6F50C9486
:1018A000520E0EF4E0950B2EBA2FA02D0B01B901AC
:1018B00090010C01CA01A0011124FF27591B99F0C6
:1018C000593F50F4503E68F11A16F040A22F232FD2
:1018D000342F4427585FF3CF469537952795A79522
:1018E000F0405395C9F77EF41F16BA0B620B730BC9
:1018F000840BBAF09150A1F0FF0FBB1F661F771F3A
:10190000881FC2F70EC0BA0F621F731F841F48F4EE
:10191000879577956795B795F7959E3F08F0B0CF77
:101920009395880F08F09927EE0F9795879508955E
:101930000E94D60D08F481E008950E94B10C0C9429
:101940001F0E0E94180E58F00E94110E40F029F44C
:101950005F3F29F00C94FA0D51110C94530E0C9426
:101960000E0E0E94300E68F39923B1F3552391F3C4
:10197000951B550BBB27AA2762177307840738F0FE
:101980009F5F5F4F220F331F441FAA1FA9F335D05B
:101990000E2E3AF0E0E832D091505040E695001C0F
:1019A000CAF72BD0FE2F29D0660F771F881FBB1FC9
:1019B000261737074807AB07B0E809F0BB0B802DA7
:1019C000BF01FF2793585F4F3AF09E3F510578F0D3
:1019D0000C94FA0D0C94530E5F3FE4F3983ED4F34D
:1019E000869577956795B795F7959F5FC9F7880FA7
:1019F000911D9695879597F90895E1E0660F771FF9
:101A0000881FBB1F621773078407BA0720F0621B89
:101A1000730B840BBA0BEE1F88F7E09508950E94B4
:101A2000160D6894B1110C94530E08950E94380E4F
:101A300088F09F5798F0B92F9927B751B0F0E1F08F
:101A4000660F771F881F991F1AF0BA95C9F714C03F
:101A5000B13091F00E94520EB1E008950C94520EF4
:101A6000672F782F8827B85F39F0B93FCCF3869578
:101A700077956795B395D9F73EF4909580957095D5
:101A800061957F4F8F4F9F4F0895E89409C097FB52
:101A90003EF490958095709561957F4F8F4F9F4F45
:101AA0009923A9F0F92F96E9BB279395F695879589
:101AB00077956795B795F111F8CFFAF4BB0F11F44C
:101AC00060FF1BC06F5F7F4F8F4F9F4F16C08823F3
:101AD00011F096E911C0772321F09EE8872F762F29
:101AE00005C0662371F096E8862F70E060E02AF06A
:101AF0009A95660F771F881FDAF7880F9695879556
:101B000097F908950E94110E20F019F00E94180E06
:101B100050F40C940E0E0C94530EE92F0E94300ECC
:101B200088F35523B1F3E7FB621773078407950722
:101B3000A8F189F3E92FFF2788232AF03197660F50
:101B4000771F881FDAF7952F5527442332F09150DD
:101B50005040220F331F441FD2F7BB27E91BF50B60
:101B6000621B730B840BB109B1F222F4620F731F75
:101B7000841FB11D31972AF0660F771F881FBB1F86
:101B8000EFCF9150504062F041F0882332F0660F61
:101B9000771F881F91505040C1F793950C94000E09
:101BA0008695779567959F5FD9F7F7CF990F0008CE
:101BB000550FAA0BE0E8FEEF16161706E807F9071F
:101BC000C0F012161306E407F50798F0621B730BBA
:101BD000840B950B39F40A2661F0232B242B252B3B
:101BE00021F408950A2609F4A140A6958FEF811DDE
:101BF000811D089597F99F6780E870E060E008957F
:101C00009F3F31F0915020F4879577956795B79570
:101C1000880F911D9695879597F908959FEF80EC11
:101C2000089500240A941616170618060906089542
:101C300000240A9412161306140605060895092EA8
:101C40000394000C11F4882352F0BB0F40F4BF2B17
:101C500011F460FF04C06F5F7F4F8F4F9F4F089557
:101C600057FD9058440F551F59F05F3F71F047954D
:101C7000880F97FB991F61F09F3F79F08795089532
:101C8000121613061406551FF2CF4695F1DF08C051
:101C9000161617061806991FF1CF8695710561056E
:101CA00008940895E894BB2766277727CB0197F916
:101CB00008950E94D60D08F48FEF08950E94710ECA
:101CC0000C941F0E0E94110E38F00E94180E20F086
:101CD000952311F00C94FA0D0C940E0E11240C9413
:101CE000530E0E94300E70F3959FC1F3950F50E094
:101CF000551F629FF001729FBB27F00DB11D639FBE
:101D0000AA27F00DB11DAA1F649F6627B00DA11D63
:101D1000661F829F2227B00DA11D621F739FB00D09
:101D2000A11D621F839FA00D611D221F749F332779
:101D3000A00D611D231F849F600D211D822F762F12
:101D40006A2F11249F5750409AF0F1F088234AF0EF
:101D5000EE0FFF1FBB1F661F771F881F915050405B
:101D6000A9F79E3F510580F00C94FA0D0C94530E88
:101D70005F3FE4F3983ED4F3869577956795B795E2
:101D8000F795E7959F5FC1F7FE2B880F911D9695FC
:101D9000879597F908950F931F93CF93DF93823020
:101DA000910510F482E090E0E0913F03F091400350
:101DB00030E020E0B0E0A0E0309799F42115310543
:101DC00009F44AC0281B390B24303105D8F58A8123
:101DD0009B816115710589F1FB0193838283FE016B
:101DE00011C0408151810281138148175907E0F0E9
:101DF0004817590799F4109761F012960C931297AF
:101E000013961C933296CF01DF91CF911F910F91C2
:101E1000089500933F0310934003F4CF211531053B
:101E200051F04217530738F0A901DB019A01BD01B7
:101E3000DF01F801C1CFEF01F9CF90934003809308
:101E40003F03CDCFFE01E20FF31F81939193225008
:101E5000310939832883D7CF20913D0330913E0348
:101E6000232B41F4209102013091030130933E0372
:101E700020933D032091000130910101211531058E
:101E800041F42DB73EB74091040150910501241B48
:101E9000350BE0913D03F0913E03E217F307A0F408
:101EA0002E1B3F0B2817390778F0AC014E5F5F4FB0
:101EB0002417350748F04E0F5F1F50933E034093A1
:101EC0003D03819391939FCFF0E0E0E09CCFCF93CF
:101ED000DF930097E9F0FC01329713821282A09100
:101EE0003F03B0914003ED0130E020E01097A1F4F2
:101EF00020813181820F931F20913D0330913E0359
:101F00002817390709F061C0F0933E03E0933D03C1
:101F1000DF91CF910895EA01CE17DF07E8F54A81F6
:101F20005B819E0141155105B1F7E901FB83EA830D
:101F300049915991C40FD51FEC17FD0761F48081B9
:101F400091810296840F951FE9019983888382818C
:101F500093819B838A83F0E0E0E012968D919C91BF
:101F600013970097B9F52D913C911197CD010296E9
:101F7000820F931F20913D0330913E0328173907AC
:101F800039F6309751F51092400310923F03B09309
:101F90003E03A0933D03BCCFD383C28340815181D4
:101FA000840F951FC817D90761F44E5F5F4F888172
:101FB0009981480F591F518340838A819B81938364
:101FC00082832115310509F0B0CFF0934003E093EF
:101FD0003F039ECFFD01DC01C0CF13821282D7CF19
:101FE000B0E0A0E0E6EFFFE00C942C118C0100972C
:101FF00051F4CB010E94CB0E8C01C801CDB7DEB7E6
:10200000E0E10C944811FC01E60FF71F9C012250FF
:102010003109E217F30708F49DC0D901CD91DC9195
:102020001197C617D70798F0C530D10530F3CE0108
:1020300004978617970708F3C61BD70B2297C193FF
:10204000D1936D937C93CF010E94670FD6CF5B0134
:10205000AC1ABD0A4C018C0E9D1EA0913F03B0919D
:102060004003512C412CF12CE12C109731F580913B
:102070003D0390913E038815990509F05CC0461612
:10208000570608F058C08091000190910101009717
:1020900041F48DB79EB74091040150910501841B16
:1020A000950BE817F90708F055C0F0933E03E0934D
:1020B0003D03F90171836083A0CF8D919C911197AD
:1020C00012966C90129713967C901397A815B905E9
:1020D00059F56C0142E0C40ED11CCA14DB0420F196
:1020E000AC014A195B09DA011296159780F06282F9
:1020F000738251834083D9016D937C93E114F10481
:1021000071F0D7011396FC93EE93129776CF229637
:102110008C0F9D1FF90191838083F301EFCFF09322
:102120004003E0933F0369CF4816590608F42C0199
:102130007D01D3019ACFCB010E94CB0E7C01009789
:1021400049F0AE01B8010E94AD10C8010E94670FAE
:10215000870153CF10E000E050CFFB01DC0102C04B
:1021600001900D9241505040D8F70895FB01DC01D9
:1021700001900D920020E1F708954532510520F4B9
:10218000423010F00C94C810FB011082CB0108956E
:10219000BB274A3031F4992322F4BDE29095819512
:1021A0009F4F0C9401112532310520F4223010F09C
:1021B0000C94DE10FA011082CA010895BB27FA01BF
:1021C000A62F6217710581059105330B30FB66F070
:1021D000AA27660F771F881F991FAA1FA21710F042
:1021E000A21B63953850A9F7A05DAA3308F0A95D3A
:1021F000A19336F7B111B1931082CA010C941A1150
:10220000BB27FB015527AA27880F991FAA1FA417D0
:1022100010F0A41B83955051B9F7A05DAA3308F0C4
:10222000A95DA193009779F7B111B1931192CB01F8
:102230000C941A11DC01FC01672F71917723E1F7EF
:10224000329704C07C916D9370836291AE17BF0783
:10225000C8F308952F923F924F925F926F927F92B0
:102260008F929F92AF92BF92CF92DF92EF92FF92A6
:102270000F931F93CF93DF93CDB7DEB7CA1BDB0B52
:102280000FB6F894DEBF0FBECDBF09942A883988F7
:1022900048885F846E847D848C849B84AA84B984FE
:1022A000C884DF80EE80FD800C811B81AA81B9810A
:1022B000CE0FD11D0FB6F894DEBF0FBECDBFED011E
:0622C0000895F894FFCF21
:1022C6000000410380000400050002000A00090026
:1022D60008001027000043616C6962726174696EC0
:1022E600672E2E00526573697374616E6365204CA8
:1022F6006576656C204552524F5220436F756C646B
:10230600206E6F742064657465726D696E652072E7
:102316006573697374616E63652E0049676E6F72CB
:10232600696E672043616C6962726174696F6E20C1
:1023360076616C756500526573697374616E636569
:10234600204C6576656C20466F756E643A200020D9
:102356004F686D73002D2D2D2D2D2D2D2D2D2D2DF1
:102366002D2D2D2D2D2D2D2D2D2D2D2D2D2D00539E
:1023760054454144592045444459202D2042792052
:102386005374756D626C6F722076312E310044493C
:102396005031205B315D205573696E672064696733
:1023A60069706F74204D4350343135312028354BD8
:1023B600292050756C6C6261636B203D2000426180
:1023C6006C6C20666F756E64210042616C6C2067D0
:1023D6006F6E650042616C6C20676F6E6520286DBC
:1023E60061782073656E736529000000000053074D
:1023F6008108F5063307C706E106D3060D0A000075
:00000001FF
