:100000000C9469000C9491000C9491000C94910054
:100010000C9491000C9491000C9491000C94FA04AF
:100020000C9491000C9491000C9491000C9491000C
:100030000C9491000C9491000C9491000C949100FC
:100040000C94EF0A0C9491000C9498080C94CA0834
:100050000C9491000C9491000C9491000C949100DC
:100060000C9491000C949100000000090003020020
:10007000000405080000000000000000000000016E
:10008000020408102040800102040810200102042C
:100090000810204080400404040404040404020204
:1000A000020202020303030303030202030000002F
:1000B0000023002600290000000000250028002B56
:1000C0000000000000240027002A0000A200DD0636
:1000D000FA0811241FBECFEFD8E0DEBFCDBF12E07B
:1000E000A0E0B1E0E2E1F4E202C005900D92A83593
:1000F000B107D9F723E0A8E5B2E001C01D92AD3504
:10010000B207E1F710E0C9E6D0E004C02197FE0194
:100110000E94BC0CC636D107C9F70E94E00A0C94B5
:1001200007120C940000FC018FEF80831282118271
:10013000148613868FEF9FEFDC0187839087A1875A
:10014000B287089588E592E00C9493004F925F92F5
:100150006F927F928F929F92AF92BF92CF92DF92D7
:10016000EF92FF92CF93DF93CDB7DEB72A970FB60A
:10017000F894DEBF0FBECDBF9A8789870E94390BE6
:100180000E94EB0D6B017C01A985BA85DA966D9111
:100190007D918D919C91DD970E94EB0D9B01AC01AF
:1001A000C701B6010E94D10C20E030E04AE754E4D8
:1001B0000E94430D6B017C01E985FA85EE5BFF4FE0
:1001C00080819181A281B38189839A83AB83BC832F
:1001D000E985FA85EA5BFF4F2081318142815381B5
:1001E000BC01CD010E94D20C4B015C01E985FA856E
:1001F000FE9680819181A281B3818D839E83AF839E
:10020000B887A5019401C701B6010E94330E2B01E6
:100210003C0120E030E0A9010E94FF0E87FD36C0BE
:10022000A301920169817A818B819C810E94FF0EDA
:1002300087FD2CC02D813E814F815885C501B401B9
:100240000E94040F9B01AC01C701B6010E943E0D44
:10025000682F661F6627661FA985BA8554968C91FC
:100260002A960FB6F894DEBF0FBECDBFDF91CF91B7
:10027000FF90EF90DF90CF90BF90AF909F908F90C6
:100280007F906F905F904F900C94300C60E0E4CFC3
:100290002091B102222381F03FB7F8942091B1025E
:1002A000213069F42DB32093AF024DB32091B002F9
:1002B000209524232DBB3FBF8CBD9DBD0895309359
:1002C000AF02FACF8EBD00000DB407FEFDCF8EB594
:1002D00008951F93CF93DF93EC01162F60E08B817D
:1002E0000E94300C8D819E81803127E2920769F453
:1002F00089810E946201812F0E94620161E08B81ED
:10030000DF91CF911F910C94300C883E23E092072F
:1003100011F48881EECF8838934169F78A81E9CF5B
:100320002F923F924F925F926F927F928F929F9205
:10033000AF92BF92CF92DF92EF92FF920F931F93F3
:10034000CF93DF93CDB7DEB72E970FB6F894DEBF0D
:100350000FBECDBF1C017E876D8749015A01270161
:1003600038010E94390BF10182AD93ADA4ADB5AD5A
:1003700081010E5B1F4F892B8A2B8B2B09F04AC002
:100380009101225C3F4F3A8329834D855E85BA01F6
:10039000550F880B990B0E94ED0DA981BA816D93C1
:1003A0007D938D939C931397F80180829182A28212
:1003B000B382F101EA5BFF4F408251826282738215
:1003C0000E94390B0E94EB0DA50194010E94D20CF2
:1003D0000E94BC0DD101DA966D937D938D939C9311
:1003E000DD972E960FB6F894DEBF0FBECDBFDF911E
:1003F000CF911F910F91FF90EF90DF90CF90BF9022
:10040000AF909F908F907F906F905F904F903F90B4
:100410002F900895D8012D913D914D915C912983A4
:100420003A834B835C83EA5BFF4F208131814281B9
:1004300053812D833E834F835887389780819181E4
:10044000A281B38189879A87AB87BC870E94390BC9
:10045000D101DA96CD90DD90ED90FC90DD979B0177
:10046000AC012C193D094E095F0969017A012D8102
:100470003E814F81588569817A818B819C810E9460
:10048000D20C29853A854B855C850E94040F0E9419
:10049000B50D072E000C880B990BC616D706E8067B
:1004A000F90608F06DCF9DCF4F925F926F927F92C9
:1004B000AF92BF92CF92DF92EF92FF920F931F9372
:1004C000CF93DF93CDB7DEB72C970FB6F894DEBF8E
:1004D0000FBECDBF6C0181E0F60181AF66E171E036
:1004E00083EB92E00E9487090E94390BF60164A316
:1004F00075A386A397A3E684F78401A512A55601E8
:10050000FBE2AF0EB11C0F3F110511F00CF08EC0D5
:10051000F60117870687B801C5010E94690162E0EC
:1005200070E080E090E00E946A0BF60182890E94F0
:100530005E0C892B09F070C0F60106851785808551
:100540009185081B190B178706876285738584853B
:1005500095852FEF30E040E050E00E94870CD801F5
:100560000E94B40C2B013C01B801C5010E94690135
:10057000F60120853185220F331F86859785821BE2
:10058000930B92A781A761E070E080E090E00E9469
:100590006A0BF60110A6411451046104710431F094
:1005A00086859785181619060CF444C064E271E03C
:1005B00083EB92E00E948709E12CF12C00E01FE31D
:1005C00020E030E040E85FE365E070E0C6010E94B3
:1005D000900181E0F6018183F60111AE0E94390B92
:1005E000F60164A375A386A397A3868597852C96A9
:1005F0000FB6F894DEBF0FBECDBFDF91CF911F9134
:100600000F91FF90EF90DF90CF90BF90AF907F90D1
:100610006F905F904F9008950E94390BF60164A38C
:1006200075A386A397A30F5F1F4F6DCF412C512C4D
:100630003201AFCF1E141F04FCF49701281B390BA5
:10064000C90137FF03C09195819591090697A4F0E0
:10065000B701C6018B960E9469016AE070E080E0F4
:1006600090E00E946A0B6BE571E083EB92E00E94E0
:100670008709F601F786E6862AE0B301A201CE01DA
:1006800007960E94580A66E771E0CE0101960E9423
:100690000D0ABE01695F7F4FCE0101960E94B10A2B
:1006A0006FE871E00E94C40ABC0183EB92E00E94F3
:1006B0007509CE0101960E949E09CE0107960E94FF
:1006C0009E0919E2E12E1CE5F12E0FE81DE3A801B9
:1006D000970164E070E0C6010E9490017DCFCF9247
:1006E000DF92EF92FF920F931F93CF93DF93CDB7DB
:1006F000DEB72C970FB6F894DEBF0FBECDBFFC015E
:1007000021AD21116DC18C0182890E945E0CF8011E
:1007100097AB86AB46895789608D718D892B09F01F
:10072000D7C0452B462B472B39F40E94390BF801D3
:10073000668B778B808F918F0E94390BF801C6886A
:10074000D788E08CF18CAB01BC014C195D096E09B6
:100750007F09828D938D092E000CAA0BBB0B21E023
:1007600084179507A607B70708F020E0F80120AF27
:100770002081211117C084179507A607B70790F4A9
:10078000FF24F394F08265E971E083EB92E00E942C
:100790008709F801F0A60E94390BF801648F758F64
:1007A000868F978FF8018081882379F10E94390B19
:1007B000F80126813781C48CD58CE68CF78C6C19B6
:1007C0007D098E099F096901032E000CEE08FF08C0
:1007D000C616D706E806F906C0F412161306ACF4DE
:1007E000108260E084890E94300C64EC71E083EB3D
:1007F00092E00E9487090E94390BF80160A371A35F
:1008000082A393A3C8010E945402F80182819381BC
:10081000019611F1F801808181111EC080A5882305
:10082000D9F00E94390BF801C0A0D1A0E2A0F3A03A
:10083000AB01BC014C195D096E097F09828193816E
:10084000092E000CAA0BBB0B84179507A607B70748
:1008500018F4C8010E945402F80184819581019620
:10086000F9F0F8018081811122C00E94390BF80152
:10087000C4A0D5A0E6A0F7A0AB01BC014C195D094E
:100880006E097F0984819581092E000CAA0BBB0B90
:1008900084179507A607B70718F4C8010E945402E9
:1008A000F8018081811103C0C8010E94A600F801EF
:1008B00080812C960FB6F894DEBF0FBECDBFDF91BE
:1008C000CF911F910F91FF90EF90DF90CF900895FF
:1008D000452B462B472B09F444C00E94390BF801E5
:1008E000C688D788E08CF18CAB01BC014C195D093E
:1008F0006E097F09828D938D092E000CAA0BBB0B0C
:10090000481759076A077B0760F50E94390BF80101
:10091000C688D788E08CF18CAB01BC014C195D090D
:100920006E097F092AE0CE0107960E94580A61EA03
:1009300071E0CE0101960E940D0ABE01695F7F4FF2
:10094000CE0101960E94B10ABC0183EB92E00E94A5
:100950007509CE0101960E949E09CE0107960E945C
:100960009E09F80180818823A1F110820E94390B31
:10097000F801C688D788E08CF18CAB01BC014C191A
:100980005D096E097F092AE0CE0107960E94580A88
:100990006CEA71E0CE0101960E940D0ABE01695F0A
:1009A0007F4FCE0101960E94B10ABC0183EB92E019
:1009B0000E947509CE0101960E949E09CE010796FC
:1009C0000E949E090E94390BF80160A371A382A3C3
:1009D00093A3F801168A178A108E118E10AEE2CEFC
:1009E00068CF9091080160E0811101C061E0892F1A
:1009F0000C94300C1F920F920FB60F9211242F936C
:100A00003F934F935F936F937F938F939F93AF9396
:100A1000BF93EF93FF9385E692E00E946F030E94DD
:100A2000F104FF91EF91BF91AF919F918F917F91D1
:100A30006F915F914F913F912F910F900FBE0F904B
:100A40001F9018954F925F926F927F928F929F9214
:100A5000AF92BF92CF92DF92EF92FF920F931F93CC
:100A6000CF93DF93CDB7DEB72C970FB6F894DEBFE8
:100A70000FBECDBF26E040E052EC61E070E083EBBA
:100A800092E00E9440086AED71E083EB92E00E94E0
:100A9000870964EF71E083EB92E00E9487096AEDB9
:100AA00071E083EB92E00E948709F8941092B00005
:100AB0001092B1001092B20082E58093B300809151
:100AC000B10082608093B1008091B1008360809317
:100AD000B10080917000826080937000789461E032
:100AE000809108010E94F40B61E0809106010E9450
:100AF000F40B61E0809108010E94300C62E080916B
:100B000010010E94F40B62E080910E010E94F40B30
:100B1000809110010E945E0C5C0180910E010E9488
:100B20005E0C7C0188E8482E83E1582E612C712CE4
:100B300040921201509213016092140170921501BB
:100B40000091060190900701C0900A0180900B016E
:100B500010910C01D0900D0161E0812F0E94F40BE7
:100B600081E590E00E9448010E94370762E08C2DE9
:100B70000E94F40B61E0802F0E94F40B60E0802F54
:100B80000E94300C109265021092660284E690E09A
:100B9000909368028093670280E197E290936A02E3
:100BA0008093690280ED97E090936C0280936B02D2
:100BB00082E090E090936E0280936D0240926F020B
:100BC00050927002609271027092720210927402DE
:100BD0001092730210937502D0927602C09277023F
:100BE000809278020093790290927A0210927B02AE
:100BF00010927C0210927D0210927E028EE190E0B3
:100C00009093800280937F02109281021092820260
:100C10001092830210928402109285021092860232
:100C200010928702109288021092890210928A0212
:100C300010928B0210928C0210928D0210928F02F1
:100C400010928E0281E18093900210929102109294
:100C5000920210939302D092940288E893E19093C9
:100C60009602809395021092970210929802109229
:100C7000990210929A0210929C0210929B0210927A
:100C80009D0210929E0210929F021092A00210925A
:100C9000A1021092A2021092A3021092A40210923A
:100CA000A5021092A6021092A7021092A80210921A
:100CB000A9021092AA021092AB021092AC021092FA
:100CC000AD021092AE02AB2859F484E090E0EF2818
:100CD00011F488E090E090936E0280936D0204C05E
:100CE00086E090E0EF28B9F360916D0270916E029A
:100CF0004AE0CE0107960E942C0A63E172E0CE0121
:100D000001960E940D0ABE01695F7F4FCE010196D8
:100D10000E94B10ABC0183EB92E00E947509CE01EA
:100D200001960E949E09CE0107960E949E098FEFB0
:100D30009FEF909368028093670290936A0280937A
:100D4000690268EB7BE080E090E00E946A0B85E638
:100D500092E00E9454022C960FB6F894DEBF0FBEAC
:100D6000CDBFDF91CF911F910F91FF90EF90DF905A
:100D7000CF90BF90AF909F908F907F906F905F903B
:100D80004F90089580919E02811116C08091650256
:100D9000811104C085E692E00E94A600809166025F
:100DA00081110AC08091060190919D0261E091112C
:100DB00001C060E00C94300C0895E5E6F2E010828A
:100DC000118284E690E09383828380E197E29583A9
:100DD000848380ED97E09783868382E090E091871B
:100DE000808717861686168A178A108E118E8EE1D6
:100DF00090E0938F828F148E158E168E178E10A210
:100E000011A212A213A214A215A216A217A210A632
:100E100012A611A681E183A714A615A617A616A6E9
:100E200011AA10AA12AA13AA14AA15AA17AA16AAD6
:100E300010AE11AE12AE13AE14AE15AE1092A302E8
:100E40001092A4021092A5021092A6021092A7027C
:100E50001092A8021092A9021092AA021092AB025C
:100E60001092AC021092AD021092AE020895CF9390
:100E7000CFB7F8948091B202811127C0E0EAF0E088
:100E80008491E9E8F0E09491E82FF0E0EE0FFF1F85
:100E9000EF53FF4FA591B491EC91E92321F461E068
:100EA0008AE00E94300C61E08AE00E94F40B8CB56D
:100EB00080618CBD8CB580648CBD61E08DE00E944A
:100EC000F40B61E08BE00E94F40B8091B2028F5F23
:100ED0008093B202CFBFCF910895FC01918D228DF6
:100EE000892F90E0805C9F4F821B91098F73992717
:100EF0000895FC01918D828D981731F0828DE80F55
:100F0000F11D858D90E008958FEF9FEF0895FC010E
:100F1000918D828D981761F0A28DAE0FBF2FB11DFC
:100F20005D968C91928D9F5F9F73928F90E0089554
:100F30008FEF9FEF0895FC01538D448D252F30E0F6
:100F4000842F90E0821B930B541710F0CF960895D6
:100F50000197089580EF98E0892B49F080E090E0B8
:100F6000892B29F00E94F00881110C94000008954B
:100F7000FC01A48DA80FB92FB11DA35ABF4F2C910E
:100F8000848D90E001968F739927848FA689B78905
:100F90002C93A089B1898C9180648C93938D848DDE
:100FA000981306C00288F389E02D80818F7D8083AD
:100FB0000895CF93DF93EC01888D8823B9F0AA8937
:100FC000BB89E889F9898C9185FD03C0808186FD04
:100FD0000DC00FB607FCF7CF8C9185FFF2CF808153
:100FE00085FFEDCFCE010E94B807E9CFDF91CF9109
:100FF0000895EF92FF920F931F93CF93DF93EC012D
:1010000081E0888F9B8D8C8D981316C0E889F989B3
:10101000808185FF11C0EE89FF896083E889F989A5
:1010200080818064808381E090E0DF91CF911F9187
:101030000F91FF90EF900895F62E0B8D10E00F5F4B
:101040001F4F0F731127E02E8C8D8E110CC00FB621
:1010500007FCFACFE889F989808185FFF5CFCE01B9
:101060000E94B807F1CFEB8DEC0FFD2FF11DE35A75
:10107000FF4FF0820B8FEA89FB8980818062D2CF9B
:10108000CF92DF92EF92FF921F93CF93DF93EC0109
:101090006A017B01122FE889F98982E08083C114FB
:1010A00081EED806E104F104A1F060E079E08DE37F
:1010B00090E0A70196010E94870C21503109410957
:1010C00051095695479537952795211580E13807A1
:1010D00098F0E889F989108260E874E88EE190E080
:1010E000A70196010E94870C21503109410951093D
:1010F0005695479537952795EC85FD853083EE8588
:10110000FF852083188EEC89FD891083EA89FB898D
:10111000808188698083EA89FB8980818F7D8083D3
:10112000DF91CF911F91FF90EF90DF90CF900895C6
:101130001F920F920FB60F9211242F938F939F93AC
:10114000EF93FF93E091C302F091C4028081E0919C
:10115000C902F091CA0282FD1BC090818091CC022D
:101160008F5F8F732091CD02821741F0E091CC0206
:10117000F0E0ED54FD4F958F8093CC02FF91EF91FD
:101180009F918F912F910F900FBE0F901F901895E8
:101190008081F4CF1F920F920FB60F9211242F93DC
:1011A0003F934F935F936F937F938F939F93AF93EF
:1011B000BF93EF93FF9383EB92E00E94B807FF91F8
:1011C000EF91BF91AF919F918F917F916F915F91BF
:1011D0004F913F912F910F900FBE0F901F90189538
:1011E00083EB92E00E946D0721E0892B09F420E057
:1011F000822F0895E3EBF2E01382128288EE93E0EF
:10120000A0E0B0E084839583A683B78387E492E06F
:101210009183808385EC90E09587848784EC90E0CF
:101220009787868780EC90E0918B808B81EC90E0B3
:10123000938B828B82EC90E0958B848B86EC90E094
:10124000978B868B118E128E138E148E0895AF920B
:10125000BF92CF92DF92EF92FF920F931F93CF93A3
:10126000DF936C017B018B01040F151FEB015E0105
:10127000AE18BF08C017D10759F06991D601ED919A
:10128000FC910190F081E02DC6010995892B79F739
:10129000C501DF91CF911F910F91FF90EF90DF90EB
:1012A000CF90BF90AF900895FB0101900020E9F727
:1012B0003197AF01461B570BDC01ED91FC91028089
:1012C000F381E02D0994DB0114964D915C91159703
:1012D0006D917C91DC01ED91FC910280F381E02D18
:1012E000099465E572E00C9454090F931F93CF9312
:1012F000DF93EC010E9463098C01CE010E94710909
:10130000800F911FDF91CF911F910F9108950F933F
:101310001F93CF93DF938C01D0E0C0E0611571057E
:1013200019F00E945409EC01C8010E9471098C0F48
:101330009D1FDF91CF911F910F910895FC01808136
:1013400091810C940D10CF93DF93EC0188819981EA
:10135000009711F00E940D10198218821D821C82C4
:101360001B821A82DF91CF9108950F931F93CF9321
:10137000DF93EC018B016F5F7F4F888199810E9421
:101380009610009751F0998388831B830A8381E02C
:10139000DF91CF911F910F91089580E0F9CFCF9306
:1013A000DF93EC0188819981892B49F08A819B81A7
:1013B0008617970720F081E0DF91CF910895CE0145
:1013C0000E94B5098823C1F38C819D81892B99F7EF
:1013D000E881F9811082EFCFEF92FF920F931F9374
:1013E000CF93DF93EC017B018A01BA010E94CF0900
:1013F00081110BC0CE010E94A309CE01DF91CF91D4
:101400001F910F91FF90EF9008951D830C83B701FA
:10141000888199810E945C11F0CFFC0111821082B9
:1014200013821282158214826115710551F0FB013D
:1014300001900020E9F73197AF01461B570B0C9440
:10144000EC090895FB0101900020E9F73197AF0105
:10145000461B570B0C94EC090F931F93CF93DF930C
:10146000CDB7DEB762970FB6F894DEBF0FBECDBF23
:101470008C01CB01F8011182108213821282158235
:10148000148250E0BE016F5F7F4F0E946311BE0166
:101490006F5F7F4FC8010E94220A62960FB6F894D0
:1014A000DEBF0FBECDBFDF91CF911F910F91089589
:1014B0000F931F93CF93DF93CDB7DEB7A1970FB6EE
:1014C000F894DEBF0FBECDBF8C01CB01BA01F8018D
:1014D00011821082138212821582148230E0AE01D2
:1014E0004F5F5F4F0E947911BE016F5F7F4FC80150
:1014F0000E94220AA1960FB6F894DEBF0FBECDBFA0
:10150000DF91CF911F910F910895EF92FF920F936A
:101510001F93CF93DF936115710541F480E0DF9154
:10152000CF911F910F91FF90EF90089541155105B4
:10153000B1F07B01EC010C811D81040F151FB80176
:101540000E94CF09882351F3288139818C819D81A4
:10155000B701820F931F0E945C111D830C8381E0F1
:10156000DECFCF93DF93EC01FB0144815581608195
:1015700071810E94850A811103C0CE010E94A309D6
:10158000CE01DF91CF910895CF93DF93EC016115E8
:10159000710539F4CE010E94A309CE01DF91CF91EC
:1015A0000895FB0101900020E9F73197AF01461B38
:1015B000570B0E94850A882369F3EFCF0895089599
:1015C0000E94A30B0E94DF0A0E942205CAEAD7E00C
:1015D0000E94C2062097E1F30E94AA07F9CF1F924A
:1015E0000F920FB60F9211242F933F938F939F93D7
:1015F000AF93BF938091550390915603A0915703E9
:10160000B09158033091540323E0230F2D3768F134
:1016100026E8230F0296A11DB11D20935403809349
:10162000550390935603A0935703B09358038091AA
:10163000500390915103A0915203B091530301962E
:10164000A11DB11D8093500390935103A0935203A9
:10165000B0935303BF91AF919F918F913F912F9181
:101660000F900FBE0F901F9018950196A11DB11DF0
:10167000D4CF2FB7F89460915503709156038091A1
:101680005703909158032FBF08953FB7F894809166
:10169000500390915103A0915203B091530326B58A
:1016A000A89B05C02F3F19F00196A11DB11D3FBF9A
:1016B000BA2FA92F982F8827BC01CD01620F711D69
:1016C000811D911D42E0660F771F881F991F4A9563
:1016D000D1F708958F929F92AF92BF92CF92DF92EF
:1016E000EF92FF926B017C010E94450B4B015C0164
:1016F000C114D104E104F104E9F00E94DE0A0E9461
:10170000450B681979098A099B09683E7340810570
:10171000910570F321E0C21AD108E108F10888EEC2
:10172000880E83E0981EA11CB11CC114D104E104F1
:10173000F10429F7FF90EF90DF90CF90BF90AF902A
:101740009F908F900895789484B5836084BD85B50B
:10175000836085BDEEE6F0E0808181608083E1E812
:10176000F0E082E08083808181608083E0E8F0E0C7
:10177000808181608083E1EBF0E080818460808300
:10178000E0EBF0E080818160808387E880937A00DD
:101790001092C1000895843081F028F48230E9F07D
:1017A0008330F9F00895883071F0893091F08530F8
:1017B000B9F4809180008F7D03C0809180008F7785
:1017C0008093800008958091B0008F778093B0005F
:1017D00008958091B0008F7DF9CF84B58F7784BD57
:1017E000089584B58F7DFBCFCF93DF9390E0FC010C
:1017F000E158FF4F24918A569F4FFC018491882322
:10180000C9F090E0880F991FFC01EF53FF4FA5919D
:10181000B491FC01E954FF4FC591D49161110DC001
:101820009FB7F8948C91209582238C9388812823EC
:1018300028839FBFDF91CF910895623051F49FB705
:10184000F8943C91822F809583238C93E8812E2BF2
:10185000EFCF8FB7F894EC912E2B2C938FBFEACF5C
:101860001F93CF93DF93282F30E0F901E859FF4F02
:101870008491F901E158FF4FD491F901EA56FF4FE5
:10188000C491CC23A9F0162F81110E94CB0BEC2F11
:10189000F0E0EE0FFF1FE954FF4FA591B4918FB711
:1018A000F894EC91111108C0D095DE23DC938FBF22
:1018B000DF91CF911F910895DE2BF8CFCF93DF9367
:1018C000282F30E0F901E859FF4F8491F901E158E0
:1018D000FF4FD491F901EA56FF4FC491CC23A1F0F8
:1018E00081110E94CB0BEC2FF0E0EE0FFF1FE355B0
:1018F000FF4FA591B491EC91ED2381E090E009F4C4
:1019000080E0DF91CF91089580E090E0FACFA1E2EE
:101910001A2EAA1BBB1BFD010DC0AA1FBB1FEE1F69
:10192000FF1FA217B307E407F50720F0A21BB30BB4
:10193000E40BF50B661F771F881F991F1A9469F730
:1019400060957095809590959B01AC01BD01CF018C
:1019500008950E94C20CA59F900DB49F900DA49F66
:10196000800D911D11240895B7FF0C94A90C0E94BD
:10197000A90C821B930B0895EE0FFF1F0590F491A5
:10198000E02D0994A29FB001B39FC001A39F700DE9
:10199000811D1124911DB29F700D811D1124911D77
:1019A00008955058BB27AA270E94E90C0C94C50E35
:1019B0000E94B70E38F00E94BE0E20F039F49F3F0F
:1019C00019F426F40C94B40E0EF4E095E7FB0C9495
:1019D000A00EE92F0E94D60E58F3BA1762077307BC
:1019E0008407950720F079F4A6F50C94F80E0EF410
:1019F000E0950B2EBA2FA02D0B01B90190010C011F
:101A0000CA01A0011124FF27591B99F0593F50F436
:101A1000503E68F11A16F040A22F232F342F44278E
:101A2000585FF3CF469537952795A795F040539586
:101A3000C9F77EF41F16BA0B620B730B840BBAF056
:101A40009150A1F0FF0FBB1F661F771F881FC2F7C1
:101A50000EC0BA0F621F731F841F48F487957795D5
:101A60006795B795F7959E3F08F0B0CF9395880F8F
:101A700008F09927EE0F9795879508950E947C0EA0
:101A800008F481E008950E94570D0C94C50E0E9441
:101A9000BE0E58F00E94B70E40F029F45F3F29F0C7
:101AA0000C94A00E51110C94F90E0C94B40E0E94DB
:101AB000D60E68F39923B1F3552391F3951B550B7B
:101AC000BB27AA2762177307840738F09F5F5F4F11
:101AD000220F331F441FAA1FA9F335D00E2E3AF050
:101AE000E0E832D091505040E695001CCAF72BD068
:101AF000FE2F29D0660F771F881FBB1F26173707B9
:101B00004807AB07B0E809F0BB0B802DBF01FF27EA
:101B100093585F4F3AF09E3F510578F00C94A00E19
:101B20000C94F90E5F3FE4F3983ED4F386957795D5
:101B30006795B795F7959F5FC9F7880F911D9695A3
:101B4000879597F90895E1E0660F771F881FBB1FFF
:101B5000621773078407BA0720F0621B730B840BAC
:101B6000BA0BEE1F88F7E09508950E94BC0D6894AB
:101B7000B1110C94F90E08950E94DE0E88F09F5763
:101B800098F0B92F9927B751B0F0E1F0660F771FA1
:101B9000881F991F1AF0BA95C9F714C0B13091F097
:101BA0000E94F80EB1E008950C94F80E672F782F7C
:101BB0008827B85F39F0B93FCCF38695779567955C
:101BC000B395D9F73EF490958095709561957F4FC8
:101BD0008F4F9F4F0895E89409C097FB3EF490956E
:101BE0008095709561957F4F8F4F9F4F9923A9F0F6
:101BF000F92F96E9BB279395F69587957795679585
:101C0000B795F111F8CFFAF4BB0F11F460FF1BC0C8
:101C10006F5F7F4F8F4F9F4F16C0882311F096E95B
:101C200011C0772321F09EE8872F762F05C0662309
:101C300071F096E8862F70E060E02AF09A95660FC2
:101C4000771F881FDAF7880F9695879597F908957B
:101C50000E94B70E20F019F00E94BE0E50F40C94B2
:101C6000B40E0C94F90EE92F0E94D60E88F355237A
:101C7000B1F3E7FB6217730784079507A8F189F3AF
:101C8000E92FFF2788232AF03197660F771F881FD7
:101C9000DAF7952F5527442332F091505040220F08
:101CA000331F441FD2F7BB27E91BF50B621B730BD5
:101CB000840BB109B1F222F4620F731F841FB11DAE
:101CC00031972AF0660F771F881FBB1FEFCF915007
:101CD000504062F041F0882332F0660F771F881F72
:101CE00091505040C1F793950C94A60E8695779528
:101CF00067959F5FD9F7F7CF990F0008550FAA0B8B
:101D0000E0E8FEEF16161706E807F907C0F012160E
:101D10001306E407F50798F0621B730B840B950B11
:101D200039F40A2661F0232B242B252B21F4089566
:101D30000A2609F4A140A6958FEF811D811D089503
:101D400097F99F6780E870E060E008959F3F31F069
:101D5000915020F4879577956795B795880F911DD9
:101D60009695879597F908959FEF80EC0895002444
:101D70000A941616170618060906089500240A94F0
:101D800012161306140605060895092E0394000C76
:101D900011F4882352F0BB0F40F4BF2B11F460FF05
:101DA00004C06F5F7F4F8F4F9F4F089557FD90582E
:101DB000440F551F59F05F3F71F04795880F97FB0F
:101DC000991F61F09F3F79F08795089512161306C9
:101DD0001406551FF2CF4695F1DF08C016161706F8
:101DE0001806991FF1CF869571056105089408952D
:101DF000E894BB2766277727CB0197F908950E94BF
:101E00007C0E08F48FEF08950E94170F0C94C50EF6
:101E10000E94B70E38F00E94BE0E20F0952311F0FC
:101E20000C94A00E0C94B40E11240C94F90E0E9484
:101E3000D60E70F3959FC1F3950F50E0551F629F2A
:101E4000F001729FBB27F00DB11D639FAA27F00D13
:101E5000B11DAA1F649F6627B00DA11D661F829F3A
:101E60002227B00DA11D621F739FB00DA11D621F1F
:101E7000839FA00D611D221F749F3327A00D611D3C
:101E8000231F849F600D211D822F762F6A2F11241E
:101E90009F5750409AF0F1F088234AF0EE0FFF1F51
:101EA000BB1F661F771F881F91505040A9F79E3FA8
:101EB000510580F00C94A00E0C94F90E5F3FE4F3F2
:101EC000983ED4F3869577956795B795F795E795FE
:101ED0009F5FC1F7FE2B880F911D9695879597F907
:101EE00008950F931F93CF93DF938230910510F4E1
:101EF00082E090E0E0915B03F0915C0330E020E051
:101F0000B0E0A0E0309799F42115310509F44AC0FA
:101F1000281B390B24303105D8F58A819B81611546
:101F2000710589F1FB0193838283FE0111C0408119
:101F300051810281138148175907E0F0481759076A
:101F400099F4109761F012960C93129713961C93C4
:101F50003296CF01DF91CF911F910F910895009399
:101F60005B0310935C03F4CF2115310551F0421748
:101F7000530738F0A901DB019A01BD01DF01F80127
:101F8000C1CFEF01F9CF90935C0380935B03CDCF7A
:101F9000FE01E20FF31F819391932250310939839F
:101FA0002883D7CF2091590330915A03232B41F432
:101FB000209102013091030130935A032093590379
:101FC00020910001309101012115310541F42DB717
:101FD0003EB74091040150910501241B350BE0915F
:101FE0005903F0915A03E217F307A0F42E1B3F0B9D
:101FF0002817390778F0AC014E5F5F4F241735077B
:1020000048F04E0F5F1F50935A034093590381933A
:1020100091939FCFF0E0E0E09CCFCF93DF930097C8
:10202000E9F0FC01329713821282A0915B03B09118
:102030005C03ED0130E020E01097A1F420813181B4
:10204000820F931F2091590330915A0328173907A3
:1020500009F061C0F0935A03E0935903DF91CF91E7
:102060000895EA01CE17DF07E8F54A815B819E01FA
:1020700041155105B1F7E901FB83EA834991599173
:10208000C40FD51FEC17FD0761F480819181029682
:10209000840F951FE90199838883828193819B83B3
:1020A0008A83F0E0E0E012968D919C91139700975F
:1020B000B9F52D913C911197CD010296820F931F96
:1020C0002091590330915A032817390739F6309770
:1020D00051F510925C0310925B03B0935A03A093E6
:1020E0005903BCCFD383C28340815181840F951F94
:1020F000C817D90761F44E5F5F4F88819981480FF7
:10210000591F518340838A819B8193838283211548
:10211000310509F0B0CFF0935C03E0935B039ECFF1
:10212000FD01DC01C0CF13821282D7CFB0E0A0E066
:10213000ECE9F0E10C94D2118C01009751F4CB0141
:102140000E94710F8C01C801CDB7DEB7E0E10C949D
:10215000EE11FC01E60FF71F9C0122503109E21736
:10216000F30708F49DC0D901CD91DC911197C617F2
:10217000D70798F0C530D10530F3CE010497861704
:10218000970708F3C61BD70B2297C193D1936D9382
:102190007C93CF010E940D10D6CF5B01AC1ABD0A13
:1021A0004C018C0E9D1EA0915B03B0915C03512CE1
:1021B000412CF12CE12C109731F58091590390912D
:1021C0005A038815990509F05CC04616570608F0B1
:1021D00058C08091000190910101009741F48DB7A2
:1021E0009EB74091040150910501841B950BE8179F
:1021F000F90708F055C0F0935A03E0935903F90129
:1022000071836083A0CF8D919C91119712966C90F1
:10221000129713967C901397A815B90559F56C0180
:1022200042E0C40ED11CCA14DB0420F1AC014A19EF
:102230005B09DA011296159780F0628273825183EE
:102240004083D9016D937C93E114F10471F0D701BF
:102250001396FC93EE93129776CF22968C0F9D1FC8
:10226000F90191838083F301EFCFF0935C03E09356
:102270005B0369CF4816590608F42C017D01D30190
:102280009ACFCB010E94710F7C01009749F0AE01FB
:10229000B8010E945311C8010E940D10870153CF4D
:1022A00010E000E050CFFB01DC0102C001900D9274
:1022B00041505040D8F70895FB01DC0101900D9288
:1022C0000020E1F708954532510520F4423010F026
:1022D0000C946E11FB011082CB010895BB274A308C
:1022E00031F4992322F4BDE2909581959F4F0C948F
:1022F000A7112532310520F4223010F00C948411FE
:10230000FA011082CA010895BB27FA01A62F6217AD
:10231000710581059105330B30FB66F0AA27660F26
:10232000771F881F991FAA1FA21710F0A21B639581
:102330003850A9F7A05DAA3308F0A95DA19336F73C
:10234000B111B1931082CA010C94C011BB27FB01DB
:102350005527AA27880F991FAA1FA41710F0A41B9E
:1023600083955051B9F7A05DAA3308F0A95DA193F8
:10237000009779F7B111B1931192CB010C94C01170
:10238000DC01FC01672F71917723E1F7329704C0DC
:102390007C916D9370836291AE17BF07C8F3089567
:1023A0002F923F924F925F926F927F928F929F9265
:1023B000AF92BF92CF92DF92EF92FF920F931F9353
:1023C000CF93DF93CDB7DEB7CA1BDB0B0FB6F89404
:1023D000DEBF0FBECDBF09942A88398848885F8444
:1023E0006E847D848C849B84AA84B984C884DF80B5
:1023F000EE80FD800C811B81AA81B981CE0FD11D99
:102400000FB6F894DEBF0FBECDBFED010895F8946E
:02241000FFCFFC
:1024120000005D0380000400050002000A000900BC
:1024220008001027000043616C6962726174696E72
:10243200672E2E00526573697374616E6365204C5A
:102442006576656C204552524F5220436F756C641D
:10245200206E6F742064657465726D696E6520729A
:102462006573697374616E63652E0049676E6F727E
:10247200696E672043616C6962726174696F6E2074
:1024820076616C756500526573697374616E63651C
:10249200204C6576656C20466F756E643A2000208C
:1024A2004F686D730042616C6C20666F756E6421BB
:1024B200004465626F756E63653A200042616C6C20
:1024C20020676F6E652E2041637469766520666FA2
:1024D200723A200042616C6C20676F6E6520286D35
:1024E20061782073656E736529002D2D2D2D2D2D9C
:1024F2002D2D2D2D2D2D2D2D2D2D2D2D2D2D2D2D0A
:102502002D2D2D0053544541445920454444592012
:102512002D204279205374756D626C6F7220763172
:102522002E310044495031205B315D205573696E74
:10253200672064696769706F74204D435034313588
:10254200312028354B292050756C6C6261636B20F9
:102552003D200000000000F90727099B07D9076DFD
:0825620007870779070D0A0045
:00000001FF
